{
  "_format": "hh-sol-artifact-1",
  "contractName": "BasketManagerV3",
  "sourceName": "contracts/masset/BasketManagerV3.sol",
  "abi": [
    {
      "anonymous": false,
      "inputs": [
        {
          "indexed": false,
          "internalType": "address",
          "name": "basset",
          "type": "address"
        }
      ],
      "name": "BassetAdded",
      "type": "event"
    },
    {
      "anonymous": false,
      "inputs": [
        {
          "indexed": false,
          "internalType": "address",
          "name": "basset",
          "type": "address"
        }
      ],
      "name": "BassetRemoved",
      "type": "event"
    },
    {
      "anonymous": false,
      "inputs": [
        {
          "indexed": false,
          "internalType": "address",
          "name": "basset",
          "type": "address"
        },
        {
          "indexed": false,
          "internalType": "address",
          "name": "bridge",
          "type": "address"
        }
      ],
      "name": "BridgeChanged",
      "type": "event"
    },
    {
      "anonymous": false,
      "inputs": [
        {
          "indexed": false,
          "internalType": "address",
          "name": "basset",
          "type": "address"
        },
        {
          "indexed": false,
          "internalType": "int256",
          "name": "factor",
          "type": "int256"
        }
      ],
      "name": "FactorChanged",
      "type": "event"
    },
    {
      "anonymous": false,
      "inputs": [
        {
          "indexed": true,
          "internalType": "address",
          "name": "previousOwner",
          "type": "address"
        },
        {
          "indexed": true,
          "internalType": "address",
          "name": "newOwner",
          "type": "address"
        }
      ],
      "name": "OwnershipTransferred",
      "type": "event"
    },
    {
      "anonymous": false,
      "inputs": [
        {
          "indexed": false,
          "internalType": "address",
          "name": "basset",
          "type": "address"
        },
        {
          "indexed": false,
          "internalType": "bool",
          "name": "paused",
          "type": "bool"
        }
      ],
      "name": "PausedChanged",
      "type": "event"
    },
    {
      "anonymous": false,
      "inputs": [
        {
          "indexed": false,
          "internalType": "address",
          "name": "basset",
          "type": "address"
        },
        {
          "indexed": false,
          "internalType": "uint256",
          "name": "min",
          "type": "uint256"
        },
        {
          "indexed": false,
          "internalType": "uint256",
          "name": "max",
          "type": "uint256"
        }
      ],
      "name": "RangeChanged",
      "type": "event"
    },
    {
      "constant": false,
      "inputs": [
        {
          "internalType": "address",
          "name": "_basset",
          "type": "address"
        },
        {
          "internalType": "int256",
          "name": "_factor",
          "type": "int256"
        },
        {
          "internalType": "address",
          "name": "_bridge",
          "type": "address"
        },
        {
          "internalType": "uint256",
          "name": "_min",
          "type": "uint256"
        },
        {
          "internalType": "uint256",
          "name": "_max",
          "type": "uint256"
        },
        {
          "internalType": "bool",
          "name": "_paused",
          "type": "bool"
        }
      ],
      "name": "addBasset",
      "outputs": [],
      "payable": false,
      "stateMutability": "nonpayable",
      "type": "function"
    },
    {
      "constant": false,
      "inputs": [
        {
          "internalType": "address[]",
          "name": "_bassets",
          "type": "address[]"
        },
        {
          "internalType": "int256[]",
          "name": "_factors",
          "type": "int256[]"
        },
        {
          "internalType": "address[]",
          "name": "_bridges",
          "type": "address[]"
        },
        {
          "internalType": "uint256[]",
          "name": "_mins",
          "type": "uint256[]"
        },
        {
          "internalType": "uint256[]",
          "name": "_maxs",
          "type": "uint256[]"
        },
        {
          "internalType": "bool[]",
          "name": "_pausedFlags",
          "type": "bool[]"
        }
      ],
      "name": "addBassets",
      "outputs": [],
      "payable": false,
      "stateMutability": "nonpayable",
      "type": "function"
    },
    {
      "constant": true,
      "inputs": [
        {
          "internalType": "address",
          "name": "_basset",
          "type": "address"
        },
        {
          "internalType": "uint256",
          "name": "_bassetQuantity",
          "type": "uint256"
        }
      ],
      "name": "checkBasketBalanceForDeposit",
      "outputs": [
        {
          "internalType": "bool",
          "name": "",
          "type": "bool"
        }
      ],
      "payable": false,
      "stateMutability": "view",
      "type": "function"
    },
    {
      "constant": true,
      "inputs": [
        {
          "internalType": "address",
          "name": "_basset",
          "type": "address"
        },
        {
          "internalType": "uint256",
          "name": "_bassetQuantity",
          "type": "uint256"
        }
      ],
      "name": "checkBasketBalanceForWithdrawal",
      "outputs": [
        {
          "internalType": "bool",
          "name": "",
          "type": "bool"
        }
      ],
      "payable": false,
      "stateMutability": "view",
      "type": "function"
    },
    {
      "constant": true,
      "inputs": [
        {
          "internalType": "address",
          "name": "_basset",
          "type": "address"
        },
        {
          "internalType": "uint256",
          "name": "_bassetQuantity",
          "type": "uint256"
        }
      ],
      "name": "convertBassetToMassetQuantity",
      "outputs": [
        {
          "internalType": "uint256",
          "name": "massetQuantity",
          "type": "uint256"
        },
        {
          "internalType": "uint256",
          "name": "bassetQuantity",
          "type": "uint256"
        }
      ],
      "payable": false,
      "stateMutability": "view",
      "type": "function"
    },
    {
      "constant": true,
      "inputs": [
        {
          "internalType": "address",
          "name": "_basset",
          "type": "address"
        },
        {
          "internalType": "uint256",
          "name": "_massetQuantity",
          "type": "uint256"
        }
      ],
      "name": "convertMassetToBassetQuantity",
      "outputs": [
        {
          "internalType": "uint256",
          "name": "bassetQuantity",
          "type": "uint256"
        },
        {
          "internalType": "uint256",
          "name": "massetQuantity",
          "type": "uint256"
        }
      ],
      "payable": false,
      "stateMutability": "view",
      "type": "function"
    },
    {
      "constant": true,
      "inputs": [
        {
          "internalType": "address",
          "name": "_basset",
          "type": "address"
        }
      ],
      "name": "getBassetBalance",
      "outputs": [
        {
          "internalType": "uint256",
          "name": "",
          "type": "uint256"
        }
      ],
      "payable": false,
      "stateMutability": "view",
      "type": "function"
    },
    {
      "constant": true,
      "inputs": [],
      "name": "getBassets",
      "outputs": [
        {
          "internalType": "address[]",
          "name": "",
          "type": "address[]"
        }
      ],
      "payable": false,
      "stateMutability": "view",
      "type": "function"
    },
    {
      "constant": true,
      "inputs": [
        {
          "internalType": "address",
          "name": "_basset",
          "type": "address"
        }
      ],
      "name": "getBridge",
      "outputs": [
        {
          "internalType": "address",
          "name": "",
          "type": "address"
        }
      ],
      "payable": false,
      "stateMutability": "view",
      "type": "function"
    },
    {
      "constant": true,
      "inputs": [
        {
          "internalType": "address",
          "name": "_basset",
          "type": "address"
        }
      ],
      "name": "getFactor",
      "outputs": [
        {
          "internalType": "int256",
          "name": "",
          "type": "int256"
        }
      ],
      "payable": false,
      "stateMutability": "view",
      "type": "function"
    },
    {
      "constant": true,
      "inputs": [
        {
          "internalType": "address",
          "name": "_basset",
          "type": "address"
        }
      ],
      "name": "getPaused",
      "outputs": [
        {
          "internalType": "bool",
          "name": "",
          "type": "bool"
        }
      ],
      "payable": false,
      "stateMutability": "view",
      "type": "function"
    },
    {
      "constant": true,
      "inputs": [
        {
          "internalType": "address",
          "name": "_basset",
          "type": "address"
        }
      ],
      "name": "getRange",
      "outputs": [
        {
          "internalType": "uint256",
          "name": "min",
          "type": "uint256"
        },
        {
          "internalType": "uint256",
          "name": "max",
          "type": "uint256"
        }
      ],
      "payable": false,
      "stateMutability": "view",
      "type": "function"
    },
    {
      "constant": true,
      "inputs": [],
      "name": "getTotalMassetBalance",
      "outputs": [
        {
          "internalType": "uint256",
          "name": "total",
          "type": "uint256"
        }
      ],
      "payable": false,
      "stateMutability": "view",
      "type": "function"
    },
    {
      "constant": true,
      "inputs": [],
      "name": "getVersion",
      "outputs": [
        {
          "internalType": "string",
          "name": "",
          "type": "string"
        }
      ],
      "payable": false,
      "stateMutability": "view",
      "type": "function"
    },
    {
      "constant": false,
      "inputs": [
        {
          "internalType": "address",
          "name": "_masset",
          "type": "address"
        }
      ],
      "name": "initialize",
      "outputs": [],
      "payable": false,
      "stateMutability": "nonpayable",
      "type": "function"
    },
    {
      "constant": true,
      "inputs": [],
      "name": "isOwner",
      "outputs": [
        {
          "internalType": "bool",
          "name": "",
          "type": "bool"
        }
      ],
      "payable": false,
      "stateMutability": "view",
      "type": "function"
    },
    {
      "constant": true,
      "inputs": [
        {
          "internalType": "int256",
          "name": "x",
          "type": "int256"
        }
      ],
      "name": "isPowerOfTen",
      "outputs": [
        {
          "internalType": "bool",
          "name": "result",
          "type": "bool"
        }
      ],
      "payable": false,
      "stateMutability": "pure",
      "type": "function"
    },
    {
      "constant": true,
      "inputs": [
        {
          "internalType": "address",
          "name": "_basset",
          "type": "address"
        }
      ],
      "name": "isValidBasset",
      "outputs": [
        {
          "internalType": "bool",
          "name": "",
          "type": "bool"
        }
      ],
      "payable": false,
      "stateMutability": "view",
      "type": "function"
    },
    {
      "constant": true,
      "inputs": [],
      "name": "owner",
      "outputs": [
        {
          "internalType": "address",
          "name": "",
          "type": "address"
        }
      ],
      "payable": false,
      "stateMutability": "view",
      "type": "function"
    },
    {
      "constant": false,
      "inputs": [
        {
          "internalType": "address",
          "name": "_basset",
          "type": "address"
        }
      ],
      "name": "removeBasset",
      "outputs": [],
      "payable": false,
      "stateMutability": "nonpayable",
      "type": "function"
    },
    {
      "constant": false,
      "inputs": [],
      "name": "renounceOwnership",
      "outputs": [],
      "payable": false,
      "stateMutability": "nonpayable",
      "type": "function"
    },
    {
      "constant": false,
      "inputs": [
        {
          "internalType": "address",
          "name": "_basset",
          "type": "address"
        },
        {
          "internalType": "address",
          "name": "_bridge",
          "type": "address"
        }
      ],
      "name": "setBridge",
      "outputs": [],
      "payable": false,
      "stateMutability": "nonpayable",
      "type": "function"
    },
    {
      "constant": false,
      "inputs": [
        {
          "internalType": "address",
          "name": "_basset",
          "type": "address"
        },
        {
          "internalType": "int256",
          "name": "_factor",
          "type": "int256"
        }
      ],
      "name": "setFactor",
      "outputs": [],
      "payable": false,
      "stateMutability": "nonpayable",
      "type": "function"
    },
    {
      "constant": false,
      "inputs": [
        {
          "internalType": "address",
          "name": "_basset",
          "type": "address"
        },
        {
          "internalType": "bool",
          "name": "_flag",
          "type": "bool"
        }
      ],
      "name": "setPaused",
      "outputs": [],
      "payable": false,
      "stateMutability": "nonpayable",
      "type": "function"
    },
    {
      "constant": false,
      "inputs": [
        {
          "internalType": "address",
          "name": "_basset",
          "type": "address"
        },
        {
          "internalType": "uint256",
          "name": "_min",
          "type": "uint256"
        },
        {
          "internalType": "uint256",
          "name": "_max",
          "type": "uint256"
        }
      ],
      "name": "setRange",
      "outputs": [],
      "payable": false,
      "stateMutability": "nonpayable",
      "type": "function"
    },
    {
      "constant": false,
      "inputs": [
        {
          "internalType": "address",
          "name": "newOwner",
          "type": "address"
        }
      ],
      "name": "transferOwnership",
      "outputs": [],
      "payable": false,
      "stateMutability": "nonpayable",
      "type": "function"
    }
  ],
  "bytecode": "0x6080604052611f29806100136000396000f3fe608060405234801561001057600080fd5b506004361061018e5760003560e01c80639bf761b7116100de578063c7bbc86511610097578063f24947dc11610071578063f24947dc1461087b578063f2fde38b146108c3578063f44c7c8f146108e9578063f5bffc351461090f5761018e565b8063c7bbc86514610821578063d80f5a871461084d578063eb72ccd5146108735761018e565b80639bf761b7146104245780639d22ae8c14610450578063a37814951461047e578063a9f02efe146107a9578063b55d9904146107d5578063c4d66de8146107fb5761018e565b8063620611c31161014b578063715018a611610125578063715018a6146103c257806389eba0d2146103ca5780638da5cb5b146103f85780638f32d59b1461041c5761018e565b8063620611c314610327578063623a564b14610358578063689418691461038a5761018e565b806309f2a983146101935780630d8e6e2c146101bb5780631af327bd146102385780631d3ce3981461027d5780635521c653146102d55780635ac99461146102fb575b600080fd5b6101b9600480360360208110156101a957600080fd5b50356001600160a01b0316610935565b005b6101c3610add565b6040805160208082528351818301528351919283929083019185019080838360005b838110156101fd5781810151838201526020016101e5565b50505050905090810190601f16801561022a5780820380516001836020036101000a031916815260200191505b509250505060405180910390f35b6102646004803603604081101561024e57600080fd5b506001600160a01b038135169060200135610b73565b6040805192835260208301919091528051918290030190f35b610285610bef565b60408051602080825283518183015283519192839290830191858101910280838360005b838110156102c15781810151838201526020016102a9565b505050509050019250505060405180910390f35b610264600480360360208110156102eb57600080fd5b50356001600160a01b0316610c50565b6102646004803603604081101561031157600080fd5b506001600160a01b038135169060200135610c88565b6103446004803603602081101561033d57600080fd5b5035610d07565b604080519115158252519081900360200190f35b6101b96004803603606081101561036e57600080fd5b506001600160a01b038135169060208101359060400135610d4a565b6103b0600480360360208110156103a057600080fd5b50356001600160a01b0316610e9d565b60408051918252519081900360200190f35b6101b9610ec6565b6101b9600480360360408110156103e057600080fd5b506001600160a01b0381351690602001351515610f18565b610400610f8f565b604080516001600160a01b039092168252519081900360200190f35b610344610f9e565b6101b96004803603604081101561043a57600080fd5b506001600160a01b038135169060200135610fc2565b6101b96004803603604081101561046657600080fd5b506001600160a01b03813581169160200135166110ca565b6101b9600480360360c081101561049457600080fd5b810190602081018135600160201b8111156104ae57600080fd5b8201836020820111156104c057600080fd5b803590602001918460208302840111600160201b831117156104e157600080fd5b9190808060200260200160405190810160405280939291908181526020018383602002808284376000920191909152509295949360208101935035915050600160201b81111561053057600080fd5b82018360208201111561054257600080fd5b803590602001918460208302840111600160201b8311171561056357600080fd5b9190808060200260200160405190810160405280939291908181526020018383602002808284376000920191909152509295949360208101935035915050600160201b8111156105b257600080fd5b8201836020820111156105c457600080fd5b803590602001918460208302840111600160201b831117156105e557600080fd5b9190808060200260200160405190810160405280939291908181526020018383602002808284376000920191909152509295949360208101935035915050600160201b81111561063457600080fd5b82018360208201111561064657600080fd5b803590602001918460208302840111600160201b8311171561066757600080fd5b9190808060200260200160405190810160405280939291908181526020018383602002808284376000920191909152509295949360208101935035915050600160201b8111156106b657600080fd5b8201836020820111156106c857600080fd5b803590602001918460208302840111600160201b831117156106e957600080fd5b9190808060200260200160405190810160405280939291908181526020018383602002808284376000920191909152509295949360208101935035915050600160201b81111561073857600080fd5b82018360208201111561074a57600080fd5b803590602001918460208302840111600160201b8311171561076b57600080fd5b91908080602002602001604051908101604052809392919081815260200183836020028082843760009201919091525092955061114a945050505050565b610344600480360360408110156107bf57600080fd5b506001600160a01b038135169060200135611268565b610344600480360360208110156107eb57600080fd5b50356001600160a01b031661139b565b6101b96004803603602081101561081157600080fd5b50356001600160a01b03166113c7565b6103446004803603604081101561083757600080fd5b506001600160a01b03813516906020013561146c565b6103446004803603602081101561086357600080fd5b50356001600160a01b03166115fd565b6103b061161a565b6101b9600480360360c081101561089157600080fd5b506001600160a01b0381358116916020810135916040820135169060608101359060808101359060a0013515156116e0565b6101b9600480360360208110156108d957600080fd5b50356001600160a01b031661189a565b610400600480360360208110156108ff57600080fd5b50356001600160a01b03166118ae565b6103b06004803603602081101561092557600080fd5b50356001600160a01b03166118da565b8061093f8161195a565b6109476119b5565b610950826118da565b15610995576040805162461bcd60e51b815260206004820152601060248201526f62616c616e6365206e6f74207a65726f60801b604482015290519081900360640190fd5b6001600160a01b0382166000908152600460205260408120819055805b60035460001901811015610a0257836001600160a01b0316600382815481106109d757fe5b6000918252602090912001546001600160a01b031614156109fa57809150610a02565b6001016109b2565b50600380546000198101908110610a1557fe5b600091825260209091200154600380546001600160a01b039092169183908110610a3b57fe5b9060005260206000200160006101000a8154816001600160a01b0302191690836001600160a01b031602179055506003805480610a7457fe5b6000828152602090819020820160001990810180546001600160a01b0319169055909101909155604080516001600160a01b038616815290517f1e5281bbecf5c15104f9e35265dbe738c1cd2597613cbf4a0a51713448bc13b9929181900390910190a1505050565b60018054604080516020601f60026000196101008789161502019095169490940493840181900481028201810190925282815260609390929091830182828015610b685780601f10610b3d57610100808354040283529160200191610b68565b820191906000526020600020905b815481529060010190602001808311610b4b57829003601f168201915b505050505090505b90565b60008083610b808161195a565b6001600160a01b03851660009081526004602052604081205490811315610bcc57610bb1858263ffffffff6119fa16565b9350610bc3848263ffffffff611a4516565b9250610be79050565b610be085600083900363ffffffff611a4516565b9350849250505b509250929050565b60606003805480602002602001604051908101604052809291908181526020018280548015610b6857602002820191906000526020600020905b81546001600160a01b03168152600190910190602001808311610c29575050505050905090565b60008082610c5d8161195a565b5050506001600160a01b03166000908152600660209081526040808320546007909252909120549091565b60008083610c958161195a565b6001600160a01b03851660009081526004602052604081205490811315610cd257610cc6858263ffffffff611a4516565b9350849250610be79050565b610ce685600083900363ffffffff6119fa16565b9350610cfc84600083900363ffffffff611a4516565b925050509250929050565b6000806000831215610d1e57826000039050610d21565b50815b600a8110158015610d335750600a8106155b15610d4157600a9004610d21565b60011492915050565b82610d548161195a565b610d5c6119b5565b6103e8831115610da5576040805162461bcd60e51b815260206004820152600f60248201526e696e76616c6964206d696e696d756d60881b604482015290519081900360640190fd5b6103e8821115610dee576040805162461bcd60e51b815260206004820152600f60248201526e696e76616c6964206d6178696d756d60881b604482015290519081900360640190fd5b82821015610e33576040805162461bcd60e51b815260206004820152600d60248201526c696e76616c69642072616e676560981b604482015290519081900360640190fd5b6001600160a01b0384166000818152600660209081526040808320879055600782529182902085905581519283528201859052818101849052517fe3b935f735d8a72a31934e03fd96d995c5b3096c7362bc7e8796ab9e1ffe668c9181900360600190a150505050565b600081610ea98161195a565b50506001600160a01b031660009081526004602052604090205490565b610ece6119b5565b600080546040516001600160a01b03909116907f8be0079c531659141344cd1fd0a4f28419497f9722a3daafe3b4186f6b6457e0908390a3600080546001600160a01b0319169055565b81610f228161195a565b610f2a6119b5565b6001600160a01b038316600081815260086020908152604091829020805460ff191686151590811790915582519384529083015280517f6567e54649bc4d1136cad0f12cfc472ef5c8255ad12c3e46ecf4ef245f06c6cc9281900390910190a1505050565b6000546001600160a01b031690565b600080546001600160a01b0316610fb3611a9e565b6001600160a01b031614905090565b610fca6119b5565b8061100d576040805162461bcd60e51b815260206004820152600e60248201526d34b73b30b634b2103330b1ba37b960911b604482015290519081900360640190fd5b8060011480611020575061102081610d07565b611071576040805162461bcd60e51b815260206004820152601a60248201527f666163746f72206d75737420626520706f776572206f66203130000000000000604482015290519081900360640190fd5b6001600160a01b0382166000818152600460209081526040918290208490558151928352820183905280517fbd9d78e6bf6327f299e2cc40ef087c54546ef9ac6bea857cdc90b57270bbb5899281900390910190a15050565b816110d48161195a565b6110dc6119b5565b6001600160a01b0383811660008181526005602090815260409182902080546001600160a01b0319169487169485179055815192835282019290925281517fd565484d693f5157abcceb853139678038bc740991b0a4dc3baa2426325bb3c0929181900390910190a1505050565b6111526119b5565b85518551811480156111645750808551145b80156111705750808451145b801561117c5750808351145b80156111885750808251145b6111cb576040805162461bcd60e51b815260206004820152600f60248201526e696e76616c6964206c656e6774687360881b604482015290519081900360640190fd5b60005b8181101561125e576112568882815181106111e557fe5b60200260200101518883815181106111f957fe5b602002602001015188848151811061120d57fe5b602002602001015188858151811061122157fe5b602002602001015188868151811061123557fe5b602002602001015188878151811061124957fe5b60200260200101516116e0565b6001016111ce565b5050505050505050565b6000826112748161195a565b8361127e81611aa2565b600061128a8686610b73565b50600254604080516370a0823160e01b81526001600160a01b0392831660048201529051929350600092918916916370a0823191602480820192602092909190829003018186803b1580156112de57600080fd5b505afa1580156112f2573d6000803e3d6000fd5b505050506040513d602081101561130857600080fd5b5051905060006113188883610b73565b509050600061132d828563ffffffff611b0316565b905060006113498561133d61161a565b9063ffffffff611b0316565b9050600061136f82611363856103e863ffffffff611a4516565b9063ffffffff6119fa16565b6001600160a01b038c16600090815260076020526040902054101598505050505050505b505092915050565b6000816113a78161195a565b50506001600160a01b031660009081526008602052604090205460ff1690565b6002546001600160a01b03161561141b576040805162461bcd60e51b8152602060048201526013602482015272185b1c9958591e481a5b9a5d1a585b1a5e9959606a1b604482015290519081900360640190fd5b611423611b5d565b600280546001600160a01b0319166001600160a01b038316179055604080518082019091526003808252620332e360ec1b602090920191825261146891600191611de5565b5050565b6000826114788161195a565b8361148281611aa2565b600061148e8686610b73565b50600254604080516370a0823160e01b81526001600160a01b0392831660048201529051929350600092918916916370a0823191602480820192602092909190829003018186803b1580156114e257600080fd5b505afa1580156114f6573d6000803e3d6000fd5b505050506040513d602081101561150c57600080fd5b50519050600061151c8883610b73565b50905082811015611574576040805162461bcd60e51b815260206004820181905260248201527f6261737365742062616c616e6365206973206e6f742073756666696369656e74604482015290519081900360640190fd5b6000611586828563ffffffff611c0716565b905060006115a28561159661161a565b9063ffffffff611c0716565b6001600160a01b038b16600090815260066020526040902054909150816115d157159750611393945050505050565b60006115e983611363866103e863ffffffff611a4516565b91909110159b9a5050505050505050505050565b6001600160a01b0316600090815260046020526040902054151590565b6000805b6003548110156116dc5760006003828154811061163757fe5b6000918252602080832090910154600254604080516370a0823160e01b81526001600160a01b039283166004820152905191909216945084926370a082319260248082019391829003018186803b15801561169157600080fd5b505afa1580156116a5573d6000803e3d6000fd5b505050506040513d60208110156116bb57600080fd5b5051905060006116cb8383610b73565b50949094019350505060010161161e565b5090565b6116e86119b5565b6001600160a01b03861661173c576040805162461bcd60e51b8152602060048201526016602482015275696e76616c696420626173736574206164647265737360501b604482015290519081900360640190fd5b6001600160a01b0386166000908152600460205260409020541561179f576040805162461bcd60e51b815260206004820152601560248201527462617373657420616c72656164792065786973747360581b604482015290519081900360640190fd5b846117e2576040805162461bcd60e51b815260206004820152600e60248201526d34b73b30b634b2103330b1ba37b960911b604482015290519081900360640190fd5b600380546001810182556000919091527fc2575a0e9e593c00f959f8c92f12db2869c3395a3b0502d05e2516446f71f85b0180546001600160a01b0319166001600160a01b0388161790556118378686610fc2565b611842868484610d4a565b61184c86856110ca565b6118568682610f18565b604080516001600160a01b038816815290517fa83f9302fa4684335dd26b1bdd925929618565fa0f22bd9e91ab01753d8bf13c9181900360200190a1505050505050565b6118a26119b5565b6118ab81611c49565b50565b6000816118ba8161195a565b50506001600160a01b039081166000908152600560205260409020541690565b600254604080516370a0823160e01b81526001600160a01b03928316600482015290516000928416916370a08231916024808301926020929190829003018186803b15801561192857600080fd5b505afa15801561193c573d6000803e3d6000fd5b505050506040513d602081101561195257600080fd5b505192915050565b6001600160a01b0381166000908152600460205260409020546118ab576040805162461bcd60e51b815260206004820152600e60248201526d1a5b9d985b1a590818985cdcd95d60921b604482015290519081900360640190fd5b6119bd610f9e565b6119f85760405162461bcd60e51b815260040180806020018281038252602d815260200180611ec8602d913960400191505060405180910390fd5b565b6000611a3c83836040518060400160405280601a81526020017f536166654d6174683a206469766973696f6e206279207a65726f000000000000815250611ce9565b90505b92915050565b600082611a5457506000611a3f565b82820282848281611a6157fe5b0414611a3c5760405162461bcd60e51b8152600401808060200182810382526021815260200180611ea76021913960400191505060405180910390fd5b3390565b6001600160a01b03811660009081526008602052604090205460ff16156118ab576040805162461bcd60e51b815260206004820152601060248201526f18985cdcd95d081a5cc81c185d5cd95960821b604482015290519081900360640190fd5b600082820183811015611a3c576040805162461bcd60e51b815260206004820152601b60248201527f536166654d6174683a206164646974696f6e206f766572666c6f770000000000604482015290519081900360640190fd5b6000546001600160a01b031615611bb1576040805162461bcd60e51b8152602060048201526013602482015272185b1c9958591e481a5b9a5d1a585b1a5e9959606a1b604482015290519081900360640190fd5b6000611bbb611a9e565b600080546001600160a01b0319166001600160a01b0383169081178255604051929350917f8be0079c531659141344cd1fd0a4f28419497f9722a3daafe3b4186f6b6457e0908290a350565b6000611a3c83836040518060400160405280601e81526020017f536166654d6174683a207375627472616374696f6e206f766572666c6f770000815250611d8b565b6001600160a01b038116611c8e5760405162461bcd60e51b8152600401808060200182810382526033815260200180611e746033913960400191505060405180910390fd5b600080546040516001600160a01b03808516939216917f8be0079c531659141344cd1fd0a4f28419497f9722a3daafe3b4186f6b6457e091a3600080546001600160a01b0319166001600160a01b0392909216919091179055565b60008183611d755760405162461bcd60e51b81526004018080602001828103825283818151815260200191508051906020019080838360005b83811015611d3a578181015183820152602001611d22565b50505050905090810190601f168015611d675780820380516001836020036101000a031916815260200191505b509250505060405180910390fd5b506000838581611d8157fe5b0495945050505050565b60008184841115611ddd5760405162461bcd60e51b8152602060048201818152835160248401528351909283926044909101919085019080838360008315611d3a578181015183820152602001611d22565b505050900390565b828054600181600116156101000203166002900490600052602060002090601f016020900481019282601f10611e2657805160ff1916838001178555611e53565b82800160010185558215611e53579182015b82811115611e53578251825591602001919060010190611e38565b506116dc92610b709250905b808211156116dc5760008155600101611e5f56fe496e697469616c697a61626c654f776e61626c653a206e6577206f776e657220697320746865207a65726f2061646472657373536166654d6174683a206d756c7469706c69636174696f6e206f766572666c6f77496e697469616c697a61626c654f776e61626c653a2063616c6c6572206973206e6f7420746865206f776e6572a265627a7a72315820ad7db8a99e37429e4c97650af575a4f44badabe5a4ef9fa754e4adb52e87e90364736f6c63430005110032",
  "linkReferences": {},
  "deployedLinkReferences": {}
}