{
  "_format": "hh-sol-artifact-1",
  "contractName": "FeeSharingProxy",
  "sourceName": "contracts/fish/governance/FeeSharingProxy.sol",
  "abi": [
    {
      "inputs": [
        {
          "internalType": "contract IProtocol",
          "name": "_protocol",
          "type": "address"
        },
        {
          "internalType": "contract IStaking",
          "name": "_staking",
          "type": "address"
        }
      ],
      "payable": false,
      "stateMutability": "nonpayable",
      "type": "constructor"
    },
    {
      "anonymous": false,
      "inputs": [
        {
          "indexed": true,
          "internalType": "address",
          "name": "sender",
          "type": "address"
        },
        {
          "indexed": true,
          "internalType": "address",
          "name": "token",
          "type": "address"
        },
        {
          "indexed": false,
          "internalType": "uint256",
          "name": "amount",
          "type": "uint256"
        }
      ],
      "name": "CheckpointAdded",
      "type": "event"
    },
    {
      "anonymous": false,
      "inputs": [
        {
          "indexed": true,
          "internalType": "address",
          "name": "sender",
          "type": "address"
        },
        {
          "indexed": true,
          "internalType": "address",
          "name": "token",
          "type": "address"
        },
        {
          "indexed": false,
          "internalType": "uint256",
          "name": "amount",
          "type": "uint256"
        }
      ],
      "name": "FeeWithdrawn",
      "type": "event"
    },
    {
      "anonymous": false,
      "inputs": [
        {
          "indexed": true,
          "internalType": "address",
          "name": "sender",
          "type": "address"
        },
        {
          "indexed": true,
          "internalType": "address",
          "name": "token",
          "type": "address"
        },
        {
          "indexed": false,
          "internalType": "uint256",
          "name": "amount",
          "type": "uint256"
        }
      ],
      "name": "TokensTransferred",
      "type": "event"
    },
    {
      "anonymous": false,
      "inputs": [
        {
          "indexed": true,
          "internalType": "address",
          "name": "sender",
          "type": "address"
        },
        {
          "indexed": true,
          "internalType": "address",
          "name": "receiver",
          "type": "address"
        },
        {
          "indexed": true,
          "internalType": "address",
          "name": "token",
          "type": "address"
        },
        {
          "indexed": false,
          "internalType": "uint256",
          "name": "amount",
          "type": "uint256"
        }
      ],
      "name": "UserFeeWithdrawn",
      "type": "event"
    },
    {
      "constant": true,
      "inputs": [
        {
          "internalType": "address",
          "name": "_user",
          "type": "address"
        },
        {
          "internalType": "address",
          "name": "_loanPoolToken",
          "type": "address"
        }
      ],
      "name": "getAccumulatedFees",
      "outputs": [
        {
          "internalType": "uint256",
          "name": "",
          "type": "uint256"
        }
      ],
      "payable": false,
      "stateMutability": "view",
      "type": "function"
    },
    {
      "constant": true,
      "inputs": [
        {
          "internalType": "address",
          "name": "",
          "type": "address"
        }
      ],
      "name": "lastFeeWithdrawalTime",
      "outputs": [
        {
          "internalType": "uint256",
          "name": "",
          "type": "uint256"
        }
      ],
      "payable": false,
      "stateMutability": "view",
      "type": "function"
    },
    {
      "constant": true,
      "inputs": [
        {
          "internalType": "address",
          "name": "",
          "type": "address"
        }
      ],
      "name": "numTokenCheckpoints",
      "outputs": [
        {
          "internalType": "uint32",
          "name": "",
          "type": "uint32"
        }
      ],
      "payable": false,
      "stateMutability": "view",
      "type": "function"
    },
    {
      "constant": true,
      "inputs": [
        {
          "internalType": "address",
          "name": "",
          "type": "address"
        },
        {
          "internalType": "address",
          "name": "",
          "type": "address"
        }
      ],
      "name": "processedCheckpoints",
      "outputs": [
        {
          "internalType": "uint32",
          "name": "",
          "type": "uint32"
        }
      ],
      "payable": false,
      "stateMutability": "view",
      "type": "function"
    },
    {
      "constant": true,
      "inputs": [],
      "name": "protocol",
      "outputs": [
        {
          "internalType": "contract IProtocol",
          "name": "",
          "type": "address"
        }
      ],
      "payable": false,
      "stateMutability": "view",
      "type": "function"
    },
    {
      "constant": true,
      "inputs": [],
      "name": "staking",
      "outputs": [
        {
          "internalType": "contract IStaking",
          "name": "",
          "type": "address"
        }
      ],
      "payable": false,
      "stateMutability": "view",
      "type": "function"
    },
    {
      "constant": true,
      "inputs": [
        {
          "internalType": "address",
          "name": "",
          "type": "address"
        },
        {
          "internalType": "uint256",
          "name": "",
          "type": "uint256"
        }
      ],
      "name": "tokenCheckpoints",
      "outputs": [
        {
          "internalType": "uint32",
          "name": "blockNumber",
          "type": "uint32"
        },
        {
          "internalType": "uint32",
          "name": "timestamp",
          "type": "uint32"
        },
        {
          "internalType": "uint96",
          "name": "totalWeightedStake",
          "type": "uint96"
        },
        {
          "internalType": "uint96",
          "name": "numTokens",
          "type": "uint96"
        }
      ],
      "payable": false,
      "stateMutability": "view",
      "type": "function"
    },
    {
      "constant": false,
      "inputs": [
        {
          "internalType": "address",
          "name": "_token",
          "type": "address"
        },
        {
          "internalType": "uint96",
          "name": "_amount",
          "type": "uint96"
        }
      ],
      "name": "transferTokens",
      "outputs": [],
      "payable": false,
      "stateMutability": "nonpayable",
      "type": "function"
    },
    {
      "constant": true,
      "inputs": [
        {
          "internalType": "address",
          "name": "",
          "type": "address"
        }
      ],
      "name": "unprocessedAmount",
      "outputs": [
        {
          "internalType": "uint96",
          "name": "",
          "type": "uint96"
        }
      ],
      "payable": false,
      "stateMutability": "view",
      "type": "function"
    },
    {
      "constant": false,
      "inputs": [
        {
          "internalType": "address",
          "name": "_loanPoolToken",
          "type": "address"
        },
        {
          "internalType": "uint32",
          "name": "_maxCheckpoints",
          "type": "uint32"
        },
        {
          "internalType": "address",
          "name": "_receiver",
          "type": "address"
        }
      ],
      "name": "withdraw",
      "outputs": [],
      "payable": false,
      "stateMutability": "nonpayable",
      "type": "function"
    },
    {
      "constant": false,
      "inputs": [
        {
          "internalType": "address",
          "name": "_token",
          "type": "address"
        }
      ],
      "name": "withdrawFees",
      "outputs": [],
      "payable": false,
      "stateMutability": "nonpayable",
      "type": "function"
    }
  ],
  "bytecode": "0x608060405234801561001057600080fd5b506040516119a43803806119a48339818101604052604081101561003357600080fd5b508051602090910151600080546001600160a01b039384166001600160a01b0319918216179091556001805493909216921691909117905561192a8061007a6000396000f3fe608060405234801561001057600080fd5b50600436106100a95760003560e01c80637913b451116100715780637913b451146101dd5780638b6fdcba1461020b5780638ce744261461024d578063a965b3a914610255578063abe979e114610291578063f3bdba8f146102c6576100a9565b8063164e68de146100ae57806320020208146100d65780633d67df6f146101155780634cf088d9146101555780637053001714610179575b600080fd5b6100d4600480360360208110156100c457600080fd5b50356001600160a01b03166102ec565b005b6100fc600480360360208110156100ec57600080fd5b50356001600160a01b03166106b1565b6040805163ffffffff9092168252519081900360200190f35b6101436004803603604081101561012b57600080fd5b506001600160a01b03813581169160200135166106c9565b60408051918252519081900360200190f35b61015d6106e3565b604080516001600160a01b039092168252519081900360200190f35b6101a56004803603604081101561018f57600080fd5b506001600160a01b0381351690602001356106f2565b6040805163ffffffff95861681529390941660208401526001600160601b039182168385015216606082015290519081900360800190f35b6100fc600480360360408110156101f357600080fd5b506001600160a01b038135811691602001351661073e565b6102316004803603602081101561022157600080fd5b50356001600160a01b0316610761565b604080516001600160601b039092168252519081900360200190f35b61015d61077c565b6100d46004803603606081101561026b57600080fd5b506001600160a01b03813581169163ffffffff602082013516916040909101351661078b565b6100d4600480360360408110156102a757600080fd5b5080356001600160a01b031690602001356001600160601b0316610937565b610143600480360360208110156102dc57600080fd5b50356001600160a01b0316610b66565b6001600160a01b0381166103315760405162461bcd60e51b815260040180806020018281038252602e815260200180611894602e913960400191505060405180910390fd5b60008054604080516310c59ce360e11b81526001600160a01b0385811660048301529151919092169163218b39c691602480830192602092919082900301818787803b15801561038057600080fd5b505af1158015610394573d6000803e3d6000fd5b505050506040513d60208110156103aa57600080fd5b505190506001600160a01b0381166103f35760405162461bcd60e51b81526004018080602001828103825260338152602001806117e16033913960400191505060405180910390fd5b6000805460408051631e4aaa4f60e31b81526001600160a01b0386811660048301523060248301529151919092169163f255527891604480830192602092919082900301818787803b15801561044857600080fd5b505af115801561045c573d6000803e3d6000fd5b505050506040513d602081101561047257600080fd5b50519050806104b25760405162461bcd60e51b81526004018080602001828103825260348152602001806118c26034913960400191505060405180910390fd5b826001600160a01b031663095ea7b383836040518363ffffffff1660e01b815260040180836001600160a01b03166001600160a01b0316815260200182815260200192505050602060405180830381600087803b15801561051257600080fd5b505af1158015610526573d6000803e3d6000fd5b505050506040513d602081101561053c57600080fd5b5050604080516340c10f1960e01b81523060048201526024810183905290516000916001600160a01b038516916340c10f199160448082019260209290919082900301818787803b15801561059057600080fd5b505af11580156105a4573d6000803e3d6000fd5b505050506040513d60208110156105ba57600080fd5b5051604080516060810182528181529192506000916105e3918491906118546020830139610b78565b6001600160a01b03851660009081526006602090815260409182902054825160608101845283815293945061062c936001600160601b0390911692859261181490830139610c12565b6001600160a01b038516600090815260066020526040902080546001600160601b0319166001600160601b039290921691909117905561066b84610c7c565b6040805183815290516001600160a01b0386169133917eed5939179dc194223f0edd1517ecee2210b22da7f82c8e4b1795e93b9f06aa9181900360200190a35050505050565b60036020526000908152604090205463ffffffff1681565b6000806106d884846000610cf0565b509150505b92915050565b6001546001600160a01b031681565b600260209081526000928352604080842090915290825290205463ffffffff808216916401000000008104909116906001600160601b03600160401b8204811691600160a01b90041684565b600460209081526000928352604080842090915290825290205463ffffffff1681565b6006602052600090815260409020546001600160601b031681565b6000546001600160a01b031681565b60008263ffffffff16116107d05760405162461bcd60e51b815260040180806020018281038252603d81526020018061168f603d913960400191505060405180910390fd5b336001600160a01b0382166107e3573391505b6000806107f1838787610cf0565b6001600160a01b038581166000818152600460208181526040808420958e16808552958252808420805463ffffffff191663ffffffff8916179055805163a9059cbb60e01b815292830194909452602482018790529251959750939550919363a9059cbb93604480820194918390030190829087803b15801561087357600080fd5b505af1158015610887573d6000803e3d6000fd5b505050506040513d602081101561089d57600080fd5b50516108da5760405162461bcd60e51b815260040180806020018281038252602c815260200180611787602c913960400191505060405180910390fd5b856001600160a01b0316846001600160a01b0316336001600160a01b03167fe635adc5d0c2d7b47215ce5ed57a79c3db183a1ef414ccfc43f24f19178a630f856040518082815260200191505060405180910390a4505050505050565b6001600160a01b03821661097c5760405162461bcd60e51b81526004018080602001828103825260308152602001806117286030913960400191505060405180910390fd5b6000816001600160601b0316116109c45760405162461bcd60e51b815260040180806020018281038252602f815260200180611758602f913960400191505060405180910390fd5b604080516323b872dd60e01b81523360048201523060248201526001600160601b038316604482015290516000916001600160a01b038516916323b872dd9160648082019260209290919082900301818787803b158015610a2457600080fd5b505af1158015610a38573d6000803e3d6000fd5b505050506040513d6020811015610a4e57600080fd5b5051905080610a8e5760405162461bcd60e51b815260040180806020018281038252602e8152602001806117b3602e913960400191505060405180910390fd5b6001600160a01b038316600090815260066020908152604091829020548251606081019093526037808452610ad9936001600160601b03909216928692919061165890830139610c12565b6001600160a01b038416600090815260066020526040902080546001600160601b0319166001600160601b0392909216919091179055610b1883610c7c565b604080516001600160601b038416815290516001600160a01b0385169133917f1b89874203ff7f0bba87c969ada3f32fda22ed38a6706d35199d21280c7811b19181900360200190a3505050565b60056020526000908152604090205481565b600081600160601b8410610c0a5760405162461bcd60e51b81526004018080602001828103825283818151815260200191508051906020019080838360005b83811015610bcf578181015183820152602001610bb7565b50505050905090810190601f168015610bfc5780820380516001836020036101000a031916815260200191505b509250505060405180910390fd5b509192915050565b6000838301826001600160601b038087169083161015610c735760405162461bcd60e51b8152602060048201818152835160248401528351909283926044909101919085019080838360008315610bcf578181015183820152602001610bb7565b50949350505050565b6001600160a01b03811660009081526005602052604090205462015180429190910310610ced576001600160a01b03811660009081526005602090815260408083204290556006909152902080546001600160601b031981169091556001600160601b0316610ceb8282611043565b505b50565b6001600160a01b038084166000908152600460209081526040808320938616835292905290812054819063ffffffff908116908290851615610d9e576001600160a01b03861660009081526003602052604090205463ffffffff90811690831610610d8c5760405162461bcd60e51b815260040180806020018281038252603981526020018061161f6039913960400191505060405180910390fd5b610d97828787611314565b9050610e10565b6001600160a01b03861660009081526003602052604090205463ffffffff90811690831610610def57505050506001600160a01b03821660009081526003602052604081205463ffffffff1661103b565b506001600160a01b03851660009081526003602052604090205463ffffffff165b60008080845b8463ffffffff168163ffffffff161015611030576001600160a01b03808b16600090815260026020908152604080832063ffffffff8087168552908352818420600154815484516372ec979560e01b815264010000000090910490931660048401529251909592909216926372ec979592602480840193829003018186803b158015610ea157600080fd5b505afa158015610eb5573d6000803e3d6000fd5b505050506040513d6020811015610ecb57600080fd5b50519050600085821415610ee0575083610fc9565b600160009054906101000a90046001600160a01b03166001600160a01b03166337e6b1c18f60018660000160009054906101000a900463ffffffff16038660000160049054906101000a900463ffffffff166040518463ffffffff1660e01b815260040180846001600160a01b03166001600160a01b031681526020018363ffffffff1681526020018263ffffffff168152602001935050505060206040518083038186803b158015610f9257600080fd5b505afa158015610fa6573d6000803e3d6000fd5b505050506040513d6020811015610fbc57600080fd5b5051919550909350849050835b825460009061100c906001600160601b03600160401b820481169161100091600160a01b909104811690861663ffffffff6113e616565b9063ffffffff61144616565b905061101e888263ffffffff61148816565b97505060019093019250610e16915050565b509195509193505050505b935093915050565b6000611067436040518060600160405280603f81526020016115e0603f91396114e2565b9050600061108d4260405180608001604052806042815260200161159e604291396114e2565b6001600160a01b0385811660009081526003602090815260408083205460015482516312916bdd60e11b815263ffffffff6000198b01811660048301524260248301529351979850929091169593941692632522d7ba92604480840193919291829003018186803b15801561110157600080fd5b505afa158015611115573d6000803e3d6000fd5b505050506040513d602081101561112b57600080fd5b5051905063ffffffff82161580159061117557506001600160a01b038616600090815260026020908152604080832063ffffffff6000198701811685529252909120548582169116145b156111ea576001600160a01b03868116600090815260026020908152604080832063ffffffff6000198801168452909152902080546001600160601b03888116600160a01b02908516600160401b026bffffffffffffffffffffffff60401b19909216919091179092169190911790556112c3565b6040805160808101825263ffffffff808716825285811660208084019182526001600160601b038087168587019081528b8216606087019081526001600160a01b03808f166000818152600287528a81208d8a16825287528a812099518a549851955194518716600160a01b0294909616600160401b026bffffffffffffffffffffffff60401b19958a166401000000000267ffffffff0000000019978b1663ffffffff199a8b161797909716969096179490941694909417161790955584526003905292909120805460018601909216919092161790555b604080516001600160601b038716815290516001600160a01b0388169133917ff61a5f2f4d0b2d871d5bf18717d08a6b0f543afa7e08dad5df1fea150f7296329181900360200190a3505050505050565b6001600160a01b03821660009081526003602052604081205463ffffffff908116908290841661134557508061139c565b606463ffffffff8516111561135957606493505b61138384870163ffffffff166040518060600160405280603b81526020016116cc603b91396114e2565b90508163ffffffff168163ffffffff16111561139c5750805b6001600160a01b038516600090815260026020908152604080832063ffffffff60001986018116855292529091205416438114156113dc57600019909101905b5095945050505050565b6000826113f5575060006106dd565b8282028284828161140257fe5b041461143f5760405162461bcd60e51b81526004018080602001828103825260218152602001806117076021913960400191505060405180910390fd5b9392505050565b600061143f83836040518060400160405280601a81526020017f536166654d6174683a206469766973696f6e206279207a65726f000000000000815250611538565b60008282018381101561143f576040805162461bcd60e51b815260206004820152601b60248201527f536166654d6174683a206164646974696f6e206f766572666c6f770000000000604482015290519081900360640190fd5b6000816401000000008410610c0a5760405162461bcd60e51b8152602060048201818152835160248401528351909283926044909101919085019080838360008315610bcf578181015183820152602001610bb7565b600081836115875760405162461bcd60e51b8152602060048201818152835160248401528351909283926044909101919085019080838360008315610bcf578181015183820152602001610bb7565b50600083858161159357fe5b049594505050505056fe46656553686172696e6750726f78793a3a5f7772697465436865636b706f696e743a20626c6f636b2074696d657374616d702065786365656473203332206269747346656553686172696e6750726f78793a3a5f7772697465436865636b706f696e743a20626c6f636b206e756d6265722065786365656473203332206269747346656553686172696e6750726f78793a3a7769746864726177466565733a206e6f20746f6b656e7320666f722061207769746864726177616c46656553686172696e6750726f78793a3a7472616e73666572546f6b656e733a20616d6f756e742065786365656473203936206269747346656553686172696e6750726f78793a3a77697468647261773a205f6d6178436865636b706f696e74732073686f756c6420626520706f73697469766546656553686172696e6750726f78793a3a77697468647261773a20636865636b706f696e7420696e64657820657863656564732033322062697473536166654d6174683a206d756c7469706c69636174696f6e206f766572666c6f7746656553686172696e6750726f78793a3a7472616e73666572546f6b656e733a20696e76616c6964206164647265737346656553686172696e6750726f78793a3a7472616e73666572546f6b656e733a20696e76616c696420616d6f756e7446656553686172696e6750726f78793a3a77697468647261773a207769746864726177616c206661696c65645374616b696e673a3a7472616e73666572546f6b656e733a20746f6b656e207472616e73666572206661696c656446656553686172696e6750726f78793a3a7769746864726177466565733a206c6f616e20746f6b656e206e6f7420666f756e6446656553686172696e6750726f78793a3a7769746864726177466565733a20756e70726f636573736564416d6f756e742065786365656473203936206269747346656553686172696e6750726f78793a3a7769746864726177466565733a20706f6f6c20746f6b656e20616d6f756e742065786365656473203936206269747346656553686172696e6750726f78793a3a7769746864726177466565733a20696e76616c6964206164647265737346656553686172696e6750726f78793a3a7769746864726177466565733a206e6f20746f6b656e7320746f207769746864726177a265627a7a72315820537a7d7522ffad7af1218b4d1f344f07a6fe1c6d3d9c482b7f6adf8eee45e95e64736f6c63430005110032",
  "linkReferences": {},
  "deployedLinkReferences": {}
}