{
  "_format": "hh-sol-artifact-1",
  "contractName": "MassetV3",
  "sourceName": "contracts/masset/MassetV3.sol",
  "abi": [
    {
      "anonymous": false,
      "inputs": [
        {
          "indexed": true,
          "internalType": "address",
          "name": "minter",
          "type": "address"
        },
        {
          "indexed": true,
          "internalType": "address",
          "name": "recipient",
          "type": "address"
        },
        {
          "indexed": false,
          "internalType": "uint256",
          "name": "massetQuantity",
          "type": "uint256"
        },
        {
          "indexed": false,
          "internalType": "address",
          "name": "bAsset",
          "type": "address"
        },
        {
          "indexed": false,
          "internalType": "uint256",
          "name": "bassetQuantity",
          "type": "uint256"
        }
      ],
      "name": "Minted",
      "type": "event"
    },
    {
      "anonymous": false,
      "inputs": [
        {
          "indexed": true,
          "internalType": "address",
          "name": "previousOwner",
          "type": "address"
        },
        {
          "indexed": true,
          "internalType": "address",
          "name": "newOwner",
          "type": "address"
        }
      ],
      "name": "OwnershipTransferred",
      "type": "event"
    },
    {
      "anonymous": false,
      "inputs": [
        {
          "indexed": true,
          "internalType": "address",
          "name": "redeemer",
          "type": "address"
        },
        {
          "indexed": true,
          "internalType": "address",
          "name": "recipient",
          "type": "address"
        },
        {
          "indexed": false,
          "internalType": "uint256",
          "name": "massetQuantity",
          "type": "uint256"
        },
        {
          "indexed": false,
          "internalType": "address",
          "name": "bAsset",
          "type": "address"
        },
        {
          "indexed": false,
          "internalType": "uint256",
          "name": "bassetQuantity",
          "type": "uint256"
        }
      ],
      "name": "Redeemed",
      "type": "event"
    },
    {
      "anonymous": false,
      "inputs": [
        {
          "indexed": true,
          "internalType": "address",
          "name": "sender",
          "type": "address"
        },
        {
          "indexed": false,
          "internalType": "uint256",
          "name": "orderAmount",
          "type": "uint256"
        },
        {
          "indexed": false,
          "internalType": "address",
          "name": "tokenAddress",
          "type": "address"
        },
        {
          "indexed": false,
          "internalType": "bytes",
          "name": "userData",
          "type": "bytes"
        }
      ],
      "name": "onTokensMintedCalled",
      "type": "event"
    },
    {
      "anonymous": false,
      "inputs": [
        {
          "indexed": false,
          "internalType": "address",
          "name": "operator",
          "type": "address"
        },
        {
          "indexed": false,
          "internalType": "address",
          "name": "from",
          "type": "address"
        },
        {
          "indexed": false,
          "internalType": "address",
          "name": "to",
          "type": "address"
        },
        {
          "indexed": false,
          "internalType": "uint256",
          "name": "amount",
          "type": "uint256"
        },
        {
          "indexed": false,
          "internalType": "bytes",
          "name": "userData",
          "type": "bytes"
        },
        {
          "indexed": false,
          "internalType": "bytes",
          "name": "operatorData",
          "type": "bytes"
        }
      ],
      "name": "onTokensReceivedCalled",
      "type": "event"
    },
    {
      "constant": true,
      "inputs": [],
      "name": "getBasketManager",
      "outputs": [
        {
          "internalType": "address",
          "name": "",
          "type": "address"
        }
      ],
      "payable": false,
      "stateMutability": "view",
      "type": "function"
    },
    {
      "constant": true,
      "inputs": [],
      "name": "getFeesManager",
      "outputs": [
        {
          "internalType": "address",
          "name": "",
          "type": "address"
        }
      ],
      "payable": false,
      "stateMutability": "view",
      "type": "function"
    },
    {
      "constant": true,
      "inputs": [],
      "name": "getFeesVault",
      "outputs": [
        {
          "internalType": "address",
          "name": "",
          "type": "address"
        }
      ],
      "payable": false,
      "stateMutability": "view",
      "type": "function"
    },
    {
      "constant": true,
      "inputs": [],
      "name": "getToken",
      "outputs": [
        {
          "internalType": "address",
          "name": "",
          "type": "address"
        }
      ],
      "payable": false,
      "stateMutability": "view",
      "type": "function"
    },
    {
      "constant": true,
      "inputs": [],
      "name": "getVersion",
      "outputs": [
        {
          "internalType": "string",
          "name": "",
          "type": "string"
        }
      ],
      "payable": false,
      "stateMutability": "view",
      "type": "function"
    },
    {
      "constant": false,
      "inputs": [
        {
          "internalType": "address",
          "name": "_basketManagerAddress",
          "type": "address"
        },
        {
          "internalType": "address",
          "name": "_tokenAddress",
          "type": "address"
        },
        {
          "internalType": "bool",
          "name": "_registerAsERC777RecipientFlag",
          "type": "bool"
        }
      ],
      "name": "initialize",
      "outputs": [],
      "payable": false,
      "stateMutability": "nonpayable",
      "type": "function"
    },
    {
      "constant": true,
      "inputs": [],
      "name": "isOwner",
      "outputs": [
        {
          "internalType": "bool",
          "name": "",
          "type": "bool"
        }
      ],
      "payable": false,
      "stateMutability": "view",
      "type": "function"
    },
    {
      "constant": false,
      "inputs": [
        {
          "internalType": "address",
          "name": "_bAsset",
          "type": "address"
        },
        {
          "internalType": "uint256",
          "name": "_bAssetQuantity",
          "type": "uint256"
        }
      ],
      "name": "mint",
      "outputs": [
        {
          "internalType": "uint256",
          "name": "massetMinted",
          "type": "uint256"
        }
      ],
      "payable": false,
      "stateMutability": "nonpayable",
      "type": "function"
    },
    {
      "constant": false,
      "inputs": [
        {
          "internalType": "address",
          "name": "_bAsset",
          "type": "address"
        },
        {
          "internalType": "uint256",
          "name": "_bAssetQuantity",
          "type": "uint256"
        },
        {
          "internalType": "address",
          "name": "_recipient",
          "type": "address"
        }
      ],
      "name": "mintTo",
      "outputs": [
        {
          "internalType": "uint256",
          "name": "massetMinted",
          "type": "uint256"
        }
      ],
      "payable": false,
      "stateMutability": "nonpayable",
      "type": "function"
    },
    {
      "constant": false,
      "inputs": [
        {
          "internalType": "uint256",
          "name": "_orderAmount",
          "type": "uint256"
        },
        {
          "internalType": "address",
          "name": "_tokenAddress",
          "type": "address"
        },
        {
          "internalType": "bytes",
          "name": "_userData",
          "type": "bytes"
        }
      ],
      "name": "onTokensMinted",
      "outputs": [],
      "payable": false,
      "stateMutability": "nonpayable",
      "type": "function"
    },
    {
      "constant": true,
      "inputs": [],
      "name": "owner",
      "outputs": [
        {
          "internalType": "address",
          "name": "",
          "type": "address"
        }
      ],
      "payable": false,
      "stateMutability": "view",
      "type": "function"
    },
    {
      "constant": false,
      "inputs": [
        {
          "internalType": "address",
          "name": "_bAsset",
          "type": "address"
        },
        {
          "internalType": "uint256",
          "name": "_massetQuantity",
          "type": "uint256"
        }
      ],
      "name": "redeem",
      "outputs": [
        {
          "internalType": "uint256",
          "name": "massetRedeemed",
          "type": "uint256"
        }
      ],
      "payable": false,
      "stateMutability": "nonpayable",
      "type": "function"
    },
    {
      "constant": false,
      "inputs": [
        {
          "internalType": "address",
          "name": "_basset",
          "type": "address"
        },
        {
          "internalType": "uint256",
          "name": "_massetQuantity",
          "type": "uint256"
        },
        {
          "internalType": "address",
          "name": "_recipient",
          "type": "address"
        }
      ],
      "name": "redeemByBridge",
      "outputs": [
        {
          "internalType": "uint256",
          "name": "massetRedeemed",
          "type": "uint256"
        }
      ],
      "payable": false,
      "stateMutability": "nonpayable",
      "type": "function"
    },
    {
      "constant": false,
      "inputs": [
        {
          "internalType": "address",
          "name": "_bAsset",
          "type": "address"
        },
        {
          "internalType": "uint256",
          "name": "_massetQuantity",
          "type": "uint256"
        },
        {
          "internalType": "address",
          "name": "_recipient",
          "type": "address"
        }
      ],
      "name": "redeemTo",
      "outputs": [
        {
          "internalType": "uint256",
          "name": "massetRedeemed",
          "type": "uint256"
        }
      ],
      "payable": false,
      "stateMutability": "nonpayable",
      "type": "function"
    },
    {
      "constant": false,
      "inputs": [
        {
          "internalType": "address",
          "name": "_basset",
          "type": "address"
        },
        {
          "internalType": "uint256",
          "name": "_massetQuantity",
          "type": "uint256"
        },
        {
          "internalType": "address",
          "name": "_recipient",
          "type": "address"
        },
        {
          "internalType": "address",
          "name": "_bridgeAddress",
          "type": "address"
        }
      ],
      "name": "redeemToBridge",
      "outputs": [
        {
          "internalType": "uint256",
          "name": "massetRedeemed",
          "type": "uint256"
        }
      ],
      "payable": false,
      "stateMutability": "nonpayable",
      "type": "function"
    },
    {
      "constant": false,
      "inputs": [
        {
          "internalType": "address",
          "name": "_basset",
          "type": "address"
        },
        {
          "internalType": "uint256",
          "name": "_massetQuantity",
          "type": "uint256"
        },
        {
          "internalType": "address",
          "name": "_recipient",
          "type": "address"
        }
      ],
      "name": "redeemToBridge",
      "outputs": [
        {
          "internalType": "uint256",
          "name": "massetRedeemed",
          "type": "uint256"
        }
      ],
      "payable": false,
      "stateMutability": "nonpayable",
      "type": "function"
    },
    {
      "constant": false,
      "inputs": [],
      "name": "renounceOwnership",
      "outputs": [],
      "payable": false,
      "stateMutability": "nonpayable",
      "type": "function"
    },
    {
      "constant": false,
      "inputs": [
        {
          "internalType": "address",
          "name": "_operator",
          "type": "address"
        },
        {
          "internalType": "address",
          "name": "_from",
          "type": "address"
        },
        {
          "internalType": "address",
          "name": "_to",
          "type": "address"
        },
        {
          "internalType": "uint256",
          "name": "_amount",
          "type": "uint256"
        },
        {
          "internalType": "bytes",
          "name": "_userData",
          "type": "bytes"
        },
        {
          "internalType": "bytes",
          "name": "_operatorData",
          "type": "bytes"
        }
      ],
      "name": "tokensReceived",
      "outputs": [],
      "payable": false,
      "stateMutability": "nonpayable",
      "type": "function"
    },
    {
      "constant": false,
      "inputs": [
        {
          "internalType": "address",
          "name": "newOwner",
          "type": "address"
        }
      ],
      "name": "transferOwnership",
      "outputs": [],
      "payable": false,
      "stateMutability": "nonpayable",
      "type": "function"
    },
    {
      "constant": false,
      "inputs": [
        {
          "internalType": "address",
          "name": "_basketManagerAddress",
          "type": "address"
        },
        {
          "internalType": "address",
          "name": "_tokenAddress",
          "type": "address"
        },
        {
          "internalType": "address",
          "name": "_feesVaultAddress",
          "type": "address"
        },
        {
          "internalType": "address",
          "name": "_feesManagerAddress",
          "type": "address"
        }
      ],
      "name": "upgradeToV3",
      "outputs": [],
      "payable": false,
      "stateMutability": "nonpayable",
      "type": "function"
    }
  ],
  "bytecode": "0x6080604052612c6d806100136000396000f3fe608060405234801561001057600080fd5b506004361061012b5760003560e01c80638f32d59b116100ad578063d99c5c5711610071578063d99c5c571461024a578063e4bbb5a814610252578063eeea5d3614610265578063f2fde38b1461026d578063fb2c9223146102805761012b565b80638f32d59b146101f4578063960015a214610209578063b73b66881461021c578063c4a586371461022f578063c762819b146102425761012b565b806340c10f19116100f457806340c10f19146101ab578063438b1b4b146101be5780635337c03a146101d1578063715018a6146101e45780638da5cb5b146101ec5761012b565b806223de29146101305780630b8aad07146101455780630d8e6e2c1461016e5780631e9a69501461018357806321df0da714610196575b600080fd5b61014361013e366004611e74565b610293565b005b610158610153366004611fff565b6102e2565b6040516101659190612aef565b60405180910390f35b61017661030f565b604051610165919061294e565b610158610191366004611f82565b6103a3565b61019e6103cb565b6040516101659190612818565b6101586101b9366004611f82565b6103da565b6101586101cc366004611fbc565b6103f4565b6101436101df366004611e13565b61041a565b610143610674565b61019e6106c6565b6101fc6106d5565b6040516101659190612940565b610158610217366004611fbc565b6106f9565b61015861022a366004611fbc565b610719565b61014361023d3660046120a3565b610808565b61019e610bfa565b61019e610c09565b610143610260366004611f35565b610c18565b61019e610d1a565b61014361027b366004611dd7565b610d29565b61015861028e366004611fbc565b610d3d565b7fa693010e29186da1ce1e8a9fdf6619831117e41c17cbb8927787b66b35627be688888888888888886040516102d0989796959493929190612826565b60405180910390a15050505050505050565b60006102ec610d5a565b6002600181905550610302858585600180610d7e565b6001805595945050505050565b60028054604080516020601f60001961010060018716150201909416859004938401819004810282018101909252828152606093909290918301828280156103985780601f1061036d57610100808354040283529160200191610398565b820191906000526020600020905b81548152906001019060200180831161037b57829003601f168201915b505050505090505b90565b60006103ad610d5a565b60026001556103c0838333600080610d7e565b600180559392505050565b6004546001600160a01b031690565b60006103e4610d5a565b60026001556103c0838333611276565b60006103fe610d5a565b600260015561040e848484611276565b60018055949350505050565b60408051808201825260038152620312e360ec1b602090910152517fe6bbd6277e1bf288eed5e8d1780f9a50b239e86b153736bceebccf4ea79d90b39061046390600290612801565b604051809103902014806104c5575060408051808201825260038152620322e360ec1b602090910152517f88f72b566ae0c96f6fffac4bc8ac74909f61512ac0c06a8124d5ed420d306f90906104bb90600290612801565b6040518091039020145b6104ea5760405162461bcd60e51b81526004016104e190612a6f565b60405180910390fd5b604051806040016040528060038152602001620332e360ec1b81525080519060200120846001600160a01b0316630d8e6e2c6040518163ffffffff1660e01b815260040160006040518083038186803b15801561054657600080fd5b505afa15801561055a573d6000803e3d6000fd5b505050506040513d6000823e601f3d908101601f191682016040526105829190810190612050565b80519060200120146105a65760405162461bcd60e51b81526004016104e19061298f565b6001600160a01b0382166105cc5760405162461bcd60e51b81526004016104e190612a2f565b6001600160a01b0381166105f25760405162461bcd60e51b81526004016104e190612adf565b600580546001600160a01b038085166001600160a01b0319928316179092556006805484841690831617905560038054878416908316178155600480549387169390921692909217905560408051808201909152818152620332e360ec1b60209091019081526106659160029190611c60565b5061066e61156a565b50505050565b61067c611570565b600080546040516001600160a01b03909116907f8be0079c531659141344cd1fd0a4f28419497f9722a3daafe3b4186f6b6457e0908390a3600080546001600160a01b0319169055565b6000546001600160a01b031690565b600080546001600160a01b03166106ea611594565b6001600160a01b031614905090565b6000610703610d5a565b600260018190555061040e848484600180610d7e565b6000610723610d5a565b600260015560035460405163f44c7c8f60e01b81526000916001600160a01b03169063f44c7c8f90610759908890600401612818565b60206040518083038186803b15801561077157600080fd5b505afa158015610785573d6000803e3d6000fd5b505050506040513d601f19601f820116820180604052506107a99190810190611df5565b90506001600160a01b0381166107d15760405162461bcd60e51b81526004016104e190612a0f565b6001600160a01b03811633146107f95760405162461bcd60e51b81526004016104e190612aaf565b61030285858560016000610d7e565b610810610d5a565b600260015560405133907fc00ef8ea79854d25cda161b949dfe54da4ddf385ef9cf6faaab7c6f9e8d9b3ac9061084d908790879087908790612afd565b60405180910390a2600084116108755760405162461bcd60e51b81526004016104e1906129bf565b60006108b683838080601f01602080910402602001604051908101604052809392919081815260200183838082843760009201919091525061159892505050565b60035460405163f44c7c8f60e01b815291925085916000916001600160a01b03169063f44c7c8f906108ec908590600401612818565b60206040518083038186803b15801561090457600080fd5b505afa158015610918573d6000803e3d6000fd5b505050506040513d601f19601f8201168201806040525061093c9190810190611df5565b9050336001600160a01b038216146109665760405162461bcd60e51b81526004016104e1906129ff565b60035460405163d80f5a8760e01b81526001600160a01b039091169063d80f5a8790610996908590600401612818565b60206040518083038186803b1580156109ae57600080fd5b505afa1580156109c2573d6000803e3d6000fd5b505050506040513d601f19601f820116820180604052506109e69190810190612032565b610a025760405162461bcd60e51b81526004016104e19061299f565b6003546040516354f8177f60e11b81526001600160a01b039091169063a9f02efe90610a349085908b906004016128e1565b60206040518083038186803b158015610a4c57600080fd5b505afa158015610a60573d6000803e3d6000fd5b505050506040513d601f19601f82011682018060405250610a849190810190612032565b610aa05760405162461bcd60e51b81526004016104e1906129df565b600354604051631af327bd60e01b815260009182916001600160a01b0390911690631af327bd90610ad79087908d906004016128e1565b604080518083038186803b158015610aee57600080fd5b505afa158015610b02573d6000803e3d6000fd5b505050506040513d601f19601f82011682018060405250610b26919081019061210b565b915091506000610b378360016115dd565b600480546040516340c10f1960e01b81529293506001600160a01b0316916340c10f1991610b69918a918691016128e1565b600060405180830381600087803b158015610b8357600080fd5b505af1158015610b97573d6000803e3d6000fd5b50505050856001600160a01b0316336001600160a01b03167f30873c596f54a2e2e09894670d7e1a48b2433c00204f81fbedf557353c36e7c7838886604051610be293929190612b2b565b60405180910390a35050600180555050505050505050565b6006546001600160a01b031690565b6005546001600160a01b031690565b6003546001600160a01b0316158015610c3a57506004546001600160a01b0316155b610c565760405162461bcd60e51b81526004016104e190612a1f565b6001600160a01b038316610c7c5760405162461bcd60e51b81526004016104e1906129cf565b6001600160a01b038216610ca25760405162461bcd60e51b81526004016104e190612a3f565b610caa611772565b610cb261156a565b600380546001600160a01b038086166001600160a01b03199283161790925560048054928516929091169190911790558015610cf057610cf06117f1565b604080518082019091526003808252620312e360ec1b602090920191825261066e91600291611c60565b6003546001600160a01b031690565b610d31611570565b610d3a8161187b565b50565b6000610d47610d5a565b600260015561040e848484600080610d7e565b600154600114610d7c5760405162461bcd60e51b81526004016104e190612a9f565b565b60006001600160a01b038416610da65760405162461bcd60e51b81526004016104e19061296f565b60008511610dc65760405162461bcd60e51b81526004016104e190612a5f565b60035460405163d80f5a8760e01b81526001600160a01b039091169063d80f5a8790610df6908990600401612818565b60206040518083038186803b158015610e0e57600080fd5b505afa158015610e22573d6000803e3d6000fd5b505050506040513d601f19601f82011682018060405250610e469190810190612032565b610e625760405162461bcd60e51b81526004016104e19061299f565b6000838015610e6f575082155b610e795733610e7b565b845b90506000610e8a8783876118fc565b600354604051635ac9946160e01b815291925060009182916001600160a01b031690635ac9946190610ec2908d9087906004016128e1565b604080518083038186803b158015610ed957600080fd5b505afa158015610eed573d6000803e3d6000fd5b505050506040513d601f19601f82011682018060405250610f11919081019061210b565b60035460405163c7bbc86560e01b81529294509092506001600160a01b03169063c7bbc86590610f47908d9086906004016128e1565b60206040518083038186803b158015610f5f57600080fd5b505afa158015610f73573d6000803e3d6000fd5b505050506040513d601f19601f82011682018060405250610f979190810190612032565b610fb35760405162461bcd60e51b81526004016104e19061295f565b60048054604051632770a7eb60e21b81526001600160a01b0390911691639dc29fac91610fe49188918691016128e1565b600060405180830381600087803b158015610ffe57600080fd5b505af1158015611012573d6000803e3d6000fd5b505050508680156110205750855b156112005760035460405163f44c7c8f60e01b81526000916001600160a01b03169063f44c7c8f90611056908e90600401612818565b60206040518083038186803b15801561106e57600080fd5b505afa158015611082573d6000803e3d6000fd5b505050506040513d601f19601f820116820180604052506110a69190810190611df5565b90506001600160a01b0381166110ce5760405162461bcd60e51b81526004016104e190612a0f565b60405163095ea7b360e01b81526001600160a01b038c169063095ea7b3906110fc90849087906004016128e1565b602060405180830381600087803b15801561111657600080fd5b505af115801561112a573d6000803e3d6000fd5b505050506040513d601f19601f8201168201806040525061114e9190810190612032565b50604080516020810182526000815290516303f2e9b160e51b81526001600160a01b03831691637e5d36209161118c918f9188918f916004016128fc565b602060405180830381600087803b1580156111a657600080fd5b505af11580156111ba573d6000803e3d6000fd5b505050506040513d601f19601f820116820180604052506111de9190810190612032565b6111fa5760405162461bcd60e51b81526004016104e190612a4f565b5061121a565b61121a6001600160a01b038b16898463ffffffff611a4f16565b876001600160a01b0316846001600160a01b03167fa0dde38365e7863fcda1e12536206bc5ab0b7074a66a441e866145cf3d07fc248b8d8660405161126193929190612b2b565b60405180910390a39998505050505050505050565b60006001600160a01b03821661129e5760405162461bcd60e51b81526004016104e19061296f565b600083116112be5760405162461bcd60e51b81526004016104e1906129af565b60035460405163d80f5a8760e01b81526001600160a01b039091169063d80f5a87906112ee908790600401612818565b60206040518083038186803b15801561130657600080fd5b505afa15801561131a573d6000803e3d6000fd5b505050506040513d601f19601f8201168201806040525061133e9190810190612032565b61135a5760405162461bcd60e51b81526004016104e19061299f565b6003546040516354f8177f60e11b81526001600160a01b039091169063a9f02efe9061138c90879087906004016128e1565b60206040518083038186803b1580156113a457600080fd5b505afa1580156113b8573d6000803e3d6000fd5b505050506040513d601f19601f820116820180604052506113dc9190810190612032565b6113f85760405162461bcd60e51b81526004016104e19061295f565b600354604051631af327bd60e01b815260009182916001600160a01b0390911690631af327bd9061142f90899089906004016128e1565b604080518083038186803b15801561144657600080fd5b505afa15801561145a573d6000803e3d6000fd5b505050506040513d601f19601f8201168201806040525061147e919081019061210b565b909250905061149e6001600160a01b03871633308463ffffffff611aad16565b60006114ab8360006115dd565b600480546040516340c10f1960e01b81529293506001600160a01b0316916340c10f19916114dd9189918691016128e1565b600060405180830381600087803b1580156114f757600080fd5b505af115801561150b573d6000803e3d6000fd5b50505050846001600160a01b0316336001600160a01b03167f30873c596f54a2e2e09894670d7e1a48b2433c00204f81fbedf557353c36e7c7838a8660405161155693929190612b2b565b60405180910390a3925050505b9392505050565b60018055565b6115786106d5565b610d7c5760405162461bcd60e51b81526004016104e190612abf565b3390565b600080828060200190516115af9190810190611df5565b90506001600160a01b0381166115d75760405162461bcd60e51b81526004016104e190612a8f565b92915050565b600080821561166d576006546040516332627ddd60e11b81526001600160a01b03909116906364c4fbba90611616908790600401612aef565b60206040518083038186803b15801561162e57600080fd5b505afa158015611642573d6000803e3d6000fd5b505050506040513d601f19601f820116820180604052506116669190810190612085565b90506116f0565b60065460405163247d284b60e01b81526001600160a01b039091169063247d284b9061169d908790600401612aef565b60206040518083038186803b1580156116b557600080fd5b505afa1580156116c9573d6000803e3d6000fd5b505050506040513d601f19601f820116820180604052506116ed9190810190612085565b90505b611700848263ffffffff611ad116565b600480546005546040516340c10f1960e01b81529395506001600160a01b03918216936340c10f199361173993909216918691016128e1565b600060405180830381600087803b15801561175357600080fd5b505af1158015611767573d6000803e3d6000fd5b505050505092915050565b6000546001600160a01b03161561179b5760405162461bcd60e51b81526004016104e190612a1f565b60006117a5611594565b600080546001600160a01b0319166001600160a01b0383169081178255604051929350917f8be0079c531659141344cd1fd0a4f28419497f9722a3daafe3b4186f6b6457e0908290a350565b604051731820a4b7618bde71dce8cdc73aab6c95905fad249081906329965a1d90309061181d9061280d565b6040519081900381206001600160e01b031960e085901b168252611846929130906004016128b9565b600060405180830381600087803b15801561186057600080fd5b505af1158015611874573d6000803e3d6000fd5b5050505050565b6001600160a01b0381166118a15760405162461bcd60e51b81526004016104e19061297f565b600080546040516001600160a01b03808516939216917f8be0079c531659141344cd1fd0a4f28419497f9722a3daafe3b4186f6b6457e091a3600080546001600160a01b0319166001600160a01b0392909216919091179055565b600080821561198c57600654604051630fb9eae160e21b81526001600160a01b0390911690633ee7ab8490611935908890600401612aef565b60206040518083038186803b15801561194d57600080fd5b505afa158015611961573d6000803e3d6000fd5b505050506040513d601f19601f820116820180604052506119859190810190612085565b9050611a0f565b6006546040516307f0c60160e41b81526001600160a01b0390911690637f0c6010906119bc908890600401612aef565b60206040518083038186803b1580156119d457600080fd5b505afa1580156119e8573d6000803e3d6000fd5b505050506040513d601f19601f82011682018060405250611a0c9190810190612085565b90505b611a1f858263ffffffff611ad116565b600554600454919350611a47916001600160a01b03908116918791168463ffffffff611aad16565b509392505050565b604051611aa890849063a9059cbb60e01b90611a7190869086906024016128e1565b60408051601f198184030181529190526020810180516001600160e01b03166001600160e01b031990931692909217909152611b13565b505050565b60405161066e9085906323b872dd60e01b90611a7190879087908790602401612891565b600061156383836040518060400160405280601e81526020017f536166654d6174683a207375627472616374696f6e206f766572666c6f770000815250611bf8565b611b25826001600160a01b0316611c24565b611b415760405162461bcd60e51b81526004016104e190612acf565b60006060836001600160a01b031683604051611b5d91906127f5565b6000604051808303816000865af19150503d8060008114611b9a576040519150601f19603f3d011682016040523d82523d6000602084013e611b9f565b606091505b509150915081611bc15760405162461bcd60e51b81526004016104e1906129ef565b80511561066e5780806020019051611bdc9190810190612032565b61066e5760405162461bcd60e51b81526004016104e190612a7f565b60008184841115611c1c5760405162461bcd60e51b81526004016104e1919061294e565b505050900390565b6000813f7fc5d2460186f7233c927e7db2dcc703c0e500b653ca82273b7bfad8045d85a470818114801590611c5857508115155b949350505050565b828054600181600116156101000203166002900490600052602060002090601f016020900481019282601f10611ca157805160ff1916838001178555611cce565b82800160010185558215611cce579182015b82811115611cce578251825591602001919060010190611cb3565b50611cda929150611cde565b5090565b6103a091905b80821115611cda5760008155600101611ce4565b80356115d781612c04565b80516115d781612c04565b80356115d781612c18565b80516115d781612c18565b60008083601f840112611d3657600080fd5b50813567ffffffffffffffff811115611d4e57600080fd5b602083019150836001820283011115611d6657600080fd5b9250929050565b600082601f830112611d7e57600080fd5b8151611d91611d8c82612b60565b612b39565b91508082526020830160208301858383011115611dad57600080fd5b611db8838284612bce565b50505092915050565b80356115d781612c21565b80516115d781612c21565b600060208284031215611de957600080fd5b6000611c588484611cf8565b600060208284031215611e0757600080fd5b6000611c588484611d03565b60008060008060808587031215611e2957600080fd5b6000611e358787611cf8565b9450506020611e4687828801611cf8565b9350506040611e5787828801611cf8565b9250506060611e6887828801611cf8565b91505092959194509250565b60008060008060008060008060c0898b031215611e9057600080fd5b6000611e9c8b8b611cf8565b9850506020611ead8b828c01611cf8565b9750506040611ebe8b828c01611cf8565b9650506060611ecf8b828c01611dc1565b955050608089013567ffffffffffffffff811115611eec57600080fd5b611ef88b828c01611d24565b945094505060a089013567ffffffffffffffff811115611f1757600080fd5b611f238b828c01611d24565b92509250509295985092959890939650565b600080600060608486031215611f4a57600080fd5b6000611f568686611cf8565b9350506020611f6786828701611cf8565b9250506040611f7886828701611d0e565b9150509250925092565b60008060408385031215611f9557600080fd5b6000611fa18585611cf8565b9250506020611fb285828601611dc1565b9150509250929050565b600080600060608486031215611fd157600080fd5b6000611fdd8686611cf8565b9350506020611fee86828701611dc1565b9250506040611f7886828701611cf8565b6000806000806080858703121561201557600080fd5b60006120218787611cf8565b9450506020611e4687828801611dc1565b60006020828403121561204457600080fd5b6000611c588484611d19565b60006020828403121561206257600080fd5b815167ffffffffffffffff81111561207957600080fd5b611c5884828501611d6d565b60006020828403121561209757600080fd5b6000611c588484611dcc565b600080600080606085870312156120b957600080fd5b60006120c58787611dc1565b94505060206120d687828801611cf8565b935050604085013567ffffffffffffffff8111156120f357600080fd5b6120ff87828801611d24565b95989497509550505050565b6000806040838503121561211e57600080fd5b600061212a8585611dcc565b9250506020611fb285828601611dcc565b61214481612ba6565b82525050565b61214481612bb1565b612144816103a0565b60006121688385612b98565b9350612175838584612bc2565b61217e83612bfa565b9093019392505050565b600061219382612b94565b61219d8185612b98565b93506121ad818560208601612bce565b61217e81612bfa565b60006121c182612b94565b6121cb8185612ba1565b93506121db818560208601612bce565b9290920192915050565b600081546001811660008114612202576001811461222557612264565b607f60028304166122138187612ba1565b60ff1984168152955085019250612264565b600282046122338187612ba1565b955061223e85612b88565b60005b8281101561225d57815488820152600190910190602001612241565b5050850192505b505092915050565b6000612279600e83612b98565b6d1a5b9d985b1a590818985cdad95d60921b815260200192915050565b60006122a3601983612b98565b7f6d75737420626520612076616c696420726563697069656e7400000000000000815260200192915050565b60006122dc603383612b98565b7f496e697469616c697a61626c654f776e61626c653a206e6577206f776e657220815272697320746865207a65726f206164647265737360681b602082015260400192915050565b6000612331601183612b98565b7077726f6e672076657273696f6e2028322960781b815260200192915050565b600061235e600e83612b98565b6d1a5b9d985b1a590818985cdcd95d60921b815260200192915050565b6000612388601683612b98565b7507175616e74697479206d757374206e6f7420626520360541b815260200192915050565b60006123ba601283612b98565b710616d6f756e74206d757374206265203e20360741b815260200192915050565b60006123e8601683612b98565b7534b73b30b634b2103130b9b5b2ba1036b0b730b3b2b960511b815260200192915050565b600061241a601583612b98565b746261736b6574206f7574206f662062616c616e636560581b815260200192915050565b600061244b602083612b98565b7f5361666545524332303a206c6f772d6c6576656c2063616c6c206661696c6564815260200192915050565b6000612484601483612b98565b731bdb9b1e48189c9a5919d9481b585e4818d85b1b60621b815260200192915050565b60006124b4600e83612b98565b6d696e76616c69642062726964676560901b815260200192915050565b60006124de601383612b98565b72185b1c9958591e481a5b9a5d1a585b1a5e9959606a1b815260200192915050565b600061250d601583612b98565b74696e76616c6964207661756c74206164647265737360581b815260200192915050565b600061253e600d83612b98565b6c34b73b30b634b2103a37b5b2b760991b815260200192915050565b6000612567601583612b98565b7418d85b1b081d1bc8189c9a5919d94819985a5b1959605a1b815260200192915050565b6000612598601583612ba1565b74115490cdcdcdd51bdad95b9cd49958da5c1a595b9d605a1b815260150192915050565b60006125c9602683612b98565b7f6d6173736574207175616e74697479206d75737420626520677265617465722081526507468616e20360d41b602082015260400192915050565b6000612611601183612b98565b7077726f6e672076657273696f6e2028312960781b815260200192915050565b600061263e602a83612b98565b7f5361666545524332303a204552433230206f7065726174696f6e20646964206e8152691bdd081cdd58d8d9595960b21b602082015260400192915050565b600061268a602383612b98565b7f436f6e7665727465723a204572726f72206465636f64696e672065787472614481526261746160e81b602082015260400192915050565b60006126cf601f83612b98565b7f5265656e7472616e637947756172643a207265656e7472616e742063616c6c00815260200192915050565b6000612708601883612b98565b7f6d7573742062652063616c6c6564206279206272696467650000000000000000815260200192915050565b6000612741602d83612b98565b7f496e697469616c697a61626c654f776e61626c653a2063616c6c65722069732081526c3737ba103a34329037bbb732b960991b602082015260400192915050565b6000612790601f83612b98565b7f5361666545524332303a2063616c6c20746f206e6f6e2d636f6e747261637400815260200192915050565b60006127c9601c83612b98565b7f696e76616c69642066656573206d616e61676572206164647265737300000000815260200192915050565b600061156382846121b6565b600061156382846121e5565b60006115d78261258b565b602081016115d7828461213b565b60c08101612834828b61213b565b612841602083018a61213b565b61284e604083018961213b565b61285b6060830188612153565b818103608083015261286e81868861215c565b905081810360a083015261288381848661215c565b9a9950505050505050505050565b6060810161289f828661213b565b6128ac602083018561213b565b611c586040830184612153565b606081016128c7828661213b565b6128d46020830185612153565b611c58604083018461213b565b604081016128ef828561213b565b6115636020830184612153565b6080810161290a828761213b565b6129176020830186612153565b612924604083018561213b565b81810360608301526129368184612188565b9695505050505050565b602081016115d7828461214a565b602080825281016115638184612188565b602080825281016115d78161226c565b602080825281016115d781612296565b602080825281016115d7816122cf565b602080825281016115d781612324565b602080825281016115d781612351565b602080825281016115d78161237b565b602080825281016115d7816123ad565b602080825281016115d7816123db565b602080825281016115d78161240d565b602080825281016115d78161243e565b602080825281016115d781612477565b602080825281016115d7816124a7565b602080825281016115d7816124d1565b602080825281016115d781612500565b602080825281016115d781612531565b602080825281016115d78161255a565b602080825281016115d7816125bc565b602080825281016115d781612604565b602080825281016115d781612631565b602080825281016115d78161267d565b602080825281016115d7816126c2565b602080825281016115d7816126fb565b602080825281016115d781612734565b602080825281016115d781612783565b602080825281016115d7816127bc565b602081016115d78284612153565b60608101612b0b8287612153565b612b18602083018661213b565b818103604083015261293681848661215c565b6060810161289f8286612153565b60405181810167ffffffffffffffff81118282101715612b5857600080fd5b604052919050565b600067ffffffffffffffff821115612b7757600080fd5b506020601f91909101601f19160190565b60009081526020902090565b5190565b90815260200190565b919050565b60006115d782612bb6565b151590565b6001600160a01b031690565b82818337506000910152565b60005b83811015612be9578181015183820152602001612bd1565b8381111561066e5750506000910152565b601f01601f191690565b612c0d81612ba6565b8114610d3a57600080fd5b612c0d81612bb1565b612c0d816103a056fea365627a7a7231582062f64c14d6dc7bf3ff11eac8d5da9acf23209734f338867f680f25ffb8ba4f596c6578706572696d656e74616cf564736f6c63430005110040",
  "linkReferences": {},
  "deployedLinkReferences": {}
}