{
  "_format": "hh-sol-artifact-1",
  "contractName": "StakingProxy",
  "sourceName": "contracts/fish/governance/Staking/StakingProxy.sol",
  "abi": [
    {
      "inputs": [
        {
          "internalType": "address",
          "name": "SOV",
          "type": "address"
        }
      ],
      "payable": false,
      "stateMutability": "nonpayable",
      "type": "constructor"
    },
    {
      "anonymous": false,
      "inputs": [
        {
          "indexed": true,
          "internalType": "address",
          "name": "_oldImplementation",
          "type": "address"
        },
        {
          "indexed": true,
          "internalType": "address",
          "name": "_newImplementation",
          "type": "address"
        }
      ],
      "name": "ImplementationChanged",
      "type": "event"
    },
    {
      "anonymous": false,
      "inputs": [
        {
          "indexed": true,
          "internalType": "address",
          "name": "_oldOwner",
          "type": "address"
        },
        {
          "indexed": true,
          "internalType": "address",
          "name": "_newOwner",
          "type": "address"
        }
      ],
      "name": "OwnershipTransferred",
      "type": "event"
    },
    {
      "payable": true,
      "stateMutability": "payable",
      "type": "fallback"
    },
    {
      "constant": true,
      "inputs": [],
      "name": "DELEGATION_TYPEHASH",
      "outputs": [
        {
          "internalType": "bytes32",
          "name": "",
          "type": "bytes32"
        }
      ],
      "payable": false,
      "stateMutability": "view",
      "type": "function"
    },
    {
      "constant": true,
      "inputs": [],
      "name": "DOMAIN_TYPEHASH",
      "outputs": [
        {
          "internalType": "bytes32",
          "name": "",
          "type": "bytes32"
        }
      ],
      "payable": false,
      "stateMutability": "view",
      "type": "function"
    },
    {
      "constant": true,
      "inputs": [],
      "name": "MAX_DURATION",
      "outputs": [
        {
          "internalType": "uint256",
          "name": "",
          "type": "uint256"
        }
      ],
      "payable": false,
      "stateMutability": "view",
      "type": "function"
    },
    {
      "constant": true,
      "inputs": [],
      "name": "MAX_VOTING_WEIGHT",
      "outputs": [
        {
          "internalType": "uint96",
          "name": "",
          "type": "uint96"
        }
      ],
      "payable": false,
      "stateMutability": "view",
      "type": "function"
    },
    {
      "constant": true,
      "inputs": [],
      "name": "SOVToken",
      "outputs": [
        {
          "internalType": "contract IERC20",
          "name": "",
          "type": "address"
        }
      ],
      "payable": false,
      "stateMutability": "view",
      "type": "function"
    },
    {
      "constant": true,
      "inputs": [],
      "name": "WEIGHT_FACTOR",
      "outputs": [
        {
          "internalType": "uint96",
          "name": "",
          "type": "uint96"
        }
      ],
      "payable": false,
      "stateMutability": "view",
      "type": "function"
    },
    {
      "constant": true,
      "inputs": [],
      "name": "allUnlocked",
      "outputs": [
        {
          "internalType": "bool",
          "name": "",
          "type": "bool"
        }
      ],
      "payable": false,
      "stateMutability": "view",
      "type": "function"
    },
    {
      "constant": true,
      "inputs": [
        {
          "internalType": "address",
          "name": "",
          "type": "address"
        },
        {
          "internalType": "uint256",
          "name": "",
          "type": "uint256"
        },
        {
          "internalType": "uint32",
          "name": "",
          "type": "uint32"
        }
      ],
      "name": "delegateStakingCheckpoints",
      "outputs": [
        {
          "internalType": "uint32",
          "name": "fromBlock",
          "type": "uint32"
        },
        {
          "internalType": "uint96",
          "name": "stake",
          "type": "uint96"
        }
      ],
      "payable": false,
      "stateMutability": "view",
      "type": "function"
    },
    {
      "constant": true,
      "inputs": [
        {
          "internalType": "address",
          "name": "",
          "type": "address"
        },
        {
          "internalType": "uint256",
          "name": "",
          "type": "uint256"
        }
      ],
      "name": "delegates",
      "outputs": [
        {
          "internalType": "address",
          "name": "",
          "type": "address"
        }
      ],
      "payable": false,
      "stateMutability": "view",
      "type": "function"
    },
    {
      "constant": true,
      "inputs": [],
      "name": "feeSharing",
      "outputs": [
        {
          "internalType": "contract IFeeSharingProxy",
          "name": "",
          "type": "address"
        }
      ],
      "payable": false,
      "stateMutability": "view",
      "type": "function"
    },
    {
      "constant": true,
      "inputs": [],
      "name": "getImplementation",
      "outputs": [
        {
          "internalType": "address",
          "name": "_implementation",
          "type": "address"
        }
      ],
      "payable": false,
      "stateMutability": "view",
      "type": "function"
    },
    {
      "constant": true,
      "inputs": [],
      "name": "getProxyOwner",
      "outputs": [
        {
          "internalType": "address",
          "name": "_owner",
          "type": "address"
        }
      ],
      "payable": false,
      "stateMutability": "view",
      "type": "function"
    },
    {
      "constant": true,
      "inputs": [],
      "name": "isOwner",
      "outputs": [
        {
          "internalType": "bool",
          "name": "",
          "type": "bool"
        }
      ],
      "payable": false,
      "stateMutability": "view",
      "type": "function"
    },
    {
      "constant": true,
      "inputs": [],
      "name": "kickoffTS",
      "outputs": [
        {
          "internalType": "uint256",
          "name": "",
          "type": "uint256"
        }
      ],
      "payable": false,
      "stateMutability": "view",
      "type": "function"
    },
    {
      "constant": true,
      "inputs": [],
      "name": "newStakingContract",
      "outputs": [
        {
          "internalType": "address",
          "name": "",
          "type": "address"
        }
      ],
      "payable": false,
      "stateMutability": "view",
      "type": "function"
    },
    {
      "constant": true,
      "inputs": [
        {
          "internalType": "address",
          "name": "",
          "type": "address"
        }
      ],
      "name": "nonces",
      "outputs": [
        {
          "internalType": "uint256",
          "name": "",
          "type": "uint256"
        }
      ],
      "payable": false,
      "stateMutability": "view",
      "type": "function"
    },
    {
      "constant": true,
      "inputs": [
        {
          "internalType": "address",
          "name": "",
          "type": "address"
        },
        {
          "internalType": "uint256",
          "name": "",
          "type": "uint256"
        }
      ],
      "name": "numDelegateStakingCheckpoints",
      "outputs": [
        {
          "internalType": "uint32",
          "name": "",
          "type": "uint32"
        }
      ],
      "payable": false,
      "stateMutability": "view",
      "type": "function"
    },
    {
      "constant": true,
      "inputs": [
        {
          "internalType": "uint256",
          "name": "",
          "type": "uint256"
        }
      ],
      "name": "numTotalStakingCheckpoints",
      "outputs": [
        {
          "internalType": "uint32",
          "name": "",
          "type": "uint32"
        }
      ],
      "payable": false,
      "stateMutability": "view",
      "type": "function"
    },
    {
      "constant": true,
      "inputs": [
        {
          "internalType": "address",
          "name": "",
          "type": "address"
        },
        {
          "internalType": "uint256",
          "name": "",
          "type": "uint256"
        }
      ],
      "name": "numUserStakingCheckpoints",
      "outputs": [
        {
          "internalType": "uint32",
          "name": "",
          "type": "uint32"
        }
      ],
      "payable": false,
      "stateMutability": "view",
      "type": "function"
    },
    {
      "constant": true,
      "inputs": [],
      "name": "owner",
      "outputs": [
        {
          "internalType": "address",
          "name": "",
          "type": "address"
        }
      ],
      "payable": false,
      "stateMutability": "view",
      "type": "function"
    },
    {
      "constant": false,
      "inputs": [],
      "name": "renounceOwnership",
      "outputs": [],
      "payable": false,
      "stateMutability": "nonpayable",
      "type": "function"
    },
    {
      "constant": false,
      "inputs": [
        {
          "internalType": "address",
          "name": "_implementation",
          "type": "address"
        }
      ],
      "name": "setImplementation",
      "outputs": [],
      "payable": false,
      "stateMutability": "nonpayable",
      "type": "function"
    },
    {
      "constant": false,
      "inputs": [
        {
          "internalType": "address",
          "name": "_owner",
          "type": "address"
        }
      ],
      "name": "setProxyOwner",
      "outputs": [],
      "payable": false,
      "stateMutability": "nonpayable",
      "type": "function"
    },
    {
      "constant": true,
      "inputs": [
        {
          "internalType": "uint256",
          "name": "",
          "type": "uint256"
        },
        {
          "internalType": "uint32",
          "name": "",
          "type": "uint32"
        }
      ],
      "name": "totalStakingCheckpoints",
      "outputs": [
        {
          "internalType": "uint32",
          "name": "fromBlock",
          "type": "uint32"
        },
        {
          "internalType": "uint96",
          "name": "stake",
          "type": "uint96"
        }
      ],
      "payable": false,
      "stateMutability": "view",
      "type": "function"
    },
    {
      "constant": false,
      "inputs": [
        {
          "internalType": "address",
          "name": "newOwner",
          "type": "address"
        }
      ],
      "name": "transferOwnership",
      "outputs": [],
      "payable": false,
      "stateMutability": "nonpayable",
      "type": "function"
    },
    {
      "constant": true,
      "inputs": [
        {
          "internalType": "address",
          "name": "",
          "type": "address"
        },
        {
          "internalType": "uint256",
          "name": "",
          "type": "uint256"
        },
        {
          "internalType": "uint32",
          "name": "",
          "type": "uint32"
        }
      ],
      "name": "userStakingCheckpoints",
      "outputs": [
        {
          "internalType": "uint32",
          "name": "fromBlock",
          "type": "uint32"
        },
        {
          "internalType": "uint96",
          "name": "stake",
          "type": "uint96"
        }
      ],
      "payable": false,
      "stateMutability": "view",
      "type": "function"
    },
    {
      "constant": true,
      "inputs": [
        {
          "internalType": "address",
          "name": "",
          "type": "address"
        }
      ],
      "name": "vestingWhitelist",
      "outputs": [
        {
          "internalType": "bool",
          "name": "",
          "type": "bool"
        }
      ],
      "payable": false,
      "stateMutability": "view",
      "type": "function"
    },
    {
      "constant": true,
      "inputs": [],
      "name": "weightScaling",
      "outputs": [
        {
          "internalType": "uint96",
          "name": "",
          "type": "uint96"
        }
      ],
      "payable": false,
      "stateMutability": "view",
      "type": "function"
    }
  ],
  "bytecode": "0x60c0604052600a608081905269534f565374616b696e6760b01b60a09081526200002d9160029190620001ea565b506005805460ff19169055600d80546001600160a01b0316600360a01b1790553480156200005a57600080fd5b506040516200115b3803806200115b833981810160405260208110156200008057600080fd5b50516000620000976001600160e01b036200010e16565b600080546001600160a01b0319166001600160a01b03831690811782556040519293509160008051602062001116833981519152908290a350620000e4336001600160e01b036200011316565b600380546001600160a01b0319166001600160a01b0392909216919091179055426001556200028c565b335b90565b6001600160a01b0381166200015a5760405162461bcd60e51b8152600401808060200182810382526025815260200180620011366025913960400191505060405180910390fd5b6001600160a01b038116620001776001600160e01b03620001c216565b6001600160a01b03166000805160206200111683398151915260405160405180910390a3604080516e35b2bc97383937bc3c9737bbb732b960891b8152905190819003600f01902055565b604080516e35b2bc97383937bc3c9737bbb732b960891b8152905190819003600f0190205490565b828054600181600116156101000203166002900490600052602060002090601f016020900481019282601f106200022d57805160ff19168380011785556200025d565b828001600101855582156200025d579182015b828111156200025d57825182559160200191906001019062000240565b506200026b9291506200026f565b5090565b6200011091905b808211156200026b576000815560010162000276565b610e7a806200029c6000396000f3fe6080604052600436106101b65760003560e01c80639929e886116100ec578063caaee91c1161008a578063db27ec1811610064578063db27ec18146105fa578063dfb267c214610633578063e7a324dc14610669578063f2fde38b1461067e576101b6565b8063caaee91c1461057f578063d27569e7146105b2578063d784d426146105c7576101b6565b8063adae9002116100c6578063adae90021461050d578063ae81dfe414610540578063b1724b4614610555578063bf626ec11461056a576101b6565b80639929e886146104ce578063a58848c5146104e3578063aaf10f42146104f8576101b6565b80636b6fde0e116101595780638da5cb5b116101335780638da5cb5b146104145780638f32d59b146104295780639436e7d41461045257806394c2ce5814610495576101b6565b80636b6fde0e14610385578063715018a6146103ca5780637ecebe00146103e1576101b6565b80631ab7710d116101955780631ab7710d146102b557806320606b70146102ca57806327dd1b00146102df57806368cefccc14610318576101b6565b8062073f991461022c57806303a18fa31461025357806317748adc14610284575b60006101c06106b1565b90506001600160a01b0381166102075760405162461bcd60e51b8152600401808060200182810382526023815260200180610dfe6023913960400191505060405180910390fd5b60405136600082376000803683855af43d806000843e818015610228578184f35b8184fd5b34801561023857600080fd5b506102416106dc565b60408051918252519081900360200190f35b34801561025f57600080fd5b506102686106e2565b604080516001600160a01b039092168252519081900360200190f35b34801561029057600080fd5b506102996106f1565b604080516001600160601b039092168252519081900360200190f35b3480156102c157600080fd5b506102686106f6565b3480156102d657600080fd5b5061024161071e565b3480156102eb57600080fd5b506102686004803603604081101561030257600080fd5b506001600160a01b038135169060200135610739565b34801561032457600080fd5b5061035d6004803603606081101561033b57600080fd5b5080356001600160a01b0316906020810135906040013563ffffffff1661075f565b6040805163ffffffff90931683526001600160601b0390911660208301528051918290030190f35b34801561039157600080fd5b5061035d600480360360608110156103a857600080fd5b5080356001600160a01b0316906020810135906040013563ffffffff1661079b565b3480156103d657600080fd5b506103df6107d7565b005b3480156103ed57600080fd5b506102416004803603602081101561040457600080fd5b50356001600160a01b031661087a565b34801561042057600080fd5b5061026861088c565b34801561043557600080fd5b5061043e61089b565b604080519115158252519081900360200190f35b34801561045e57600080fd5b5061047c6004803603602081101561047557600080fd5b50356108bf565b6040805163ffffffff9092168252519081900360200190f35b3480156104a157600080fd5b5061047c600480360360408110156104b857600080fd5b506001600160a01b0381351690602001356108d7565b3480156104da57600080fd5b5061043e6108fa565b3480156104ef57600080fd5b50610268610903565b34801561050457600080fd5b506102686106b1565b34801561051957600080fd5b5061043e6004803603602081101561053057600080fd5b50356001600160a01b0316610912565b34801561054c57600080fd5b50610268610927565b34801561056157600080fd5b5061024161093b565b34801561057657600080fd5b50610299610943565b34801561058b57600080fd5b506103df600480360360208110156105a257600080fd5b50356001600160a01b0316610959565b3480156105be57600080fd5b506102996109ca565b3480156105d357600080fd5b506103df600480360360208110156105ea57600080fd5b50356001600160a01b03166109cf565b34801561060657600080fd5b5061047c6004803603604081101561061d57600080fd5b506001600160a01b038135169060200135610a3d565b34801561063f57600080fd5b5061035d6004803603604081101561065657600080fd5b508035906020013563ffffffff16610a60565b34801561067557600080fd5b50610241610a96565b34801561068a57600080fd5b506103df600480360360208110156106a157600080fd5b50356001600160a01b0316610ab1565b604080517135b2bc9734b6b83632b6b2b73a30ba34b7b760711b815290519081900360120190205490565b60015481565b600d546001600160a01b031681565b600981565b604080516e35b2bc97383937bc3c9737bbb732b960891b8152905190819003600f0190205490565b604051806043610d7082396043019050604051809103902081565b60046020908152600092835260408084209091529082529020546001600160a01b031681565b600a60209081526000938452604080852082529284528284209052825290205463ffffffff81169064010000000090046001600160601b031682565b600860209081526000938452604080852082529284528284209052825290205463ffffffff81169064010000000090046001600160601b031682565b6107df61089b565b610830576040805162461bcd60e51b815260206004820181905260248201527f4f776e61626c653a2063616c6c6572206973206e6f7420746865206f776e6572604482015290519081900360640190fd5b600080546040516001600160a01b03909116907f8be0079c531659141344cd1fd0a4f28419497f9722a3daafe3b4186f6b6457e0908390a3600080546001600160a01b0319169055565b600c6020526000908152604090205481565b6000546001600160a01b031690565b600080546001600160a01b03166108b0610b13565b6001600160a01b031614905090565b60076020526000908152604090205463ffffffff1681565b600960209081526000928352604080842090915290825290205463ffffffff1681565b60055460ff1681565b6003546001600160a01b031681565b600e6020526000908152604090205460ff1681565b60055461010090046001600160a01b031681565b63059fa60081565b600d54600160a01b90046001600160601b031681565b6109616106f6565b6001600160a01b0316336001600160a01b0316146109be576040805162461bcd60e51b8152602060048201526015602482015274141c9bde1e4e8e881858d8d95cdcc819195b9a5959605a1b604482015290519081900360640190fd5b6109c781610b17565b50565b600a81565b6109d76106f6565b6001600160a01b0316336001600160a01b031614610a34576040805162461bcd60e51b8152602060048201526015602482015274141c9bde1e4e8e881858d8d95cdcc819195b9a5959605a1b604482015290519081900360640190fd5b6109c781610bca565b600b60209081526000928352604080842090915290825290205463ffffffff1681565b600660209081526000928352604080842090915290825290205463ffffffff81169064010000000090046001600160601b031682565b60405180604b610db38239604b019050604051809103902081565b610ab961089b565b610b0a576040805162461bcd60e51b815260206004820181905260248201527f4f776e61626c653a2063616c6c6572206973206e6f7420746865206f776e6572604482015290519081900360640190fd5b6109c781610c80565b3390565b6001600160a01b038116610b5c5760405162461bcd60e51b8152600401808060200182810382526025815260200180610e216025913960400191505060405180910390fd5b806001600160a01b0316610b6e6106f6565b6001600160a01b03167f8be0079c531659141344cd1fd0a4f28419497f9722a3daafe3b4186f6b6457e060405160405180910390a3604080516e35b2bc97383937bc3c9737bbb732b960891b8152905190819003600f01902055565b6001600160a01b038116610c0f5760405162461bcd60e51b8152600401808060200182810382526029815260200180610d476029913960400191505060405180910390fd5b806001600160a01b0316610c216106b1565b6001600160a01b03167fcfbf4028add9318bbf716f08c348595afb063b0e9feed1f86d33681a4b3ed4d360405160405180910390a3604080517135b2bc9734b6b83632b6b2b73a30ba34b7b760711b8152905190819003601201902055565b6001600160a01b038116610cc55760405162461bcd60e51b8152600401808060200182810382526026815260200180610d216026913960400191505060405180910390fd5b600080546040516001600160a01b03808516939216917f8be0079c531659141344cd1fd0a4f28419497f9722a3daafe3b4186f6b6457e091a3600080546001600160a01b0319166001600160a01b039290921691909117905556fe4f776e61626c653a206e6577206f776e657220697320746865207a65726f206164647265737350726f78793a3a736574496d706c656d656e746174696f6e3a20696e76616c69642061646472657373454950373132446f6d61696e28737472696e67206e616d652c75696e7432353620636861696e49642c6164647265737320766572696679696e67436f6e74726163742944656c65676174696f6e28616464726573732064656c6567617465652c75696e74323536206c6f636b446174652c75696e74323536206e6f6e63652c75696e74323536206578706972792950726f78793a3a28293a20696d706c656d656e746174696f6e206e6f7420666f756e6450726f78793a3a73657450726f78794f776e65723a20696e76616c69642061646472657373a265627a7a7231582025703d169b1e3f5ceae65d5fe75bf506c0a7eb0689b1a9f7d6a9fc1048c1654664736f6c634300051100328be0079c531659141344cd1fd0a4f28419497f9722a3daafe3b4186f6b6457e050726f78793a3a73657450726f78794f776e65723a20696e76616c69642061646472657373",
  "linkReferences": {},
  "deployedLinkReferences": {}
}