{
  "_format": "hh-sol-artifact-1",
  "contractName": "VestingRegistry3",
  "sourceName": "contracts/fish/governance/Vesting/VestingRegistry3.sol",
  "abi": [
    {
      "inputs": [
        {
          "internalType": "address",
          "name": "_vestingFactory",
          "type": "address"
        },
        {
          "internalType": "address",
          "name": "_SOV",
          "type": "address"
        },
        {
          "internalType": "address",
          "name": "_staking",
          "type": "address"
        },
        {
          "internalType": "address",
          "name": "_feeSharingProxy",
          "type": "address"
        },
        {
          "internalType": "address",
          "name": "_vestingOwner",
          "type": "address"
        }
      ],
      "payable": false,
      "stateMutability": "nonpayable",
      "type": "constructor"
    },
    {
      "anonymous": false,
      "inputs": [
        {
          "indexed": false,
          "internalType": "address",
          "name": "admin",
          "type": "address"
        }
      ],
      "name": "AdminAdded",
      "type": "event"
    },
    {
      "anonymous": false,
      "inputs": [
        {
          "indexed": false,
          "internalType": "address",
          "name": "admin",
          "type": "address"
        }
      ],
      "name": "AdminRemoved",
      "type": "event"
    },
    {
      "anonymous": false,
      "inputs": [
        {
          "indexed": true,
          "internalType": "address",
          "name": "previousOwner",
          "type": "address"
        },
        {
          "indexed": true,
          "internalType": "address",
          "name": "newOwner",
          "type": "address"
        }
      ],
      "name": "OwnershipTransferred",
      "type": "event"
    },
    {
      "anonymous": false,
      "inputs": [
        {
          "indexed": true,
          "internalType": "address",
          "name": "receiver",
          "type": "address"
        },
        {
          "indexed": false,
          "internalType": "uint256",
          "name": "amount",
          "type": "uint256"
        }
      ],
      "name": "SOVTransferred",
      "type": "event"
    },
    {
      "anonymous": false,
      "inputs": [
        {
          "indexed": true,
          "internalType": "address",
          "name": "tokenOwner",
          "type": "address"
        },
        {
          "indexed": false,
          "internalType": "address",
          "name": "vesting",
          "type": "address"
        },
        {
          "indexed": false,
          "internalType": "uint256",
          "name": "cliff",
          "type": "uint256"
        },
        {
          "indexed": false,
          "internalType": "uint256",
          "name": "duration",
          "type": "uint256"
        },
        {
          "indexed": false,
          "internalType": "uint256",
          "name": "amount",
          "type": "uint256"
        }
      ],
      "name": "TeamVestingCreated",
      "type": "event"
    },
    {
      "anonymous": false,
      "inputs": [
        {
          "indexed": true,
          "internalType": "address",
          "name": "vesting",
          "type": "address"
        },
        {
          "indexed": false,
          "internalType": "uint256",
          "name": "amount",
          "type": "uint256"
        }
      ],
      "name": "TokensStaked",
      "type": "event"
    },
    {
      "anonymous": false,
      "inputs": [
        {
          "indexed": true,
          "internalType": "address",
          "name": "tokenOwner",
          "type": "address"
        },
        {
          "indexed": false,
          "internalType": "address",
          "name": "vesting",
          "type": "address"
        },
        {
          "indexed": false,
          "internalType": "uint256",
          "name": "cliff",
          "type": "uint256"
        },
        {
          "indexed": false,
          "internalType": "uint256",
          "name": "duration",
          "type": "uint256"
        },
        {
          "indexed": false,
          "internalType": "uint256",
          "name": "amount",
          "type": "uint256"
        }
      ],
      "name": "VestingCreated",
      "type": "event"
    },
    {
      "constant": true,
      "inputs": [],
      "name": "SOV",
      "outputs": [
        {
          "internalType": "address",
          "name": "",
          "type": "address"
        }
      ],
      "payable": false,
      "stateMutability": "view",
      "type": "function"
    },
    {
      "constant": false,
      "inputs": [
        {
          "internalType": "address",
          "name": "_admin",
          "type": "address"
        }
      ],
      "name": "addAdmin",
      "outputs": [],
      "payable": false,
      "stateMutability": "nonpayable",
      "type": "function"
    },
    {
      "constant": true,
      "inputs": [
        {
          "internalType": "address",
          "name": "",
          "type": "address"
        }
      ],
      "name": "admins",
      "outputs": [
        {
          "internalType": "bool",
          "name": "",
          "type": "bool"
        }
      ],
      "payable": false,
      "stateMutability": "view",
      "type": "function"
    },
    {
      "constant": false,
      "inputs": [
        {
          "internalType": "address",
          "name": "_tokenOwner",
          "type": "address"
        },
        {
          "internalType": "uint256",
          "name": "_amount",
          "type": "uint256"
        },
        {
          "internalType": "uint256",
          "name": "_cliff",
          "type": "uint256"
        },
        {
          "internalType": "uint256",
          "name": "_duration",
          "type": "uint256"
        }
      ],
      "name": "createTeamVesting",
      "outputs": [],
      "payable": false,
      "stateMutability": "nonpayable",
      "type": "function"
    },
    {
      "constant": false,
      "inputs": [
        {
          "internalType": "address",
          "name": "_tokenOwner",
          "type": "address"
        },
        {
          "internalType": "uint256",
          "name": "_amount",
          "type": "uint256"
        },
        {
          "internalType": "uint256",
          "name": "_cliff",
          "type": "uint256"
        },
        {
          "internalType": "uint256",
          "name": "_duration",
          "type": "uint256"
        }
      ],
      "name": "createVesting",
      "outputs": [],
      "payable": false,
      "stateMutability": "nonpayable",
      "type": "function"
    },
    {
      "constant": true,
      "inputs": [],
      "name": "feeSharingProxy",
      "outputs": [
        {
          "internalType": "address",
          "name": "",
          "type": "address"
        }
      ],
      "payable": false,
      "stateMutability": "view",
      "type": "function"
    },
    {
      "constant": true,
      "inputs": [
        {
          "internalType": "address",
          "name": "_tokenOwner",
          "type": "address"
        }
      ],
      "name": "getTeamVesting",
      "outputs": [
        {
          "internalType": "address",
          "name": "",
          "type": "address"
        }
      ],
      "payable": false,
      "stateMutability": "view",
      "type": "function"
    },
    {
      "constant": true,
      "inputs": [
        {
          "internalType": "address",
          "name": "_tokenOwner",
          "type": "address"
        }
      ],
      "name": "getVesting",
      "outputs": [
        {
          "internalType": "address",
          "name": "",
          "type": "address"
        }
      ],
      "payable": false,
      "stateMutability": "view",
      "type": "function"
    },
    {
      "constant": true,
      "inputs": [],
      "name": "isOwner",
      "outputs": [
        {
          "internalType": "bool",
          "name": "",
          "type": "bool"
        }
      ],
      "payable": false,
      "stateMutability": "view",
      "type": "function"
    },
    {
      "constant": true,
      "inputs": [],
      "name": "owner",
      "outputs": [
        {
          "internalType": "address",
          "name": "",
          "type": "address"
        }
      ],
      "payable": false,
      "stateMutability": "view",
      "type": "function"
    },
    {
      "constant": false,
      "inputs": [
        {
          "internalType": "address",
          "name": "_admin",
          "type": "address"
        }
      ],
      "name": "removeAdmin",
      "outputs": [],
      "payable": false,
      "stateMutability": "nonpayable",
      "type": "function"
    },
    {
      "constant": false,
      "inputs": [],
      "name": "renounceOwnership",
      "outputs": [],
      "payable": false,
      "stateMutability": "nonpayable",
      "type": "function"
    },
    {
      "constant": false,
      "inputs": [
        {
          "internalType": "address",
          "name": "_vestingFactory",
          "type": "address"
        }
      ],
      "name": "setVestingFactory",
      "outputs": [],
      "payable": false,
      "stateMutability": "nonpayable",
      "type": "function"
    },
    {
      "constant": false,
      "inputs": [
        {
          "internalType": "address",
          "name": "_vesting",
          "type": "address"
        },
        {
          "internalType": "uint256",
          "name": "_amount",
          "type": "uint256"
        }
      ],
      "name": "stakeTokens",
      "outputs": [],
      "payable": false,
      "stateMutability": "nonpayable",
      "type": "function"
    },
    {
      "constant": true,
      "inputs": [],
      "name": "staking",
      "outputs": [
        {
          "internalType": "address",
          "name": "",
          "type": "address"
        }
      ],
      "payable": false,
      "stateMutability": "view",
      "type": "function"
    },
    {
      "constant": false,
      "inputs": [
        {
          "internalType": "address",
          "name": "newOwner",
          "type": "address"
        }
      ],
      "name": "transferOwnership",
      "outputs": [],
      "payable": false,
      "stateMutability": "nonpayable",
      "type": "function"
    },
    {
      "constant": false,
      "inputs": [
        {
          "internalType": "address",
          "name": "_receiver",
          "type": "address"
        },
        {
          "internalType": "uint256",
          "name": "_amount",
          "type": "uint256"
        }
      ],
      "name": "transferSOV",
      "outputs": [],
      "payable": false,
      "stateMutability": "nonpayable",
      "type": "function"
    },
    {
      "constant": true,
      "inputs": [
        {
          "internalType": "address",
          "name": "",
          "type": "address"
        },
        {
          "internalType": "uint256",
          "name": "",
          "type": "uint256"
        }
      ],
      "name": "vestingContracts",
      "outputs": [
        {
          "internalType": "address",
          "name": "",
          "type": "address"
        }
      ],
      "payable": false,
      "stateMutability": "view",
      "type": "function"
    },
    {
      "constant": true,
      "inputs": [],
      "name": "vestingFactory",
      "outputs": [
        {
          "internalType": "contract IVestingFactory",
          "name": "",
          "type": "address"
        }
      ],
      "payable": false,
      "stateMutability": "view",
      "type": "function"
    },
    {
      "constant": true,
      "inputs": [],
      "name": "vestingOwner",
      "outputs": [
        {
          "internalType": "address",
          "name": "",
          "type": "address"
        }
      ],
      "payable": false,
      "stateMutability": "view",
      "type": "function"
    }
  ],
  "bytecode": "0x608060405234801561001057600080fd5b5060405161134e38038061134e833981810160405260a081101561003357600080fd5b5080516020820151604083015160608401516080909401519293919290919060006100656001600160e01b0361028116565b600080546001600160a01b0319166001600160a01b0383169081178255604051929350917f8be0079c531659141344cd1fd0a4f28419497f9722a3daafe3b4186f6b6457e0908290a3506001600160a01b03841661010a576040805162461bcd60e51b815260206004820152601360248201527f534f56206164647265737320696e76616c696400000000000000000000000000604482015290519081900360640190fd5b6001600160a01b038316610165576040805162461bcd60e51b815260206004820152601760248201527f7374616b696e67206164647265737320696e76616c6964000000000000000000604482015290519081900360640190fd5b6001600160a01b0382166101c0576040805162461bcd60e51b815260206004820152601f60248201527f66656553686172696e6750726f7879206164647265737320696e76616c696400604482015290519081900360640190fd5b6001600160a01b03811661021b576040805162461bcd60e51b815260206004820152601c60248201527f76657374696e674f776e6572206164647265737320696e76616c696400000000604482015290519081900360640190fd5b61022d856001600160e01b0361028516565b600280546001600160a01b039586166001600160a01b031991821617909155600380549486169482169490941790935560048054928516928416929092179091556005805491909316911617905550610302565b3390565b6001600160a01b0381166102e0576040805162461bcd60e51b815260206004820152601e60248201527f76657374696e67466163746f7279206164647265737320696e76616c69640000604482015290519081900360640190fd5b600180546001600160a01b0319166001600160a01b0392909216919091179055565b61103d806103116000396000f3fe608060405234801561001057600080fd5b506004361061012c5760003560e01c80638da5cb5b116100ad578063c810a3e311610071578063c810a3e3146102fb578063cc49ede714610321578063f2becf1714610347578063f2fde38b14610373578063f60826ee146103995761012c565b80638da5cb5b1461027f5780638f32d59b14610287578063bd7b59081461028f578063bd8f732b14610297578063c680c0b7146102cf5761012c565b80634cf088d9116100f45780634cf088d9146102155780636a26b57f1461021d5780637048027514610225578063715018a61461024b57806379a83f5a146102535761012c565b80630665a06f1461013157806308dcb3601461016b5780631785f53c1461018f578063377220fd146101b5578063429b62e5146101db575b600080fd5b6101696004803603608081101561014757600080fd5b506001600160a01b0381351690602081013590604081013590606001356103a1565b005b61017361046f565b604080516001600160a01b039092168252519081900360200190f35b610169600480360360208110156101a557600080fd5b50356001600160a01b031661047e565b610169600480360360208110156101cb57600080fd5b50356001600160a01b031661051d565b610201600480360360208110156101f157600080fd5b50356001600160a01b0316610570565b604080519115158252519081900360200190f35b610173610585565b610173610594565b6101696004803603602081101561023b57600080fd5b50356001600160a01b03166105a3565b610169610645565b6101696004803603604081101561026957600080fd5b506001600160a01b0381351690602001356106d6565b6101736108fe565b61020161090d565b610173610931565b610169600480360360808110156102ad57600080fd5b506001600160a01b038135169060208101359060408101359060600135610940565b610169600480360360408110156102e557600080fd5b506001600160a01b038135169060200135610a0e565b6101736004803603602081101561031157600080fd5b50356001600160a01b0316610bb8565b6101736004803603602081101561033757600080fd5b50356001600160a01b0316610bf3565b6101736004803603604081101561035d57600080fd5b506001600160a01b038135169060200135610c13565b6101696004803603602081101561038957600080fd5b50356001600160a01b0316610c39565b610173610c89565b6103a961090d565b806103c357503360009081526007602052604090205460ff165b610403576040805162461bcd60e51b815260206004820152600c60248201526b1d5b985d5d1a1bdc9a5e995960a21b604482015290519081900360640190fd5b6000610410858484610c98565b604080516001600160a01b03808416825260208201879052818301869052606082018890529151929350908716917f66a644acab4366c0125120794335c517775a2b44b4315b5d90f0d163dae07fea9181900360800190a25050505050565b6002546001600160a01b031681565b61048661090d565b6104c5576040805162461bcd60e51b81526020600482018190526024820152600080516020610fe9833981519152604482015290519081900360640190fd5b6001600160a01b038116600081815260076020908152604091829020805460ff19169055815192835290517fa3b62bc36326052d97ea62d63c3d60308ed4c3ea8ac079dd8499f1e9c4f80c0f9281900390910190a150565b61052561090d565b610564576040805162461bcd60e51b81526020600482018190526024820152600080516020610fe9833981519152604482015290519081900360640190fd5b61056d81610de5565b50565b60076020526000908152604090205460ff1681565b6003546001600160a01b031681565b6004546001600160a01b031681565b6105ab61090d565b6105ea576040805162461bcd60e51b81526020600482018190526024820152600080516020610fe9833981519152604482015290519081900360640190fd5b6001600160a01b038116600081815260076020908152604091829020805460ff19166001179055815192835290517f44d6d25963f097ad14f29f06854a01f575648a1ef82f30e562ccd3889717e3399281900390910190a150565b61064d61090d565b61068c576040805162461bcd60e51b81526020600482018190526024820152600080516020610fe9833981519152604482015290519081900360640190fd5b600080546040516001600160a01b03909116907f8be0079c531659141344cd1fd0a4f28419497f9722a3daafe3b4186f6b6457e0908390a3600080546001600160a01b0319169055565b6106de61090d565b806106f857503360009081526007602052604090205460ff165b610738576040805162461bcd60e51b815260206004820152600c60248201526b1d5b985d5d1a1bdc9a5e995960a21b604482015290519081900360640190fd5b6001600160a01b038216610793576040805162461bcd60e51b815260206004820152601760248201527f76657374696e67206164647265737320696e76616c6964000000000000000000604482015290519081900360640190fd5b600081116107d9576040805162461bcd60e51b815260206004820152600e60248201526d185b5bdd5b9d081a5b9d985b1a5960921b604482015290519081900360640190fd5b6002546040805163095ea7b360e01b81526001600160a01b038581166004830152602482018590529151919092169163095ea7b39160448083019260209291908290030181600087803b15801561082f57600080fd5b505af1158015610843573d6000803e3d6000fd5b505050506040513d602081101561085957600080fd5b505060408051637547c7a360e01b81526004810183905290516001600160a01b03841691637547c7a391602480830192600092919082900301818387803b1580156108a357600080fd5b505af11580156108b7573d6000803e3d6000fd5b50506040805184815290516001600160a01b03861693507fb539ca1e5c8d398ddf1c41c30166f33404941683be4683319b57669a93dad4ef92509081900360200190a25050565b6000546001600160a01b031690565b600080546001600160a01b0316610922610e62565b6001600160a01b031614905090565b6005546001600160a01b031681565b61094861090d565b8061096257503360009081526007602052604090205460ff165b6109a2576040805162461bcd60e51b815260206004820152600c60248201526b1d5b985d5d1a1bdc9a5e995960a21b604482015290519081900360640190fd5b60006109af858484610e66565b604080516001600160a01b03808416825260208201879052818301869052606082018890529151929350908716917f6f0b5adf3d5b3548ea2b06e9be6e7f72e125253fd8c948f6ef4024be653c1c179181900360800190a25050505050565b610a1661090d565b610a55576040805162461bcd60e51b81526020600482018190526024820152600080516020610fe9833981519152604482015290519081900360640190fd5b6001600160a01b038216610ab0576040805162461bcd60e51b815260206004820152601860248201527f7265636569766572206164647265737320696e76616c69640000000000000000604482015290519081900360640190fd5b80610af3576040805162461bcd60e51b815260206004820152600e60248201526d185b5bdd5b9d081a5b9d985b1a5960921b604482015290519081900360640190fd5b6002546040805163a9059cbb60e01b81526001600160a01b038581166004830152602482018590529151919092169163a9059cbb9160448083019260209291908290030181600087803b158015610b4957600080fd5b505af1158015610b5d573d6000803e3d6000fd5b505050506040513d6020811015610b7357600080fd5b50506040805182815290516001600160a01b038416917fe1b0ada289bf82fb641c8c1e1c78f820fae44e8f845760725cdeb09167a289ad919081900360200190a25050565b6001600160a01b038116600090815260066020526040812081805b81526020810191909152604001600020546001600160a01b031692915050565b6001600160a01b0381166000908152600660205260408120816001610bd3565b60066020908152600092835260408084209091529082529020546001600160a01b031681565b610c4161090d565b610c80576040805162461bcd60e51b81526020600482018190526024820152600080516020610fe9833981519152604482015290519081900360640190fd5b61056d81610f22565b6001546001600160a01b031681565b6001600160a01b038381166000908152600660209081526040808320600180855292528220549192909116610db7576001546002546003546004805460408051637d2fbb8f60e11b81526001600160a01b0395861693810193909352928416602483015289841660448301819052606483018a90526084830189905290841660a483015260c48201529051600093929092169163fa5f771e9160e48082019260209290919082900301818787803b158015610d5257600080fd5b505af1158015610d66573d6000803e3d6000fd5b505050506040513d6020811015610d7c57600080fd5b50516001600160a01b038781166000908152600660209081526040808320878452909152902080546001600160a01b03191691909216179055505b6001600160a01b03948516600090815260066020908152604080832093835292905220549093169392505050565b6001600160a01b038116610e40576040805162461bcd60e51b815260206004820152601e60248201527f76657374696e67466163746f7279206164647265737320696e76616c69640000604482015290519081900360640190fd5b600180546001600160a01b0319166001600160a01b0392909216919091179055565b3390565b6001600160a01b0383811660009081526006602090815260408083208380529091528120549091829116610db7576001546002546003546004805460055460408051630546344f60e41b81526001600160a01b039687169481019490945293851660248401528a85166044840152606483018a90526084830189905290841660a4830152831660c48201529051600093929092169163546344f09160e48082019260209290919082900301818787803b158015610d5257600080fd5b6001600160a01b038116610f675760405162461bcd60e51b8152600401808060200182810382526026815260200180610fc36026913960400191505060405180910390fd5b600080546040516001600160a01b03808516939216917f8be0079c531659141344cd1fd0a4f28419497f9722a3daafe3b4186f6b6457e091a3600080546001600160a01b0319166001600160a01b039290921691909117905556fe4f776e61626c653a206e6577206f776e657220697320746865207a65726f20616464726573734f776e61626c653a2063616c6c6572206973206e6f7420746865206f776e6572a265627a7a723158202459ec7d41cded116adb306b8cf0fc53aba39b33bd0fc7e6902b63e37280b35a64736f6c63430005110032",
  "linkReferences": {},
  "deployedLinkReferences": {}
}