{
    "_format": "hh-sol-artifact-1",
    "contractName": "VestingRegistry",
    "sourceName": "contracts/fish/governance/Vesting/VestingRegistry.sol",
    "abi": [
        {
            "inputs": [
                {
                    "internalType": "address",
                    "name": "_vestingFactory",
                    "type": "address"
                },
                {
                    "internalType": "address",
                    "name": "_SOV",
                    "type": "address"
                },
                {
                    "internalType": "address[]",
                    "name": "_CSOVtokens",
                    "type": "address[]"
                },
                {
                    "internalType": "uint256",
                    "name": "_priceSats",
                    "type": "uint256"
                },
                {
                    "internalType": "address",
                    "name": "_staking",
                    "type": "address"
                },
                {
                    "internalType": "address",
                    "name": "_feeSharingProxy",
                    "type": "address"
                },
                {
                    "internalType": "address",
                    "name": "_vestingOwner",
                    "type": "address"
                }
            ],
            "payable": false,
            "stateMutability": "nonpayable",
            "type": "constructor"
        },
        {
            "anonymous": false,
            "inputs": [
                {
                    "indexed": false,
                    "internalType": "address",
                    "name": "admin",
                    "type": "address"
                }
            ],
            "name": "AdminAdded",
            "type": "event"
        },
        {
            "anonymous": false,
            "inputs": [
                {
                    "indexed": false,
                    "internalType": "address",
                    "name": "admin",
                    "type": "address"
                }
            ],
            "name": "AdminRemoved",
            "type": "event"
        },
        {
            "anonymous": false,
            "inputs": [
                {
                    "indexed": false,
                    "internalType": "address",
                    "name": "from",
                    "type": "address"
                },
                {
                    "indexed": false,
                    "internalType": "uint256",
                    "name": "CSOVamount",
                    "type": "uint256"
                },
                {
                    "indexed": false,
                    "internalType": "uint256",
                    "name": "reImburseAmount",
                    "type": "uint256"
                }
            ],
            "name": "CSOVReImburse",
            "type": "event"
        },
        {
            "anonymous": false,
            "inputs": [
                {
                    "indexed": true,
                    "internalType": "address",
                    "name": "caller",
                    "type": "address"
                },
                {
                    "indexed": false,
                    "internalType": "uint256",
                    "name": "amount",
                    "type": "uint256"
                }
            ],
            "name": "CSOVTokensExchanged",
            "type": "event"
        },
        {
            "anonymous": false,
            "inputs": [
                {
                    "indexed": true,
                    "internalType": "address",
                    "name": "previousOwner",
                    "type": "address"
                },
                {
                    "indexed": true,
                    "internalType": "address",
                    "name": "newOwner",
                    "type": "address"
                }
            ],
            "name": "OwnershipTransferred",
            "type": "event"
        },
        {
            "anonymous": false,
            "inputs": [
                {
                    "indexed": true,
                    "internalType": "address",
                    "name": "receiver",
                    "type": "address"
                },
                {
                    "indexed": false,
                    "internalType": "uint256",
                    "name": "amount",
                    "type": "uint256"
                }
            ],
            "name": "SOVTransferred",
            "type": "event"
        },
        {
            "anonymous": false,
            "inputs": [
                {
                    "indexed": true,
                    "internalType": "address",
                    "name": "tokenOwner",
                    "type": "address"
                },
                {
                    "indexed": false,
                    "internalType": "address",
                    "name": "vesting",
                    "type": "address"
                },
                {
                    "indexed": false,
                    "internalType": "uint256",
                    "name": "cliff",
                    "type": "uint256"
                },
                {
                    "indexed": false,
                    "internalType": "uint256",
                    "name": "duration",
                    "type": "uint256"
                },
                {
                    "indexed": false,
                    "internalType": "uint256",
                    "name": "amount",
                    "type": "uint256"
                }
            ],
            "name": "TeamVestingCreated",
            "type": "event"
        },
        {
            "anonymous": false,
            "inputs": [
                {
                    "indexed": true,
                    "internalType": "address",
                    "name": "vesting",
                    "type": "address"
                },
                {
                    "indexed": false,
                    "internalType": "uint256",
                    "name": "amount",
                    "type": "uint256"
                }
            ],
            "name": "TokensStaked",
            "type": "event"
        },
        {
            "anonymous": false,
            "inputs": [
                {
                    "indexed": true,
                    "internalType": "address",
                    "name": "tokenOwner",
                    "type": "address"
                },
                {
                    "indexed": false,
                    "internalType": "address",
                    "name": "vesting",
                    "type": "address"
                },
                {
                    "indexed": false,
                    "internalType": "uint256",
                    "name": "cliff",
                    "type": "uint256"
                },
                {
                    "indexed": false,
                    "internalType": "uint256",
                    "name": "duration",
                    "type": "uint256"
                },
                {
                    "indexed": false,
                    "internalType": "uint256",
                    "name": "amount",
                    "type": "uint256"
                }
            ],
            "name": "VestingCreated",
            "type": "event"
        },
        {
            "constant": true,
            "inputs": [],
            "name": "CSOV_VESTING_CLIFF",
            "outputs": [
                {
                    "internalType": "uint256",
                    "name": "",
                    "type": "uint256"
                }
            ],
            "payable": false,
            "stateMutability": "view",
            "type": "function"
        },
        {
            "constant": true,
            "inputs": [],
            "name": "CSOV_VESTING_DURATION",
            "outputs": [
                {
                    "internalType": "uint256",
                    "name": "",
                    "type": "uint256"
                }
            ],
            "payable": false,
            "stateMutability": "view",
            "type": "function"
        },
        {
            "constant": true,
            "inputs": [
                {
                    "internalType": "uint256",
                    "name": "",
                    "type": "uint256"
                }
            ],
            "name": "CSOVtokens",
            "outputs": [
                {
                    "internalType": "address",
                    "name": "",
                    "type": "address"
                }
            ],
            "payable": false,
            "stateMutability": "view",
            "type": "function"
        },
        {
            "constant": true,
            "inputs": [],
            "name": "FOUR_WEEKS",
            "outputs": [
                {
                    "internalType": "uint256",
                    "name": "",
                    "type": "uint256"
                }
            ],
            "payable": false,
            "stateMutability": "view",
            "type": "function"
        },
        {
            "constant": true,
            "inputs": [],
            "name": "SOV",
            "outputs": [
                {
                    "internalType": "address",
                    "name": "",
                    "type": "address"
                }
            ],
            "payable": false,
            "stateMutability": "view",
            "type": "function"
        },
        {
            "constant": false,
            "inputs": [
                {
                    "internalType": "address",
                    "name": "_admin",
                    "type": "address"
                }
            ],
            "name": "addAdmin",
            "outputs": [],
            "payable": false,
            "stateMutability": "nonpayable",
            "type": "function"
        },
        {
            "constant": true,
            "inputs": [
                {
                    "internalType": "address",
                    "name": "",
                    "type": "address"
                }
            ],
            "name": "admins",
            "outputs": [
                {
                    "internalType": "bool",
                    "name": "",
                    "type": "bool"
                }
            ],
            "payable": false,
            "stateMutability": "view",
            "type": "function"
        },
        {
            "constant": true,
            "inputs": [
                {
                    "internalType": "address",
                    "name": "",
                    "type": "address"
                }
            ],
            "name": "blacklist",
            "outputs": [
                {
                    "internalType": "bool",
                    "name": "",
                    "type": "bool"
                }
            ],
            "payable": false,
            "stateMutability": "view",
            "type": "function"
        },
        {
            "constant": true,
            "inputs": [],
            "name": "budget",
            "outputs": [
                {
                    "internalType": "uint256",
                    "name": "",
                    "type": "uint256"
                }
            ],
            "payable": false,
            "stateMutability": "view",
            "type": "function"
        },
        {
            "constant": false,
            "inputs": [
                {
                    "internalType": "address",
                    "name": "_tokenOwner",
                    "type": "address"
                },
                {
                    "internalType": "uint256",
                    "name": "_amount",
                    "type": "uint256"
                },
                {
                    "internalType": "uint256",
                    "name": "_cliff",
                    "type": "uint256"
                },
                {
                    "internalType": "uint256",
                    "name": "_duration",
                    "type": "uint256"
                }
            ],
            "name": "createTeamVesting",
            "outputs": [],
            "payable": false,
            "stateMutability": "nonpayable",
            "type": "function"
        },
        {
            "constant": false,
            "inputs": [
                {
                    "internalType": "address",
                    "name": "_tokenOwner",
                    "type": "address"
                },
                {
                    "internalType": "uint256",
                    "name": "_amount",
                    "type": "uint256"
                },
                {
                    "internalType": "uint256",
                    "name": "_cliff",
                    "type": "uint256"
                },
                {
                    "internalType": "uint256",
                    "name": "_duration",
                    "type": "uint256"
                }
            ],
            "name": "createVesting",
            "outputs": [],
            "payable": false,
            "stateMutability": "nonpayable",
            "type": "function"
        },
        {
            "constant": false,
            "inputs": [],
            "name": "deposit",
            "outputs": [],
            "payable": true,
            "stateMutability": "payable",
            "type": "function"
        },
        {
            "constant": false,
            "inputs": [],
            "name": "exchangeAllCSOV",
            "outputs": [],
            "payable": false,
            "stateMutability": "nonpayable",
            "type": "function"
        },
        {
            "constant": true,
            "inputs": [],
            "name": "feeSharingProxy",
            "outputs": [
                {
                    "internalType": "address",
                    "name": "",
                    "type": "address"
                }
            ],
            "payable": false,
            "stateMutability": "view",
            "type": "function"
        },
        {
            "constant": true,
            "inputs": [
                {
                    "internalType": "address",
                    "name": "_tokenOwner",
                    "type": "address"
                }
            ],
            "name": "getTeamVesting",
            "outputs": [
                {
                    "internalType": "address",
                    "name": "",
                    "type": "address"
                }
            ],
            "payable": false,
            "stateMutability": "view",
            "type": "function"
        },
        {
            "constant": true,
            "inputs": [
                {
                    "internalType": "address",
                    "name": "_tokenOwner",
                    "type": "address"
                }
            ],
            "name": "getVesting",
            "outputs": [
                {
                    "internalType": "address",
                    "name": "",
                    "type": "address"
                }
            ],
            "payable": false,
            "stateMutability": "view",
            "type": "function"
        },
        {
            "constant": true,
            "inputs": [],
            "name": "isOwner",
            "outputs": [
                {
                    "internalType": "bool",
                    "name": "",
                    "type": "bool"
                }
            ],
            "payable": false,
            "stateMutability": "view",
            "type": "function"
        },
        {
            "constant": true,
            "inputs": [
                {
                    "internalType": "address",
                    "name": "",
                    "type": "address"
                }
            ],
            "name": "lockedAmount",
            "outputs": [
                {
                    "internalType": "uint256",
                    "name": "",
                    "type": "uint256"
                }
            ],
            "payable": false,
            "stateMutability": "view",
            "type": "function"
        },
        {
            "constant": true,
            "inputs": [],
            "name": "owner",
            "outputs": [
                {
                    "internalType": "address",
                    "name": "",
                    "type": "address"
                }
            ],
            "payable": false,
            "stateMutability": "view",
            "type": "function"
        },
        {
            "constant": true,
            "inputs": [],
            "name": "priceSats",
            "outputs": [
                {
                    "internalType": "uint256",
                    "name": "",
                    "type": "uint256"
                }
            ],
            "payable": false,
            "stateMutability": "view",
            "type": "function"
        },
        {
            "constant": true,
            "inputs": [
                {
                    "internalType": "address",
                    "name": "",
                    "type": "address"
                }
            ],
            "name": "processedList",
            "outputs": [
                {
                    "internalType": "bool",
                    "name": "",
                    "type": "bool"
                }
            ],
            "payable": false,
            "stateMutability": "view",
            "type": "function"
        },
        {
            "constant": false,
            "inputs": [],
            "name": "reImburse",
            "outputs": [],
            "payable": false,
            "stateMutability": "nonpayable",
            "type": "function"
        },
        {
            "constant": false,
            "inputs": [
                {
                    "internalType": "address",
                    "name": "_admin",
                    "type": "address"
                }
            ],
            "name": "removeAdmin",
            "outputs": [],
            "payable": false,
            "stateMutability": "nonpayable",
            "type": "function"
        },
        {
            "constant": false,
            "inputs": [],
            "name": "renounceOwnership",
            "outputs": [],
            "payable": false,
            "stateMutability": "nonpayable",
            "type": "function"
        },
        {
            "constant": false,
            "inputs": [
                {
                    "internalType": "address",
                    "name": "_account",
                    "type": "address"
                },
                {
                    "internalType": "bool",
                    "name": "_blacklisted",
                    "type": "bool"
                }
            ],
            "name": "setBlacklistFlag",
            "outputs": [],
            "payable": false,
            "stateMutability": "nonpayable",
            "type": "function"
        },
        {
            "constant": false,
            "inputs": [
                {
                    "internalType": "address[]",
                    "name": "_CSOVtokens",
                    "type": "address[]"
                }
            ],
            "name": "setCSOVtokens",
            "outputs": [],
            "payable": false,
            "stateMutability": "nonpayable",
            "type": "function"
        },
        {
            "constant": false,
            "inputs": [
                {
                    "internalType": "address",
                    "name": "_account",
                    "type": "address"
                },
                {
                    "internalType": "uint256",
                    "name": "_amount",
                    "type": "uint256"
                }
            ],
            "name": "setLockedAmount",
            "outputs": [],
            "payable": false,
            "stateMutability": "nonpayable",
            "type": "function"
        },
        {
            "constant": false,
            "inputs": [
                {
                    "internalType": "address",
                    "name": "_vestingFactory",
                    "type": "address"
                }
            ],
            "name": "setVestingFactory",
            "outputs": [],
            "payable": false,
            "stateMutability": "nonpayable",
            "type": "function"
        },
        {
            "constant": false,
            "inputs": [
                {
                    "internalType": "address",
                    "name": "_vesting",
                    "type": "address"
                },
                {
                    "internalType": "uint256",
                    "name": "_amount",
                    "type": "uint256"
                }
            ],
            "name": "stakeTokens",
            "outputs": [],
            "payable": false,
            "stateMutability": "nonpayable",
            "type": "function"
        },
        {
            "constant": true,
            "inputs": [],
            "name": "staking",
            "outputs": [
                {
                    "internalType": "address",
                    "name": "",
                    "type": "address"
                }
            ],
            "payable": false,
            "stateMutability": "view",
            "type": "function"
        },
        {
            "constant": false,
            "inputs": [
                {
                    "internalType": "address",
                    "name": "newOwner",
                    "type": "address"
                }
            ],
            "name": "transferOwnership",
            "outputs": [],
            "payable": false,
            "stateMutability": "nonpayable",
            "type": "function"
        },
        {
            "constant": false,
            "inputs": [
                {
                    "internalType": "address",
                    "name": "_receiver",
                    "type": "address"
                },
                {
                    "internalType": "uint256",
                    "name": "_amount",
                    "type": "uint256"
                }
            ],
            "name": "transferSOV",
            "outputs": [],
            "payable": false,
            "stateMutability": "nonpayable",
            "type": "function"
        },
        {
            "constant": true,
            "inputs": [
                {
                    "internalType": "address",
                    "name": "",
                    "type": "address"
                },
                {
                    "internalType": "uint256",
                    "name": "",
                    "type": "uint256"
                }
            ],
            "name": "vestingContracts",
            "outputs": [
                {
                    "internalType": "address",
                    "name": "",
                    "type": "address"
                }
            ],
            "payable": false,
            "stateMutability": "view",
            "type": "function"
        },
        {
            "constant": true,
            "inputs": [],
            "name": "vestingFactory",
            "outputs": [
                {
                    "internalType": "contract IVestingFactory",
                    "name": "",
                    "type": "address"
                }
            ],
            "payable": false,
            "stateMutability": "view",
            "type": "function"
        },
        {
            "constant": true,
            "inputs": [],
            "name": "vestingOwner",
            "outputs": [
                {
                    "internalType": "address",
                    "name": "",
                    "type": "address"
                }
            ],
            "payable": false,
            "stateMutability": "view",
            "type": "function"
        },
        {
            "constant": false,
            "inputs": [
                {
                    "internalType": "address payable",
                    "name": "to",
                    "type": "address"
                }
            ],
            "name": "withdrawAll",
            "outputs": [],
            "payable": false,
            "stateMutability": "nonpayable",
            "type": "function"
        }
    ],
    "bytecode": "0x60806040523480156200001157600080fd5b50604051620025e1380380620025e1833981810160405260e08110156200003757600080fd5b815160208301516040808501805191519395929483019291846401000000008211156200006357600080fd5b9083019060208201858111156200007957600080fd5b82518660208202830111640100000000821117156200009757600080fd5b82525081516020918201928201910280838360005b83811015620000c6578181015183820152602001620000ac565b505050509190910160409081526020830151908301516060840151608090940151919550935090506000620001036001600160e01b036200034216565b600080546001600160a01b0319166001600160a01b0383169081178255604051929350917f8be0079c531659141344cd1fd0a4f28419497f9722a3daafe3b4186f6b6457e0908290a3506001600160a01b038616620001a9576040805162461bcd60e51b815260206004820152601360248201527f534f56206164647265737320696e76616c696400000000000000000000000000604482015290519081900360640190fd5b6001600160a01b03831662000205576040805162461bcd60e51b815260206004820152601760248201527f7374616b696e67206164647265737320696e76616c6964000000000000000000604482015290519081900360640190fd5b6001600160a01b03821662000261576040805162461bcd60e51b815260206004820152601f60248201527f66656553686172696e6750726f7879206164647265737320696e76616c696400604482015290519081900360640190fd5b6001600160a01b038116620002bd576040805162461bcd60e51b815260206004820152601c60248201527f76657374696e674f776e6572206164647265737320696e76616c696400000000604482015290519081900360640190fd5b620002d1876001600160e01b036200034716565b620002e5856001600160e01b03620003c516565b600280546001600160a01b039788166001600160a01b031991821617909155600494909455600580549387169385169390931790925560068054918616918416919091179055600780549190941691161790915550620005039050565b335b90565b6001600160a01b038116620003a3576040805162461bcd60e51b815260206004820152601e60248201527f76657374696e67466163746f7279206164647265737320696e76616c69640000604482015290519081900360640190fd5b600180546001600160a01b0319166001600160a01b0392909216919091179055565b60005b8151811015620004585760006001600160a01b0316828281518110620003ea57fe5b60200260200101516001600160a01b031614156200044f576040805162461bcd60e51b815260206004820152601460248201527f43534f56206164647265737320696e76616c6964000000000000000000000000604482015290519081900360640190fd5b600101620003c8565b5080516200046e90600390602084019062000472565b5050565b828054828255906000526020600020908101928215620004ca579160200282015b82811115620004ca57825182546001600160a01b0319166001600160a01b0390911617825560209092019160019091019062000493565b50620004d8929150620004dc565b5090565b6200034491905b80821115620004d85780546001600160a01b0319168155600101620004e3565b6120ce80620005136000396000f3fe60806040526004361061020f5760003560e01c8063a153e70811610118578063d0e30db0116100a0578063f2fde38b1161006f578063f2fde38b1461078c578063f60826ee146107bf578063f6d6189e146105da578063f9f92be4146107d4578063fa09e630146108075761020f565b8063d0e30db0146106fd578063df8bd74714610705578063ed01bf291461073e578063f2becf17146107535761020f565b8063bd8f732b116100e7578063bd8f732b14610604578063c627330914610649578063c680c0b71461065e578063c810a3e314610697578063cc49ede7146106ca5761020f565b8063a153e70814610592578063b33f914a146105c5578063b4ebc041146105da578063bd7b5908146105ef5761020f565b80636a26b57f1161019b57806381d2e4bb1161016a57806381d2e4bb1461045357806382999a391461048e5780638da5cb5b1461053e5780638f32d59b1461055357806399336b36146105685761020f565b80636a26b57f146103bd57806370480275146103d2578063715018a61461040557806379a83f5a1461041a5761020f565b806335f52572116101e257806335f5257214610306578063377220fd1461031b578063429b62e51461034e5780634cf088d914610381578063661f2161146103965761020f565b80630665a06f1461021457806308dcb3601461025b5780631785f53c1461028c5780632eee57fa146102bf575b600080fd5b34801561022057600080fd5b506102596004803603608081101561023757600080fd5b506001600160a01b03813516906020810135906040810135906060013561083a565b005b34801561026757600080fd5b50610270610908565b604080516001600160a01b039092168252519081900360200190f35b34801561029857600080fd5b50610259600480360360208110156102af57600080fd5b50356001600160a01b0316610917565b3480156102cb57600080fd5b506102f2600480360360208110156102e257600080fd5b50356001600160a01b03166109b6565b604080519115158252519081900360200190f35b34801561031257600080fd5b506102596109cb565b34801561032757600080fd5b506102596004803603602081101561033e57600080fd5b50356001600160a01b0316610ca3565b34801561035a57600080fd5b506102f26004803603602081101561037157600080fd5b50356001600160a01b0316610cf6565b34801561038d57600080fd5b50610270610d0b565b3480156103a257600080fd5b506103ab610d1a565b60408051918252519081900360200190f35b3480156103c957600080fd5b50610270610d20565b3480156103de57600080fd5b50610259600480360360208110156103f557600080fd5b50356001600160a01b0316610d2f565b34801561041157600080fd5b50610259610dd1565b34801561042657600080fd5b506102596004803603604081101561043d57600080fd5b506001600160a01b038135169060200135610e62565b34801561045f57600080fd5b506102596004803603604081101561047657600080fd5b506001600160a01b038135169060200135151561108a565b34801561049a57600080fd5b50610259600480360360208110156104b157600080fd5b8101906020810181356401000000008111156104cc57600080fd5b8201836020820111156104de57600080fd5b8035906020019184602083028401116401000000008311171561050057600080fd5b919080806020026020016040519081016040528093929190818152602001838360200280828437600092019190915250929550611151945050505050565b34801561054a57600080fd5b506102706111a1565b34801561055f57600080fd5b506102f26111b1565b34801561057457600080fd5b506102706004803603602081101561058b57600080fd5b50356111d5565b34801561059e57600080fd5b506103ab600480360360208110156105b557600080fd5b50356001600160a01b03166111fc565b3480156105d157600080fd5b506103ab61120e565b3480156105e657600080fd5b506103ab611216565b3480156105fb57600080fd5b5061027061121d565b34801561061057600080fd5b506102596004803603608081101561062757600080fd5b506001600160a01b03813516906020810135906040810135906060013561122c565b34801561065557600080fd5b506102596112fa565b34801561066a57600080fd5b506102596004803603604081101561068157600080fd5b506001600160a01b0381351690602001356114d7565b3480156106a357600080fd5b50610270600480360360208110156106ba57600080fd5b50356001600160a01b0316611681565b3480156106d657600080fd5b50610270600480360360208110156106ed57600080fd5b50356001600160a01b03166116bc565b6102596116dc565b34801561071157600080fd5b506102596004803603604081101561072857600080fd5b506001600160a01b0381351690602001356116de565b34801561074a57600080fd5b506103ab6117d9565b34801561075f57600080fd5b506102706004803603604081101561077657600080fd5b506001600160a01b0381351690602001356117dd565b34801561079857600080fd5b50610259600480360360208110156107af57600080fd5b50356001600160a01b0316611803565b3480156107cb57600080fd5b50610270611853565b3480156107e057600080fd5b506102f2600480360360208110156107f757600080fd5b50356001600160a01b0316611862565b34801561081357600080fd5b506102596004803603602081101561082a57600080fd5b50356001600160a01b0316611877565b6108426111b1565b8061085c5750336000908152600c602052604090205460ff165b61089c576040805162461bcd60e51b815260206004820152600c60248201526b1d5b985d5d1a1bdc9a5e995960a21b604482015290519081900360640190fd5b60006108a98584846118f7565b604080516001600160a01b03808416825260208201879052818301869052606082018890529151929350908716917f66a644acab4366c0125120794335c517775a2b44b4315b5d90f0d163dae07fea9181900360800190a25050505050565b6002546001600160a01b031681565b61091f6111b1565b61095e576040805162461bcd60e51b8152602060048201819052602482015260008051602061207a833981519152604482015290519081900360640190fd5b6001600160a01b0381166000818152600c6020908152604091829020805460ff19169055815192835290517fa3b62bc36326052d97ea62d63c3d60308ed4c3ea8ac079dd8499f1e9c4f80c0f9281900390910190a150565b60096020526000908152604090205460ff1681565b3360009081526009602052604090205460ff1615610a1a5760405162461bcd60e51b81526004018080602001828103825260218152602001806120386021913960400191505060405180910390fd5b336000908152600a602052604090205460ff1615610a75576040805162461bcd60e51b81526020600482015260136024820152721059191c995cdcc8189b1858dadb1a5cdd1959606a1b604482015290519081900360640190fd5b6000805b600354811015610b2f57600060038281548110610a9257fe5b6000918252602080832090910154604080516370a0823160e01b815233600482015290516001600160a01b03909216945084926370a0823192602480840193829003018186803b158015610ae557600080fd5b505afa158015610af9573d6000803e3d6000fd5b505050506040513d6020811015610b0f57600080fd5b50519050610b23848263ffffffff611a4316565b93505050600101610a79565b50336000908152600b60205260409020548111610b88576040805162461bcd60e51b81526020600482015260126024820152713437b63232b9103430b99037379021a9a7ab60711b604482015290519081900360640190fd5b336000908152600b602090815260408083205460099092528220805460ff19166001179055600454920391610bda906305f5e10090610bce90859063ffffffff611aa616565b9063ffffffff611aff16565b905080471015610c31576040805162461bcd60e51b815260206004820152601d60248201527f4e6f7420656e6f7567682066756e647320746f207265696d6275727365000000604482015290519081900360640190fd5b604051339082156108fc029083906000818181858888f19350505050158015610c5e573d6000803e3d6000fd5b50604080513381526020810184905280820183905290517f6446d397a910984b01aa4d9df127ff6d89fc789371b7d2cad921fe28a3bc46359181900360600190a15050565b610cab6111b1565b610cea576040805162461bcd60e51b8152602060048201819052602482015260008051602061207a833981519152604482015290519081900360640190fd5b610cf381611b41565b50565b600c6020526000908152604090205460ff1681565b6005546001600160a01b031681565b60045481565b6006546001600160a01b031681565b610d376111b1565b610d76576040805162461bcd60e51b8152602060048201819052602482015260008051602061207a833981519152604482015290519081900360640190fd5b6001600160a01b0381166000818152600c6020908152604091829020805460ff19166001179055815192835290517f44d6d25963f097ad14f29f06854a01f575648a1ef82f30e562ccd3889717e3399281900390910190a150565b610dd96111b1565b610e18576040805162461bcd60e51b8152602060048201819052602482015260008051602061207a833981519152604482015290519081900360640190fd5b600080546040516001600160a01b03909116907f8be0079c531659141344cd1fd0a4f28419497f9722a3daafe3b4186f6b6457e0908390a3600080546001600160a01b0319169055565b610e6a6111b1565b80610e845750336000908152600c602052604090205460ff165b610ec4576040805162461bcd60e51b815260206004820152600c60248201526b1d5b985d5d1a1bdc9a5e995960a21b604482015290519081900360640190fd5b6001600160a01b038216610f1f576040805162461bcd60e51b815260206004820152601760248201527f76657374696e67206164647265737320696e76616c6964000000000000000000604482015290519081900360640190fd5b60008111610f65576040805162461bcd60e51b815260206004820152600e60248201526d185b5bdd5b9d081a5b9d985b1a5960921b604482015290519081900360640190fd5b6002546040805163095ea7b360e01b81526001600160a01b038581166004830152602482018590529151919092169163095ea7b39160448083019260209291908290030181600087803b158015610fbb57600080fd5b505af1158015610fcf573d6000803e3d6000fd5b505050506040513d6020811015610fe557600080fd5b505060408051637547c7a360e01b81526004810183905290516001600160a01b03841691637547c7a391602480830192600092919082900301818387803b15801561102f57600080fd5b505af1158015611043573d6000803e3d6000fd5b50506040805184815290516001600160a01b03861693507fb539ca1e5c8d398ddf1c41c30166f33404941683be4683319b57669a93dad4ef92509081900360200190a25050565b6110926111b1565b6110d1576040805162461bcd60e51b8152602060048201819052602482015260008051602061207a833981519152604482015290519081900360640190fd5b6001600160a01b038216611126576040805162461bcd60e51b81526020600482015260176024820152761858d8dbdd5b9d081859191c995cdcc81a5b9d985b1a59604a1b604482015290519081900360640190fd5b6001600160a01b03919091166000908152600a60205260409020805460ff1916911515919091179055565b6111596111b1565b611198576040805162461bcd60e51b8152602060048201819052602482015260008051602061207a833981519152604482015290519081900360640190fd5b610cf381611bbe565b6000546001600160a01b03165b90565b600080546001600160a01b03166111c6611c58565b6001600160a01b031614905090565b600381815481106111e257fe5b6000918252602090912001546001600160a01b0316905081565b600b6020526000908152604090205481565b630171240081565b6224ea0081565b6007546001600160a01b031681565b6112346111b1565b8061124e5750336000908152600c602052604090205460ff165b61128e576040805162461bcd60e51b815260206004820152600c60248201526b1d5b985d5d1a1bdc9a5e995960a21b604482015290519081900360640190fd5b600061129b858484611c5c565b604080516001600160a01b03808416825260208201879052818301869052606082018890529151929350908716917f6f0b5adf3d5b3548ea2b06e9be6e7f72e125253fd8c948f6ef4024be653c1c179181900360800190a25050505050565b3360009081526009602052604090205460ff16156113495760405162461bcd60e51b81526004018080602001828103825260218152602001806120386021913960400191505060405180910390fd5b336000908152600a602052604090205460ff16156113a4576040805162461bcd60e51b81526020600482015260136024820152721059191c995cdcc8189b1858dadb1a5cdd1959606a1b604482015290519081900360640190fd5b336000908152600960205260408120805460ff19166001179055805b600354811015611467576000600382815481106113d957fe5b6000918252602080832090910154604080516370a0823160e01b815233600482015290516001600160a01b03909216945084926370a0823192602480840193829003018186803b15801561142c57600080fd5b505afa158015611440573d6000803e3d6000fd5b505050506040513d602081101561145657600080fd5b5051939093019250506001016113c0565b50336000908152600b602052604090205481116114bc576040805162461bcd60e51b815260206004820152600e60248201526d185b5bdd5b9d081a5b9d985b1a5960921b604482015290519081900360640190fd5b336000908152600b60205260409020549003610cf381611d14565b6114df6111b1565b61151e576040805162461bcd60e51b8152602060048201819052602482015260008051602061207a833981519152604482015290519081900360640190fd5b6001600160a01b038216611579576040805162461bcd60e51b815260206004820152601860248201527f7265636569766572206164647265737320696e76616c69640000000000000000604482015290519081900360640190fd5b806115bc576040805162461bcd60e51b815260206004820152600e60248201526d185b5bdd5b9d081a5b9d985b1a5960921b604482015290519081900360640190fd5b6002546040805163a9059cbb60e01b81526001600160a01b038581166004830152602482018590529151919092169163a9059cbb9160448083019260209291908290030181600087803b15801561161257600080fd5b505af1158015611626573d6000803e3d6000fd5b505050506040513d602081101561163c57600080fd5b50506040805182815290516001600160a01b038416917fe1b0ada289bf82fb641c8c1e1c78f820fae44e8f845760725cdeb09167a289ad919081900360200190a25050565b6001600160a01b038116600090815260086020526040812081805b81526020810191909152604001600020546001600160a01b031692915050565b6001600160a01b038116600090815260086020526040812081600161169c565b565b6116e66111b1565b611725576040805162461bcd60e51b8152602060048201819052602482015260008051602061207a833981519152604482015290519081900360640190fd5b6001600160a01b03821661177a576040805162461bcd60e51b81526020600482015260176024820152761858d8dbdd5b9d081859191c995cdcc81a5b9d985b1a59604a1b604482015290519081900360640190fd5b806117bd576040805162461bcd60e51b815260206004820152600e60248201526d185b5bdd5b9d081a5b9d985b1a5960921b604482015290519081900360640190fd5b6001600160a01b039091166000908152600b6020526040902055565b4790565b60086020908152600092835260408084209091529082529020546001600160a01b031681565b61180b6111b1565b61184a576040805162461bcd60e51b8152602060048201819052602482015260008051602061207a833981519152604482015290519081900360640190fd5b610cf381611e46565b6001546001600160a01b031681565b600a6020526000908152604090205460ff1681565b61187f6111b1565b6118be576040805162461bcd60e51b8152602060048201819052602482015260008051602061207a833981519152604482015290519081900360640190fd5b6040516001600160a01b038216904780156108fc02916000818181858888f193505050501580156118f3573d6000803e3d6000fd5b5050565b6001600160a01b038381166000908152600860209081526040808320600180855292528220549192909116611a155760015460025460055460065460408051637d2fbb8f60e11b81526001600160a01b039485166004820152928416602484015289841660448401819052606484018a90526084840189905291841660a484015260c483019190915251600093929092169163fa5f771e9160e48082019260209290919082900301818787803b1580156119b057600080fd5b505af11580156119c4573d6000803e3d6000fd5b505050506040513d60208110156119da57600080fd5b50516001600160a01b038781166000908152600860209081526040808320878452909152902080546001600160a01b03191691909216179055505b6001600160a01b03948516600090815260086020908152604080832093835292905220549093169392505050565b600082820183811015611a9d576040805162461bcd60e51b815260206004820152601b60248201527f536166654d6174683a206164646974696f6e206f766572666c6f770000000000604482015290519081900360640190fd5b90505b92915050565b600082611ab557506000611aa0565b82820282848281611ac257fe5b0414611a9d5760405162461bcd60e51b81526004018080602001828103825260218152602001806120596021913960400191505060405180910390fd5b6000611a9d83836040518060400160405280601a81526020017f536166654d6174683a206469766973696f6e206279207a65726f000000000000815250611ee6565b6001600160a01b038116611b9c576040805162461bcd60e51b815260206004820152601e60248201527f76657374696e67466163746f7279206164647265737320696e76616c69640000604482015290519081900360640190fd5b600180546001600160a01b0319166001600160a01b0392909216919091179055565b60005b8151811015611c445760006001600160a01b0316828281518110611be157fe5b60200260200101516001600160a01b03161415611c3c576040805162461bcd60e51b815260206004820152601460248201527310d4d3d5881859191c995cdcc81a5b9d985b1a5960621b604482015290519081900360640190fd5b600101611bc1565b5080516118f3906003906020840190611f88565b3390565b6001600160a01b0383811660009081526008602090815260408083208380529091528120549091829116611a155760015460025460055460065460075460408051630546344f60e41b81526001600160a01b03958616600482015293851660248501528a85166044850152606484018a90526084840189905291841660a4840152831660c483015251600093929092169163546344f09160e48082019260209290919082900301818787803b1580156119b057600080fd5b6000611d28336224ea0063017124006118f7565b6002546040805163095ea7b360e01b81526001600160a01b03808516600483015260248201879052915193945091169163095ea7b3916044808201926020929091908290030181600087803b158015611d8057600080fd5b505af1158015611d94573d6000803e3d6000fd5b505050506040513d6020811015611daa57600080fd5b505060408051637547c7a360e01b81526004810184905290516001600160a01b03831691637547c7a391602480830192600092919082900301818387803b158015611df457600080fd5b505af1158015611e08573d6000803e3d6000fd5b50506040805185815290513393507f7a97172500d57114068a2a8f1f632999070720324825e2c5b57e27219b7bf18f92509081900360200190a25050565b6001600160a01b038116611e8b5760405162461bcd60e51b81526004018080602001828103825260268152602001806120126026913960400191505060405180910390fd5b600080546040516001600160a01b03808516939216917f8be0079c531659141344cd1fd0a4f28419497f9722a3daafe3b4186f6b6457e091a3600080546001600160a01b0319166001600160a01b0392909216919091179055565b60008183611f725760405162461bcd60e51b81526004018080602001828103825283818151815260200191508051906020019080838360005b83811015611f37578181015183820152602001611f1f565b50505050905090810190601f168015611f645780820380516001836020036101000a031916815260200191505b509250505060405180910390fd5b506000838581611f7e57fe5b0495945050505050565b828054828255906000526020600020908101928215611fdd579160200282015b82811115611fdd57825182546001600160a01b0319166001600160a01b03909116178255602090920191600190910190611fa8565b50611fe9929150611fed565b5090565b6111ae91905b80821115611fe95780546001600160a01b0319168155600101611ff356fe4f776e61626c653a206e6577206f776e657220697320746865207a65726f2061646472657373416464726573732063616e6e6f742062652070726f636573736564207477696365536166654d6174683a206d756c7469706c69636174696f6e206f766572666c6f774f776e61626c653a2063616c6c6572206973206e6f7420746865206f776e6572a265627a7a72315820e800a422ce253d1a2f8e7f05c12a4b60e7201c1c3a273bd693d5cf4bf9aa408764736f6c63430005110032",
    "linkReferences": {},
    "deployedLinkReferences": {}
}