{
    "_format": "hh-sol-artifact-1",
    "contractName": "Vesting",
    "sourceName": "contracts/fish/governance/Vesting/Vesting.sol",
    "abi": [
        {
            "inputs": [
                {
                    "internalType": "address",
                    "name": "_logic",
                    "type": "address"
                },
                {
                    "internalType": "address",
                    "name": "_SOV",
                    "type": "address"
                },
                {
                    "internalType": "address",
                    "name": "_stakingAddress",
                    "type": "address"
                },
                {
                    "internalType": "address",
                    "name": "_tokenOwner",
                    "type": "address"
                },
                {
                    "internalType": "uint256",
                    "name": "_cliff",
                    "type": "uint256"
                },
                {
                    "internalType": "uint256",
                    "name": "_duration",
                    "type": "uint256"
                },
                {
                    "internalType": "address",
                    "name": "_feeSharingProxy",
                    "type": "address"
                }
            ],
            "payable": false,
            "stateMutability": "nonpayable",
            "type": "constructor"
        },
        {
            "anonymous": false,
            "inputs": [
                {
                    "indexed": true,
                    "internalType": "address",
                    "name": "_oldImplementation",
                    "type": "address"
                },
                {
                    "indexed": true,
                    "internalType": "address",
                    "name": "_newImplementation",
                    "type": "address"
                }
            ],
            "name": "ImplementationChanged",
            "type": "event"
        },
        {
            "anonymous": false,
            "inputs": [
                {
                    "indexed": true,
                    "internalType": "address",
                    "name": "_oldOwner",
                    "type": "address"
                },
                {
                    "indexed": true,
                    "internalType": "address",
                    "name": "_newOwner",
                    "type": "address"
                }
            ],
            "name": "OwnershipTransferred",
            "type": "event"
        },
        {
            "payable": true,
            "stateMutability": "payable",
            "type": "fallback"
        },
        {
            "constant": true,
            "inputs": [],
            "name": "SOV",
            "outputs": [
                {
                    "internalType": "contract IERC20",
                    "name": "",
                    "type": "address"
                }
            ],
            "payable": false,
            "stateMutability": "view",
            "type": "function"
        },
        {
            "constant": true,
            "inputs": [],
            "name": "cliff",
            "outputs": [
                {
                    "internalType": "uint256",
                    "name": "",
                    "type": "uint256"
                }
            ],
            "payable": false,
            "stateMutability": "view",
            "type": "function"
        },
        {
            "constant": true,
            "inputs": [],
            "name": "duration",
            "outputs": [
                {
                    "internalType": "uint256",
                    "name": "",
                    "type": "uint256"
                }
            ],
            "payable": false,
            "stateMutability": "view",
            "type": "function"
        },
        {
            "constant": true,
            "inputs": [],
            "name": "endDate",
            "outputs": [
                {
                    "internalType": "uint256",
                    "name": "",
                    "type": "uint256"
                }
            ],
            "payable": false,
            "stateMutability": "view",
            "type": "function"
        },
        {
            "constant": true,
            "inputs": [],
            "name": "feeSharingProxy",
            "outputs": [
                {
                    "internalType": "contract IFeeSharingProxy",
                    "name": "",
                    "type": "address"
                }
            ],
            "payable": false,
            "stateMutability": "view",
            "type": "function"
        },
        {
            "constant": true,
            "inputs": [],
            "name": "getImplementation",
            "outputs": [
                {
                    "internalType": "address",
                    "name": "_implementation",
                    "type": "address"
                }
            ],
            "payable": false,
            "stateMutability": "view",
            "type": "function"
        },
        {
            "constant": true,
            "inputs": [],
            "name": "getProxyOwner",
            "outputs": [
                {
                    "internalType": "address",
                    "name": "_owner",
                    "type": "address"
                }
            ],
            "payable": false,
            "stateMutability": "view",
            "type": "function"
        },
        {
            "constant": false,
            "inputs": [
                {
                    "internalType": "address",
                    "name": "receiver",
                    "type": "address"
                }
            ],
            "name": "governanceWithdrawTokens",
            "outputs": [],
            "payable": false,
            "stateMutability": "nonpayable",
            "type": "function"
        },
        {
            "constant": true,
            "inputs": [],
            "name": "isOwner",
            "outputs": [
                {
                    "internalType": "bool",
                    "name": "",
                    "type": "bool"
                }
            ],
            "payable": false,
            "stateMutability": "view",
            "type": "function"
        },
        {
            "constant": true,
            "inputs": [],
            "name": "owner",
            "outputs": [
                {
                    "internalType": "address",
                    "name": "",
                    "type": "address"
                }
            ],
            "payable": false,
            "stateMutability": "view",
            "type": "function"
        },
        {
            "constant": false,
            "inputs": [],
            "name": "renounceOwnership",
            "outputs": [],
            "payable": false,
            "stateMutability": "nonpayable",
            "type": "function"
        },
        {
            "constant": true,
            "inputs": [],
            "name": "staking",
            "outputs": [
                {
                    "internalType": "contract Staking",
                    "name": "",
                    "type": "address"
                }
            ],
            "payable": false,
            "stateMutability": "view",
            "type": "function"
        },
        {
            "constant": true,
            "inputs": [],
            "name": "startDate",
            "outputs": [
                {
                    "internalType": "uint256",
                    "name": "",
                    "type": "uint256"
                }
            ],
            "payable": false,
            "stateMutability": "view",
            "type": "function"
        },
        {
            "constant": true,
            "inputs": [],
            "name": "tokenOwner",
            "outputs": [
                {
                    "internalType": "address",
                    "name": "",
                    "type": "address"
                }
            ],
            "payable": false,
            "stateMutability": "view",
            "type": "function"
        },
        {
            "constant": false,
            "inputs": [
                {
                    "internalType": "address",
                    "name": "newOwner",
                    "type": "address"
                }
            ],
            "name": "transferOwnership",
            "outputs": [],
            "payable": false,
            "stateMutability": "nonpayable",
            "type": "function"
        }
    ],
    "bytecode": "0x60806040523480156200001157600080fd5b5060405162001012380380620010128339810160408190526200003491620003fd565b868686868686866000620000506001600160e01b036200029216565b600080546001600160a01b0319166001600160a01b03831690811782556040519293509160008051602062000ff2833981519152908290a3506200009d336001600160e01b036200029616565b6001600160a01b038616620000cf5760405162461bcd60e51b8152600401620000c690620007ea565b60405180910390fd5b6001600160a01b038516620000f85760405162461bcd60e51b8152600401620000c690620007d8565b6001600160a01b038416620001215760405162461bcd60e51b8152600401620000c69062000790565b82821015620001445760405162461bcd60e51b8152600401620000c6906200077e565b6001600160a01b0381166200016d5760405162461bcd60e51b8152600401620000c690620007b4565b62000181876001600160e01b036200032016565b600180546001600160a01b038089166001600160a01b0319928316179092556002805488841692169190911790819055604080516358b925a360e11b81529051919092169163b1724b46916004808301926020929190829003018186803b158015620001ec57600080fd5b505afa15801562000201573d6000803e3d6000fd5b505050506040513d601f19601f82011682018060405250620002279190810190620004a8565b821115620002495760405162461bcd60e51b8152600401620000c6906200076c565b600380546001600160a01b039586166001600160a01b03199182161790915560059390935560069190915560048054919093169116179055506200084498505050505050505050565b3390565b6001600160a01b038116620002bf5760405162461bcd60e51b8152600401620000c690620007c6565b6001600160a01b038116620002dc6001600160e01b03620003ab16565b6001600160a01b031660008051602062000ff283398151915260405160405180910390a3600060405162000310906200075f565b6040519081900390209190915550565b6001600160a01b038116620003495760405162461bcd60e51b8152600401620000c690620007a2565b6001600160a01b038116620003666001600160e01b03620003cc16565b6001600160a01b03167fcfbf4028add9318bbf716f08c348595afb063b0e9feed1f86d33681a4b3ed4d360405160405180910390a36000604051620003109062000752565b600080604051620003bc906200075f565b6040519081900390205492915050565b600080604051620003bc9062000752565b8051620003ea816200081f565b92915050565b8051620003ea8162000839565b600080600080600080600060e0888a0312156200041957600080fd5b6000620004278a8a620003dd565b97505060206200043a8a828b01620003dd565b96505060406200044d8a828b01620003dd565b9550506060620004608a828b01620003dd565b9450506080620004738a828b01620003f0565b93505060a0620004868a828b01620003f0565b92505060c0620004998a828b01620003dd565b91505092959891949750929550565b600060208284031215620004bb57600080fd5b6000620004c98484620003f0565b949350505050565b6000620004e0602883620007fc565b7f6475726174696f6e206d6179206e6f742065786365656420746865206d617820815267323ab930ba34b7b760c11b602082015260400192915050565b60006200052c603283620007fc565b7f6475726174696f6e206d75737420626520626967676572207468616e206f722081527132b8bab0b6103a37903a34329031b634b33360711b602082015260400192915050565b600062000582601b83620007fc565b7f746f6b656e206f776e6572206164647265737320696e76616c69640000000000815260200192915050565b6000620005bd602983620007fc565b7f50726f78793a3a736574496d706c656d656e746174696f6e3a20696e76616c6981526864206164647265737360b81b602082015260400192915050565b60006200060a60128362000805565b7135b2bc9734b6b83632b6b2b73a30ba34b7b760711b815260120192915050565b60006200063a600f8362000805565b6e35b2bc97383937bc3c9737bbb732b960891b8152600f0192915050565b600062000667601f83620007fc565b7f66656553686172696e6750726f7879206164647265737320696e76616c696400815260200192915050565b6000620006a2602583620007fc565b7f50726f78793a3a73657450726f78794f776e65723a20696e76616c6964206164815264647265737360d81b602082015260400192915050565b6000620006eb601783620007fc565b7f7374616b696e67206164647265737320696e76616c6964000000000000000000815260200192915050565b600062000726601383620007fc565b7f534f56206164647265737320696e76616c696400000000000000000000000000815260200192915050565b6000620003ea82620005fb565b6000620003ea826200062b565b60208082528101620003ea81620004d1565b60208082528101620003ea816200051d565b60208082528101620003ea8162000573565b60208082528101620003ea81620005ae565b60208082528101620003ea8162000658565b60208082528101620003ea8162000693565b60208082528101620003ea81620006dc565b60208082528101620003ea8162000717565b90815260200190565b919050565b60006001600160a01b038216620003ea565b90565b6200082a816200080a565b81146200083657600080fd5b50565b6200082a816200081c565b61079e80620008546000396000f3fe6080604052600436106100e85760003560e01c8063715018a61161008a578063a3e6761011610059578063a3e6761014610279578063aaf10f421461028e578063c24a0f8b146102a3578063f2fde38b146102b8576100e8565b8063715018a61461020b57806378f24bc6146102225780638da5cb5b146102425780638f32d59b14610257576100e8565b806313d033c0116100c657806313d033c0146101aa5780631ab7710d146101bf5780634cf088d9146101e15780636a26b57f146101f6576100e8565b806308dcb360146101485780630b97bc86146101735780630fb5a6b414610195575b60006100f26102d8565b90506001600160a01b0381166101235760405162461bcd60e51b815260040161011a906106f1565b60405180910390fd5b60405136600082376000803683855af43d806000843e818015610144578184f35b8184fd5b34801561015457600080fd5b5061015d6102f7565b60405161016a91906106b3565b60405180910390f35b34801561017f57600080fd5b50610188610306565b60405161016a9190610701565b3480156101a157600080fd5b5061018861030c565b3480156101b657600080fd5b50610188610312565b3480156101cb57600080fd5b506101d4610318565b60405161016a9190610697565b3480156101ed57600080fd5b5061015d610327565b34801561020257600080fd5b5061015d610336565b34801561021757600080fd5b50610220610345565b005b34801561022e57600080fd5b5061022061023d3660046104d9565b6103b3565b34801561024e57600080fd5b506101d46103cb565b34801561026357600080fd5b5061026c6103da565b60405161016a91906106a5565b34801561028557600080fd5b506101d46103fe565b34801561029a57600080fd5b506101d46102d8565b3480156102af57600080fd5b5061018861040d565b3480156102c457600080fd5b506102206102d33660046104d9565b610413565b6000806040516102e790610681565b6040519081900390205492915050565b6001546001600160a01b031681565b60075481565b60065481565b60055481565b6000806040516102e79061068c565b6002546001600160a01b031681565b6004546001600160a01b031681565b61034d6103da565b6103695760405162461bcd60e51b815260040161011a906106d1565b600080546040516001600160a01b03909116907f8be0079c531659141344cd1fd0a4f28419497f9722a3daafe3b4186f6b6457e0908390a3600080546001600160a01b0319169055565b60405162461bcd60e51b815260040161011a906106e1565b6000546001600160a01b031690565b600080546001600160a01b03166103ef610443565b6001600160a01b031614905090565b6003546001600160a01b031681565b60085481565b61041b6103da565b6104375760405162461bcd60e51b815260040161011a906106d1565b61044081610447565b50565b3390565b6001600160a01b03811661046d5760405162461bcd60e51b815260040161011a906106c1565b600080546040516001600160a01b03808516939216917f8be0079c531659141344cd1fd0a4f28419497f9722a3daafe3b4186f6b6457e091a3600080546001600160a01b0319166001600160a01b0392909216919091179055565b80356104d381610747565b92915050565b6000602082840312156104eb57600080fd5b60006104f784846104c8565b949350505050565b6105088161071d565b82525050565b61050881610728565b6105088161073c565b600061052d60268361070f565b7f4f776e61626c653a206e6577206f776e657220697320746865207a65726f206181526564647265737360d01b602082015260400192915050565b6000610575601283610718565b7135b2bc9734b6b83632b6b2b73a30ba34b7b760711b815260120192915050565b60006105a360208361070f565b7f4f776e61626c653a2063616c6c6572206973206e6f7420746865206f776e6572815260200192915050565b60006105dc600f83610718565b6e35b2bc97383937bc3c9737bbb732b960891b8152600f0192915050565b600061060760178361070f565b7f6f7065726174696f6e206e6f7420737570706f72746564000000000000000000815260200192915050565b600061064060238361070f565b7f50726f78793a3a28293a20696d706c656d656e746174696f6e206e6f7420666f8152621d5b9960ea1b602082015260400192915050565b61050881610739565b60006104d382610568565b60006104d3826105cf565b602081016104d382846104ff565b602081016104d3828461050e565b602081016104d38284610517565b602080825281016104d381610520565b602080825281016104d381610596565b602080825281016104d3816105fa565b602080825281016104d381610633565b602081016104d38284610678565b90815260200190565b919050565b60006104d38261072d565b151590565b6001600160a01b031690565b90565b60006104d38261071d565b6107508161071d565b811461044057600080fdfea365627a7a7231582041be6b00529d62e5b996c0c700f6f3aaaa95bb271930a8c36b9f481a725e71476c6578706572696d656e74616cf564736f6c634300051100408be0079c531659141344cd1fd0a4f28419497f9722a3daafe3b4186f6b6457e0",
    "linkReferences": {},
    "deployedLinkReferences": {}
}