{
  "_format": "hh-sol-artifact-1",
  "contractName": "VestingLogic",
  "sourceName": "contracts/fish/governance/Vesting/VestingLogic.sol",
  "abi": [
    {
      "anonymous": false,
      "inputs": [
        {
          "indexed": true,
          "internalType": "address",
          "name": "caller",
          "type": "address"
        },
        {
          "indexed": false,
          "internalType": "address",
          "name": "loanPoolToken",
          "type": "address"
        },
        {
          "indexed": false,
          "internalType": "address",
          "name": "receiver",
          "type": "address"
        },
        {
          "indexed": false,
          "internalType": "uint32",
          "name": "maxCheckpoints",
          "type": "uint32"
        }
      ],
      "name": "DividendsCollected",
      "type": "event"
    },
    {
      "anonymous": false,
      "inputs": [
        {
          "indexed": true,
          "internalType": "address",
          "name": "caller",
          "type": "address"
        },
        {
          "indexed": false,
          "internalType": "address",
          "name": "newStakingContract",
          "type": "address"
        }
      ],
      "name": "MigratedToNewStakingContract",
      "type": "event"
    },
    {
      "anonymous": false,
      "inputs": [
        {
          "indexed": true,
          "internalType": "address",
          "name": "previousOwner",
          "type": "address"
        },
        {
          "indexed": true,
          "internalType": "address",
          "name": "newOwner",
          "type": "address"
        }
      ],
      "name": "OwnershipTransferred",
      "type": "event"
    },
    {
      "anonymous": false,
      "inputs": [
        {
          "indexed": true,
          "internalType": "address",
          "name": "caller",
          "type": "address"
        },
        {
          "indexed": false,
          "internalType": "uint256",
          "name": "amount",
          "type": "uint256"
        }
      ],
      "name": "TokensStaked",
      "type": "event"
    },
    {
      "anonymous": false,
      "inputs": [
        {
          "indexed": true,
          "internalType": "address",
          "name": "caller",
          "type": "address"
        },
        {
          "indexed": false,
          "internalType": "address",
          "name": "receiver",
          "type": "address"
        }
      ],
      "name": "TokensWithdrawn",
      "type": "event"
    },
    {
      "anonymous": false,
      "inputs": [
        {
          "indexed": true,
          "internalType": "address",
          "name": "caller",
          "type": "address"
        },
        {
          "indexed": false,
          "internalType": "address",
          "name": "delegatee",
          "type": "address"
        }
      ],
      "name": "VotesDelegated",
      "type": "event"
    },
    {
      "constant": true,
      "inputs": [],
      "name": "SOV",
      "outputs": [
        {
          "internalType": "contract IERC20",
          "name": "",
          "type": "address"
        }
      ],
      "payable": false,
      "stateMutability": "view",
      "type": "function"
    },
    {
      "constant": true,
      "inputs": [],
      "name": "cliff",
      "outputs": [
        {
          "internalType": "uint256",
          "name": "",
          "type": "uint256"
        }
      ],
      "payable": false,
      "stateMutability": "view",
      "type": "function"
    },
    {
      "constant": false,
      "inputs": [
        {
          "internalType": "address",
          "name": "_loanPoolToken",
          "type": "address"
        },
        {
          "internalType": "uint32",
          "name": "_maxCheckpoints",
          "type": "uint32"
        },
        {
          "internalType": "address",
          "name": "_receiver",
          "type": "address"
        }
      ],
      "name": "collectDividends",
      "outputs": [],
      "payable": false,
      "stateMutability": "nonpayable",
      "type": "function"
    },
    {
      "constant": false,
      "inputs": [
        {
          "internalType": "address",
          "name": "_delegatee",
          "type": "address"
        }
      ],
      "name": "delegate",
      "outputs": [],
      "payable": false,
      "stateMutability": "nonpayable",
      "type": "function"
    },
    {
      "constant": true,
      "inputs": [],
      "name": "duration",
      "outputs": [
        {
          "internalType": "uint256",
          "name": "",
          "type": "uint256"
        }
      ],
      "payable": false,
      "stateMutability": "view",
      "type": "function"
    },
    {
      "constant": true,
      "inputs": [],
      "name": "endDate",
      "outputs": [
        {
          "internalType": "uint256",
          "name": "",
          "type": "uint256"
        }
      ],
      "payable": false,
      "stateMutability": "view",
      "type": "function"
    },
    {
      "constant": true,
      "inputs": [],
      "name": "feeSharingProxy",
      "outputs": [
        {
          "internalType": "contract IFeeSharingProxy",
          "name": "",
          "type": "address"
        }
      ],
      "payable": false,
      "stateMutability": "view",
      "type": "function"
    },
    {
      "constant": false,
      "inputs": [
        {
          "internalType": "address",
          "name": "receiver",
          "type": "address"
        }
      ],
      "name": "governanceWithdrawTokens",
      "outputs": [],
      "payable": false,
      "stateMutability": "nonpayable",
      "type": "function"
    },
    {
      "constant": true,
      "inputs": [],
      "name": "isOwner",
      "outputs": [
        {
          "internalType": "bool",
          "name": "",
          "type": "bool"
        }
      ],
      "payable": false,
      "stateMutability": "view",
      "type": "function"
    },
    {
      "constant": false,
      "inputs": [],
      "name": "migrateToNewStakingContract",
      "outputs": [],
      "payable": false,
      "stateMutability": "nonpayable",
      "type": "function"
    },
    {
      "constant": true,
      "inputs": [],
      "name": "owner",
      "outputs": [
        {
          "internalType": "address",
          "name": "",
          "type": "address"
        }
      ],
      "payable": false,
      "stateMutability": "view",
      "type": "function"
    },
    {
      "constant": false,
      "inputs": [
        {
          "internalType": "address",
          "name": "_sender",
          "type": "address"
        },
        {
          "internalType": "uint256",
          "name": "_amount",
          "type": "uint256"
        },
        {
          "internalType": "address",
          "name": "_token",
          "type": "address"
        },
        {
          "internalType": "bytes",
          "name": "_data",
          "type": "bytes"
        }
      ],
      "name": "receiveApproval",
      "outputs": [],
      "payable": false,
      "stateMutability": "nonpayable",
      "type": "function"
    },
    {
      "constant": false,
      "inputs": [],
      "name": "renounceOwnership",
      "outputs": [],
      "payable": false,
      "stateMutability": "nonpayable",
      "type": "function"
    },
    {
      "constant": false,
      "inputs": [
        {
          "internalType": "uint256",
          "name": "_amount",
          "type": "uint256"
        }
      ],
      "name": "stakeTokens",
      "outputs": [],
      "payable": false,
      "stateMutability": "nonpayable",
      "type": "function"
    },
    {
      "constant": false,
      "inputs": [
        {
          "internalType": "address",
          "name": "_sender",
          "type": "address"
        },
        {
          "internalType": "uint256",
          "name": "_amount",
          "type": "uint256"
        }
      ],
      "name": "stakeTokensWithApproval",
      "outputs": [],
      "payable": false,
      "stateMutability": "nonpayable",
      "type": "function"
    },
    {
      "constant": true,
      "inputs": [],
      "name": "staking",
      "outputs": [
        {
          "internalType": "contract Staking",
          "name": "",
          "type": "address"
        }
      ],
      "payable": false,
      "stateMutability": "view",
      "type": "function"
    },
    {
      "constant": true,
      "inputs": [],
      "name": "startDate",
      "outputs": [
        {
          "internalType": "uint256",
          "name": "",
          "type": "uint256"
        }
      ],
      "payable": false,
      "stateMutability": "view",
      "type": "function"
    },
    {
      "constant": true,
      "inputs": [],
      "name": "tokenOwner",
      "outputs": [
        {
          "internalType": "address",
          "name": "",
          "type": "address"
        }
      ],
      "payable": false,
      "stateMutability": "view",
      "type": "function"
    },
    {
      "constant": false,
      "inputs": [
        {
          "internalType": "address",
          "name": "newOwner",
          "type": "address"
        }
      ],
      "name": "transferOwnership",
      "outputs": [],
      "payable": false,
      "stateMutability": "nonpayable",
      "type": "function"
    },
    {
      "constant": false,
      "inputs": [
        {
          "internalType": "address",
          "name": "receiver",
          "type": "address"
        }
      ],
      "name": "withdrawTokens",
      "outputs": [],
      "payable": false,
      "stateMutability": "nonpayable",
      "type": "function"
    }
  ],
  "bytecode": "0x608060405260006100176001600160e01b0361006616565b600080546001600160a01b0319166001600160a01b0383169081178255604051929350917f8be0079c531659141344cd1fd0a4f28419497f9722a3daafe3b4186f6b6457e0908290a35061006a565b3390565b611adf806100796000396000f3fe608060405234801561001057600080fd5b506004361061012c5760003560e01c8063715018a6116100ad5780638f32d59b116100715780638f32d59b1461021d5780638f4ffcb114610232578063a3e6761014610245578063c24a0f8b1461024d578063f2fde38b146102555761012c565b8063715018a6146101c75780637547c7a3146101cf57806378f24bc6146101e257806381e45268146101f55780638da5cb5b146102085761012c565b80634cf088d9116100f45780634cf088d9146101895780635419675f146101915780635c19a95c1461019957806362dc2f35146101ac5780636a26b57f146101bf5761012c565b806308dcb360146101315780630b97bc861461014f5780630fb5a6b41461016457806313d033c01461016c57806349df728c14610174575b600080fd5b610139610268565b604051610146919061188c565b60405180910390f35b610157610277565b604051610146919061193b565b61015761027d565b610157610283565b6101876101823660046112be565b610289565b005b6101396102d8565b6101876102e7565b6101876101a73660046112be565b610468565b6101876101ba3660046113ba565b61057f565b61013961068c565b61018761069b565b6101876101dd366004611468565b610709565b6101876101f03660046112be565b610713565b610187610203366004611302565b610748565b610210610775565b60405161014691906117c2565b610225610784565b604051610146919061187e565b61018761024036600461133c565b6107a8565b61021061099c565b6101576109ab565b6101876102633660046112be565b6109b1565b6001546001600160a01b031681565b60075481565b60065481565b60055481565b6003546001600160a01b03163314806102a557506102a5610784565b6102ca5760405162461bcd60e51b81526004016102c1906118eb565b60405180910390fd5b6102d58160006109de565b50565b6002546001600160a01b031681565b6003546001600160a01b03163314806103035750610303610784565b61031f5760405162461bcd60e51b81526004016102c1906118eb565b600260009054906101000a90046001600160a01b03166001600160a01b0316635419675f6040518163ffffffff1660e01b8152600401600060405180830381600087803b15801561036f57600080fd5b505af1158015610383573d6000803e3d6000fd5b50505050600260009054906101000a90046001600160a01b03166001600160a01b031663ae81dfe46040518163ffffffff1660e01b815260040160206040518083038186803b1580156103d557600080fd5b505afa1580156103e9573d6000803e3d6000fd5b505050506040513d601f19601f8201168201806040525061040d91908101906112e4565b600280546001600160a01b0319166001600160a01b03928316179081905560405133927f9613f431247983a83a2b3667aa63a5174194ac89328dfadc69be44409521b3c19261045e929116906117c2565b60405180910390a2565b6003546001600160a01b031633146104925760405162461bcd60e51b81526004016102c1906118eb565b6001600160a01b0381166104b85760405162461bcd60e51b81526004016102c1906118fb565b600554600754015b600854811161053a5760025460405163026e402b60e01b81526001600160a01b039091169063026e402b906104fb9085908590600401611820565b600060405180830381600087803b15801561051557600080fd5b505af1158015610529573d6000803e3d6000fd5b505050506224ea00810190506104c0565b50336001600160a01b03167f734a802cc194e2139bfcc08e10336f24dfa14fd2c5ab70268d8706c0558670668260405161057491906117c2565b60405180910390a250565b6003546001600160a01b031633148061059b575061059b610784565b6105b75760405162461bcd60e51b81526004016102c1906118eb565b6001600160a01b0381166105dd5760405162461bcd60e51b81526004016102c19061191b565b6004805460405163a965b3a960e01b81526001600160a01b039091169163a965b3a9916106109187918791879101611856565b600060405180830381600087803b15801561062a57600080fd5b505af115801561063e573d6000803e3d6000fd5b50505050336001600160a01b03167f5fa0b381cb4bdbc7063d1e5c78b90a634a6d6a12d6cb6fabe450fd4b8d1eab0184838560405161067f939291906117f8565b60405180910390a2505050565b6004546001600160a01b031681565b6106a3610784565b6106bf5760405162461bcd60e51b81526004016102c19061190b565b600080546040516001600160a01b03909116907f8be0079c531659141344cd1fd0a4f28419497f9722a3daafe3b4186f6b6457e0908390a3600080546001600160a01b0319169055565b6102d53382610c7d565b6002546001600160a01b0316331461073d5760405162461bcd60e51b81526004016102c1906118eb565b6102d58160016109de565b3330146107675760405162461bcd60e51b81526004016102c1906118eb565b6107718282610c7d565b5050565b6000546001600160a01b031690565b600080546001600160a01b0316610799610f5f565b6001600160a01b031614905090565b6107b0610f63565b6001600160a01b0316336001600160a01b0316146107e05760405162461bcd60e51b81526004016102c1906118eb565b336001600160a01b038416146108085760405162461bcd60e51b81526004016102c1906118eb565b60006060610814610f72565b9050600061085785858080601f016020809104026020016040519081016040528093929190818152602001838380828437600092019190915250610fca92505050565b905060005b82518110156108a55782818151811061087157fe5b60200260200101516001600160e01b031916826001600160e01b031916141561089d57600193506108a5565b60010161085c565b50826108c35760405162461bcd60e51b81526004016102c1906118cb565b600080600060201b87876040516020016108df93929190611789565b6040516020818303038152906040528060200190516109019190810190611425565b9093509150506001600160a01b03808316908b16146109325760405162461bcd60e51b81526004016102c1906118db565b8881146109515760405162461bcd60e51b81526004016102c19061192b565b61099087878080601f016020809104026020016040519081016040528093929190818152602001838380828437600092019190915250610fd192505050565b50505050505050505050565b6003546001600160a01b031681565b60085481565b6109b9610784565b6109d55760405162461bcd60e51b81526004016102c19061190b565b6102d5816110ab565b6001600160a01b038216610a045760405162461bcd60e51b81526004016102c19061191b565b600080600260009054906101000a90046001600160a01b03166001600160a01b0316639929e8866040518163ffffffff1660e01b815260040160206040518083038186803b158015610a5557600080fd5b505afa158015610a69573d6000803e3d6000fd5b505050506040513d601f19601f82011682018060405250610a8d9190810190611407565b80610a955750825b15610aa35750600854610aa6565b50425b600554600754015b818111610c35576002546040516367bdb42560e11b81526001600160a01b039091169063cf7b684a90610aed903090859060001943019060040161183b565b60206040518083038186803b158015610b0557600080fd5b505afa158015610b19573d6000803e3d6000fd5b505050506040513d601f19601f82011682018060405250610b3d91908101906114a4565b92506bffffffffffffffffffffffff831615610c2b578315610bc457600254604051634005b26560e11b81526001600160a01b039091169063800b64ca90610b8d90869085908a906004016119a3565b600060405180830381600087803b158015610ba757600080fd5b505af1158015610bbb573d6000803e3d6000fd5b50505050610c2b565b6002546040516336adb29160e21b81526001600160a01b039091169063dab6ca4490610bf890869085908a906004016119a3565b600060405180830381600087803b158015610c1257600080fd5b505af1158015610c26573d6000803e3d6000fd5b505050505b6224ea0001610aae565b50336001600160a01b03167f351b2b7a8b3659a02c6c87ac06e00099a1e5979171161a69eab5d057deb838ec85604051610c6f91906117c2565b60405180910390a250505050565b600754610d08576002546040516372ec979560e01b81526001600160a01b03909116906372ec979590610cb490429060040161193b565b60206040518083038186803b158015610ccc57600080fd5b505afa158015610ce0573d6000803e3d6000fd5b505050506040513d601f19601f82011682018060405250610d049190810190611486565b6007555b6002546006546040516372ec979560e01b81526001600160a01b03909216916372ec979591610d3e91429091019060040161193b565b60206040518083038186803b158015610d5657600080fd5b505afa158015610d6a573d6000803e3d6000fd5b505050506040513d601f19601f82011682018060405250610d8e9190810190611486565b6008556001546040516323b872dd60e01b81526000916001600160a01b0316906323b872dd90610dc6908690309087906004016117d0565b602060405180830381600087803b158015610de057600080fd5b505af1158015610df4573d6000803e3d6000fd5b505050506040513d601f19601f82011682018060405250610e189190810190611407565b905080610e2457600080fd5b60015460025460405163095ea7b360e01b81526001600160a01b039283169263095ea7b392610e5a929116908690600401611820565b602060405180830381600087803b158015610e7457600080fd5b505af1158015610e88573d6000803e3d6000fd5b505050506040513d601f19601f82011682018060405250610eac9190810190611407565b50600254600554600654600354604051632597f50f60e11b81526001600160a01b0394851694634b2fea1e94610ef4948994919390926224ea00923092911690600401611949565b600060405180830381600087803b158015610f0e57600080fd5b505af1158015610f22573d6000803e3d6000fd5b50505050826001600160a01b03167fb539ca1e5c8d398ddf1c41c30166f33404941683be4683319b57669a93dad4ef8360405161067f919061193b565b3390565b6001546001600160a01b031690565b604080516001808252818301909252606091829190602080830190803883390190505090506381e4526860e01b81600081518110610fac57fe5b6001600160e01b031990921660209283029190910190910152905090565b6020015190565b60006060306001600160a01b031683604051610fed91906117af565b6000604051808303816000865af19150503d806000811461102a576040519150601f19603f3d011682016040523d82523d6000602084013e61102f565b606091505b5091509150816110a657604481511161105a5760405162461bcd60e51b81526004016102c1906118ab565b61108d6040518060400160405280601181526020017003932b1b2b4bb32a0b8383937bb30b61d1607d1b8152508261112c565b60405162461bcd60e51b81526004016102c1919061189a565b505050565b6001600160a01b0381166110d15760405162461bcd60e51b81526004016102c1906118bb565b600080546040516001600160a01b03808516939216917f8be0079c531659141344cd1fd0a4f28419497f9722a3daafe3b4186f6b6457e091a3600080546001600160a01b0319166001600160a01b0392909216919091179055565b6060808390506060839050606060448251845101036040519080825280601f01601f19166020018201604052801561116b576020820181803883390190505b509050806000805b85518110156111c45785818151811061118857fe5b602001015160f81c60f81b8383806001019450815181106111a557fe5b60200101906001600160f81b031916908160001a905350600101611173565b5060445b8451811015611219578481815181106111dd57fe5b602001015160f81c60f81b8383806001019450815181106111fa57fe5b60200101906001600160f81b031916908160001a9053506001016111c8565b50909450505050505b92915050565b803561122281611a64565b805161122281611a64565b805161122281611a78565b805161122281611a81565b60008083601f84011261126657600080fd5b50813567ffffffffffffffff81111561127e57600080fd5b60208301915083600182028301111561129657600080fd5b9250929050565b803561122281611a81565b803561122281611a8a565b805161122281611a93565b6000602082840312156112d057600080fd5b60006112dc8484611228565b949350505050565b6000602082840312156112f657600080fd5b60006112dc8484611233565b6000806040838503121561131557600080fd5b60006113218585611228565b92505060206113328582860161129d565b9150509250929050565b60008060008060006080868803121561135457600080fd5b60006113608888611228565b95505060206113718882890161129d565b945050604061138288828901611228565b935050606086013567ffffffffffffffff81111561139f57600080fd5b6113ab88828901611254565b92509250509295509295909350565b6000806000606084860312156113cf57600080fd5b60006113db8686611228565b93505060206113ec868287016112a8565b92505060406113fd86828701611228565b9150509250925092565b60006020828403121561141957600080fd5b60006112dc848461123e565b60008060006060848603121561143a57600080fd5b60006114468686611249565b935050602061145786828701611233565b92505060406113fd86828701611249565b60006020828403121561147a57600080fd5b60006112dc848461129d565b60006020828403121561149857600080fd5b60006112dc8484611249565b6000602082840312156114b657600080fd5b60006112dc84846112b3565b6114cb816119d0565b82525050565b6114cb816119db565b6114cb6114e6826119e0565b6119ea565b60006114f783856119c2565b9350611504838584611a1e565b50500190565b6000611515826119be565b61151f81856119c2565b935061152f818560208601611a2a565b9290920192915050565b6114cb81611a13565b600061154d826119be565b61155781856119c7565b9350611567818560208601611a2a565b61157081611a5a565b9093019392505050565b60006115876030836119c7565b7f72656365697665417070726f76616c3a205472616e73616374696f6e2065786581526f31baba34b7b7103932bb32b93a32b21760811b602082015260400192915050565b60006115d96026836119c7565b7f4f776e61626c653a206e6577206f776e657220697320746865207a65726f206181526564647265737360d01b602082015260400192915050565b60006116216015836119c7565b741b595d1a1bd9081a5cc81b9bdd08185b1b1bddd959605a1b815260200192915050565b6000611652600f836119c7565b6e0e6cadcc8cae440dad2e6dac2e8c6d608b1b815260200192915050565b600061167d600c836119c7565b6b1d5b985d5d1a1bdc9a5e995960a21b815260200192915050565b60006116a56019836119c7565b7f64656c656761746565206164647265737320696e76616c696400000000000000815260200192915050565b60006116de6020836119c7565b7f4f776e61626c653a2063616c6c6572206973206e6f7420746865206f776e6572815260200192915050565b60006117176018836119c7565b7f7265636569766572206164647265737320696e76616c69640000000000000000815260200192915050565b6000611750600f836119c7565b6e0c2dadeeadce840dad2e6dac2e8c6d608b1b815260200192915050565b6114cb816119ea565b6114cb816119f9565b6114cb81611a02565b600061179582866114da565b601c820191506117a68284866114eb565b95945050505050565b60006117bb828461150a565b9392505050565b6020810161122282846114c2565b606081016117de82866114c2565b6117eb60208301856114c2565b6112dc604083018461176e565b6060810161180682866114c2565b61181360208301856114c2565b6112dc6040830184611777565b6040810161182e82856114c2565b6117bb602083018461176e565b6060810161184982866114c2565b6117eb602083018561176e565b6060810161186482866114c2565b6118716020830185611777565b6112dc60408301846114c2565b6020810161122282846114d1565b602081016112228284611539565b602080825281016117bb8184611542565b602080825281016112228161157a565b60208082528101611222816115cc565b6020808252810161122281611614565b6020808252810161122281611645565b6020808252810161122281611670565b6020808252810161122281611698565b60208082528101611222816116d1565b602080825281016112228161170a565b6020808252810161122281611743565b60208101611222828461176e565b60c08101611957828961176e565b611964602083018861176e565b611971604083018761176e565b61197e606083018661176e565b61198b60808301856114c2565b61199860a08301846114c2565b979650505050505050565b606081016119b18286611780565b611871602083018561176e565b5190565b919050565b90815260200190565b6000611222826119ed565b151590565b63ffffffff191690565b90565b6001600160a01b031690565b63ffffffff1690565b6bffffffffffffffffffffffff1690565b6000611222826119d0565b82818337506000910152565b60005b83811015611a45578181015183820152602001611a2d565b83811115611a54576000848401525b50505050565b601f01601f191690565b611a6d816119d0565b81146102d557600080fd5b611a6d816119db565b611a6d816119ea565b611a6d816119f9565b611a6d81611a0256fea365627a7a723158200bc3857fb4871a8ba585be994279a934e8882ecae5c0e216fb532b96b4dd83d26c6578706572696d656e74616cf564736f6c63430005110040",
  "linkReferences": {},
  "deployedLinkReferences": {}
}