{
  "_format": "hh-sol-artifact-1",
  "contractName": "RewardManager",
  "sourceName": "contracts/masset/RewardManager.sol",
  "abi": [
    {
      "inputs": [
        {
          "internalType": "address",
          "name": "_massetAddress",
          "type": "address"
        }
      ],
      "payable": false,
      "stateMutability": "nonpayable",
      "type": "constructor"
    },
    {
      "anonymous": false,
      "inputs": [
        {
          "indexed": true,
          "internalType": "address",
          "name": "previousOwner",
          "type": "address"
        },
        {
          "indexed": true,
          "internalType": "address",
          "name": "newOwner",
          "type": "address"
        }
      ],
      "name": "OwnershipTransferred",
      "type": "event"
    },
    {
      "anonymous": false,
      "inputs": [
        {
          "indexed": true,
          "internalType": "address",
          "name": "sender",
          "type": "address"
        },
        {
          "indexed": false,
          "internalType": "uint256",
          "name": "newFactor",
          "type": "uint256"
        }
      ],
      "name": "onFactorChanged",
      "type": "event"
    },
    {
      "anonymous": false,
      "inputs": [
        {
          "indexed": true,
          "internalType": "address",
          "name": "sender",
          "type": "address"
        },
        {
          "indexed": false,
          "internalType": "uint256",
          "name": "newMax",
          "type": "uint256"
        }
      ],
      "name": "onGlobalMaxPenaltyChanged",
      "type": "event"
    },
    {
      "anonymous": false,
      "inputs": [
        {
          "indexed": true,
          "internalType": "address",
          "name": "sender",
          "type": "address"
        },
        {
          "indexed": false,
          "internalType": "uint256",
          "name": "newMax",
          "type": "uint256"
        }
      ],
      "name": "onGlobalMaxRewardChanged",
      "type": "event"
    },
    {
      "anonymous": false,
      "inputs": [
        {
          "indexed": true,
          "internalType": "address",
          "name": "sender",
          "type": "address"
        },
        {
          "indexed": true,
          "internalType": "address",
          "name": "token",
          "type": "address"
        },
        {
          "indexed": false,
          "internalType": "uint256",
          "name": "newTargetWeight",
          "type": "uint256"
        }
      ],
      "name": "onTargetWeightChanged",
      "type": "event"
    },
    {
      "constant": true,
      "inputs": [
        {
          "internalType": "uint256",
          "name": "_a",
          "type": "uint256"
        },
        {
          "internalType": "int256",
          "name": "_b",
          "type": "int256"
        }
      ],
      "name": "_addOrSub",
      "outputs": [
        {
          "internalType": "uint256",
          "name": "",
          "type": "uint256"
        }
      ],
      "payable": false,
      "stateMutability": "pure",
      "type": "function"
    },
    {
      "constant": true,
      "inputs": [
        {
          "internalType": "uint256",
          "name": "_a",
          "type": "uint256"
        },
        {
          "internalType": "uint256",
          "name": "_b",
          "type": "uint256"
        }
      ],
      "name": "_dsqr",
      "outputs": [
        {
          "internalType": "uint256",
          "name": "",
          "type": "uint256"
        }
      ],
      "payable": false,
      "stateMutability": "pure",
      "type": "function"
    },
    {
      "constant": true,
      "inputs": [
        {
          "internalType": "address",
          "name": "_basset",
          "type": "address"
        },
        {
          "internalType": "int256",
          "name": "_sum",
          "type": "int256"
        }
      ],
      "name": "getAverageDsqrs",
      "outputs": [
        {
          "internalType": "uint256",
          "name": "dsqrBefore",
          "type": "uint256"
        },
        {
          "internalType": "uint256",
          "name": "dsqrAfter",
          "type": "uint256"
        }
      ],
      "payable": false,
      "stateMutability": "view",
      "type": "function"
    },
    {
      "constant": true,
      "inputs": [
        {
          "internalType": "address",
          "name": "_basset",
          "type": "address"
        },
        {
          "internalType": "uint256",
          "name": "_sum",
          "type": "uint256"
        }
      ],
      "name": "getAverageDsqrsForBridgeDeposit",
      "outputs": [
        {
          "internalType": "uint256",
          "name": "dsqrBefore",
          "type": "uint256"
        },
        {
          "internalType": "uint256",
          "name": "dsqrAfter",
          "type": "uint256"
        }
      ],
      "payable": false,
      "stateMutability": "view",
      "type": "function"
    },
    {
      "constant": true,
      "inputs": [],
      "name": "getFactor",
      "outputs": [
        {
          "internalType": "uint256",
          "name": "",
          "type": "uint256"
        }
      ],
      "payable": false,
      "stateMutability": "view",
      "type": "function"
    },
    {
      "constant": true,
      "inputs": [],
      "name": "getGlobalMaxPenaltyPerc",
      "outputs": [
        {
          "internalType": "uint256",
          "name": "",
          "type": "uint256"
        }
      ],
      "payable": false,
      "stateMutability": "view",
      "type": "function"
    },
    {
      "constant": true,
      "inputs": [],
      "name": "getGlobalMaxRewardPerc",
      "outputs": [
        {
          "internalType": "uint256",
          "name": "",
          "type": "uint256"
        }
      ],
      "payable": false,
      "stateMutability": "view",
      "type": "function"
    },
    {
      "constant": true,
      "inputs": [],
      "name": "getMassetAddress",
      "outputs": [
        {
          "internalType": "address",
          "name": "",
          "type": "address"
        }
      ],
      "payable": false,
      "stateMutability": "view",
      "type": "function"
    },
    {
      "constant": true,
      "inputs": [
        {
          "internalType": "address",
          "name": "_bassetAddress",
          "type": "address"
        },
        {
          "internalType": "uint256",
          "name": "_sum",
          "type": "uint256"
        }
      ],
      "name": "getPenaltyForWithdrawal",
      "outputs": [
        {
          "internalType": "uint256",
          "name": "",
          "type": "uint256"
        }
      ],
      "payable": false,
      "stateMutability": "view",
      "type": "function"
    },
    {
      "constant": true,
      "inputs": [
        {
          "internalType": "address",
          "name": "_bassetAddress",
          "type": "address"
        },
        {
          "internalType": "uint256",
          "name": "_sum",
          "type": "uint256"
        },
        {
          "internalType": "bool",
          "name": "_bridgeMode",
          "type": "bool"
        }
      ],
      "name": "getRewardForDeposit",
      "outputs": [
        {
          "internalType": "uint256",
          "name": "",
          "type": "uint256"
        }
      ],
      "payable": false,
      "stateMutability": "view",
      "type": "function"
    },
    {
      "constant": true,
      "inputs": [
        {
          "internalType": "address",
          "name": "_tokenAddress",
          "type": "address"
        }
      ],
      "name": "getTargetWeight",
      "outputs": [
        {
          "internalType": "uint256",
          "name": "",
          "type": "uint256"
        }
      ],
      "payable": false,
      "stateMutability": "view",
      "type": "function"
    },
    {
      "constant": true,
      "inputs": [],
      "name": "getTargetWeights",
      "outputs": [
        {
          "internalType": "uint256[]",
          "name": "",
          "type": "uint256[]"
        }
      ],
      "payable": false,
      "stateMutability": "view",
      "type": "function"
    },
    {
      "constant": true,
      "inputs": [],
      "name": "getTokens",
      "outputs": [
        {
          "internalType": "address[]",
          "name": "",
          "type": "address[]"
        }
      ],
      "payable": false,
      "stateMutability": "view",
      "type": "function"
    },
    {
      "constant": true,
      "inputs": [],
      "name": "getVersion",
      "outputs": [
        {
          "internalType": "string",
          "name": "",
          "type": "string"
        }
      ],
      "payable": false,
      "stateMutability": "pure",
      "type": "function"
    },
    {
      "constant": true,
      "inputs": [
        {
          "internalType": "uint256",
          "name": "_balance",
          "type": "uint256"
        },
        {
          "internalType": "uint256",
          "name": "_total",
          "type": "uint256"
        }
      ],
      "name": "getWeight",
      "outputs": [
        {
          "internalType": "uint256",
          "name": "",
          "type": "uint256"
        }
      ],
      "payable": false,
      "stateMutability": "pure",
      "type": "function"
    },
    {
      "constant": true,
      "inputs": [],
      "name": "isOwner",
      "outputs": [
        {
          "internalType": "bool",
          "name": "",
          "type": "bool"
        }
      ],
      "payable": false,
      "stateMutability": "view",
      "type": "function"
    },
    {
      "constant": true,
      "inputs": [],
      "name": "owner",
      "outputs": [
        {
          "internalType": "address",
          "name": "",
          "type": "address"
        }
      ],
      "payable": false,
      "stateMutability": "view",
      "type": "function"
    },
    {
      "constant": false,
      "inputs": [],
      "name": "renounceOwnership",
      "outputs": [],
      "payable": false,
      "stateMutability": "nonpayable",
      "type": "function"
    },
    {
      "constant": false,
      "inputs": [
        {
          "internalType": "address",
          "name": "_tokenAddress",
          "type": "address"
        },
        {
          "internalType": "address",
          "name": "_recipient",
          "type": "address"
        },
        {
          "internalType": "uint256",
          "name": "_amount",
          "type": "uint256"
        }
      ],
      "name": "sendFunds",
      "outputs": [],
      "payable": false,
      "stateMutability": "nonpayable",
      "type": "function"
    },
    {
      "constant": false,
      "inputs": [
        {
          "internalType": "address",
          "name": "_bassetAddress",
          "type": "address"
        },
        {
          "internalType": "uint256",
          "name": "_sum",
          "type": "uint256"
        },
        {
          "internalType": "address",
          "name": "_recipient",
          "type": "address"
        },
        {
          "internalType": "bool",
          "name": "_bridgeMode",
          "type": "bool"
        }
      ],
      "name": "sendRewardForDeposit",
      "outputs": [
        {
          "internalType": "uint256",
          "name": "",
          "type": "uint256"
        }
      ],
      "payable": false,
      "stateMutability": "nonpayable",
      "type": "function"
    },
    {
      "constant": false,
      "inputs": [
        {
          "internalType": "uint256",
          "name": "_factor",
          "type": "uint256"
        }
      ],
      "name": "setFactor",
      "outputs": [],
      "payable": false,
      "stateMutability": "nonpayable",
      "type": "function"
    },
    {
      "constant": false,
      "inputs": [
        {
          "internalType": "uint256",
          "name": "_max",
          "type": "uint256"
        }
      ],
      "name": "setGlobalMaxPenaltyPerc",
      "outputs": [],
      "payable": false,
      "stateMutability": "nonpayable",
      "type": "function"
    },
    {
      "constant": false,
      "inputs": [
        {
          "internalType": "uint256",
          "name": "_max",
          "type": "uint256"
        }
      ],
      "name": "setGlobalMaxRewardPerc",
      "outputs": [],
      "payable": false,
      "stateMutability": "nonpayable",
      "type": "function"
    },
    {
      "constant": false,
      "inputs": [
        {
          "internalType": "address[]",
          "name": "_tokenAddresses",
          "type": "address[]"
        },
        {
          "internalType": "uint256[]",
          "name": "_targetWeights",
          "type": "uint256[]"
        }
      ],
      "name": "setTargetWeights",
      "outputs": [],
      "payable": false,
      "stateMutability": "nonpayable",
      "type": "function"
    },
    {
      "constant": false,
      "inputs": [
        {
          "internalType": "address",
          "name": "newOwner",
          "type": "address"
        }
      ],
      "name": "transferOwnership",
      "outputs": [],
      "payable": false,
      "stateMutability": "nonpayable",
      "type": "function"
    }
  ],
  "bytecode": "0x608060405260006002556040516200001790620001c2565b604051809103906000f08015801562000034573d6000803e3d6000fd5b50600380546001600160a01b0319166001600160a01b0392909216919091179055600060048190556005553480156200006c57600080fd5b50604051620034af380380620034af833981810160405260208110156200009257600080fd5b50516000620000a96001600160e01b036200018116565b600080546001600160a01b0319166001600160a01b0383169081178255604051929350917f8be0079c531659141344cd1fd0a4f28419497f9722a3daafe3b4186f6b6457e0908290a35062000109816200018560201b6200229f1760201c565b6200015b576040805162461bcd60e51b815260206004820152601d60248201527f5f6d617373657441646472657373206e6f74206120636f6e7472616374000000604482015290519081900360640190fd5b600180546001600160a01b0319166001600160a01b0392909216919091179055620001d0565b3390565b6000813f7fc5d2460186f7233c927e7db2dcc703c0e500b653ca82273b7bfad8045d85a470818114801590620001ba57508115155b949350505050565b6106d98062002dd683390190565b612bf680620001e06000396000f3fe608060405234801561001057600080fd5b50600436106101735760003560e01c80638f32d59b116100de57806399f4afd311610097578063d97e607111610071578063d97e60711461055d578063e0ca147414610565578063ef6fd2e71461059b578063f2fde38b146105b857610173565b806399f4afd31461043f578063aa6ca80814610497578063cffe15151461049f57610173565b80638f32d59b1461036a57806390a913a01461038657806392a9adab146103b257806392d54da2146103de57806394aa28a5146103e65780639768fe601461042257610173565b80633961b828116101305780633961b828146102ec5780635184cc431461030f5780635482213114610317578063715018a61461031f578063817e9d31146103295780638da5cb5b1461034657610173565b80630d8e6e2c146101785780630f39ee72146101f5578063105aeafe1461022a5780631a2a46b5146102505780632668954b146102735780633769cd42146102a7575b600080fd5b6101806105de565b6040805160208082528351818301528351919283929083019185019080838360005b838110156101ba5781810151838201526020016101a2565b50505050905090810190601f1680156101e75780820380516001836020036101000a031916815260200191505b509250505060405180910390f35b6102186004803603604081101561020b57600080fd5b50803590602001356105fb565b60408051918252519081900360200190f35b6102186004803603602081101561024057600080fd5b50356001600160a01b031661063b565b6102186004803603604081101561026657600080fd5b50803590602001356106be565b6102186004803603606081101561028957600080fd5b506001600160a01b03813516906020810135906040013515156106f1565b6102d3600480360360408110156102bd57600080fd5b506001600160a01b038135169060200135610abd565b6040805192835260208301919091528051918290030190f35b6102186004803603604081101561030257600080fd5b5080359060200135610f04565b610218610f40565b610218610f46565b610327610f4c565b005b6103276004803603602081101561033f57600080fd5b5035610fdd565b61034e611062565b604080516001600160a01b039092168252519081900360200190f35b610372611071565b604080519115158252519081900360200190f35b6102d36004803603604081101561039c57600080fd5b506001600160a01b038135169060200135611095565b610218600480360360408110156103c857600080fd5b506001600160a01b038135169060200135611495565b610218611712565b610218600480360360808110156103fc57600080fd5b506001600160a01b03813581169160208101359160408201351690606001351515611718565b6103276004803603602081101561043857600080fd5b5035611945565b610447611a1e565b60408051602080825283518183015283519192839290830191858101910280838360005b8381101561048357818101518382015260200161046b565b505050509050019250505060405180910390f35b610447611b2f565b610327600480360360408110156104b557600080fd5b810190602081018135600160201b8111156104cf57600080fd5b8201836020820111156104e157600080fd5b803590602001918460208302840111600160201b8311171561050257600080fd5b919390929091602081019035600160201b81111561051f57600080fd5b82018360208201111561053157600080fd5b803590602001918460208302840111600160201b8311171561055257600080fd5b509092509050611b74565b61034e611e75565b6103276004803603606081101561057b57600080fd5b506001600160a01b03813581169160208101359091169060400135611e84565b610327600480360360208110156105b157600080fd5b5035612038565b610327600480360360208110156105ce57600080fd5b50356001600160a01b0316612111565b6040805180820190915260038152620322e360ec1b602082015290565b60008161060a57506000610635565b61063282610626670de0b6b3a76400008663ffffffff61216416565b9063ffffffff6121bd16565b90505b92915050565b600354604080516330af0bbf60e21b81526001600160a01b0384811660048301529151600093929092169163c2bc2efc91602480820192602092909190829003018186803b15801561068c57600080fd5b505afa1580156106a0573d6000803e3d6000fd5b505050506040513d60208110156106b657600080fd5b505192915050565b6000808212156106e1576106dc83600084900363ffffffff6121ff16565b610632565b610632838363ffffffff61224116565b60006c0c9f2c9cd04674edea400000008310610746576040805162461bcd60e51b815260206004820152600f60248201526e5f73756d20697320746f6f2062696760881b604482015290519081900360640190fd5b6003546040805163042a18a360e31b815290516000926001600160a01b031691632150c5189160048083019286929190829003018186803b15801561078a57600080fd5b505afa15801561079e573d6000803e3d6000fd5b505050506040513d6000823e601f3d908101601f1916820160405260208110156107c757600080fd5b8101908080516040519392919084600160201b8211156107e657600080fd5b9083019060208201858111156107fb57600080fd5b82518660208202830111600160201b8211171561081757600080fd5b82525081516020918201928201910280838360005b8381101561084457818101518382015260200161082c565b505050509050016040525050505111610898576040805162461bcd60e51b81526020600482015260116024820152706e6f20746172676574207765696768747360781b604482015290519081900360640190fd5b600154604080516321df0da760e01b815290516000926001600160a01b0316916321df0da7916004808301926020929190829003018186803b1580156108dd57600080fd5b505afa1580156108f1573d6000803e3d6000fd5b505050506040513d602081101561090757600080fd5b50519050600080846109225761091d8787611095565b61092c565b61092c8787610abd565b9092509050600061096661094e670de0b6b3a76400008563ffffffff6121ff16565b61062685670de0b6b3a764000063ffffffff61216416565b9050600061098561094e670de0b6b3a76400008563ffffffff6121ff16565b905060008282106109975760006109c5565b6109c5670de0b6b3a76400006106266109b6868663ffffffff6121ff16565b6002549063ffffffff61216416565b604080516370a0823160e01b815230600482015290519192506000916001600160a01b038916916370a08231916024808301926020929190829003018186803b158015610a1157600080fd5b505afa158015610a25573d6000803e3d6000fd5b505050506040513d6020811015610a3b57600080fd5b50519050808210610a4c5780610a4e565b815b91506000610a84670de0b6b3a7640000610626610a7760646005546121bd90919063ffffffff16565b8e9063ffffffff61216416565b9050808310610a935780610a95565b825b925064e8d4a51000831015610aab576000610aad565b825b9c9b505050505050505050505050565b60008060008311610b03576040805162461bcd60e51b815260206004820152600b60248201526a696e76616c69642073756d60a81b604482015290519081900360640190fd5b600154604080516377752e9b60e11b815290516000926001600160a01b03169163eeea5d36916004808301926020929190829003018186803b158015610b4857600080fd5b505afa158015610b5c573d6000803e3d6000fd5b505050506040513d6020811015610b7257600080fd5b5051600154604080516362ffd6c960e01b81526001600160a01b0392831660048201529051929350600092918416916362ffd6c991602480820192602092909190829003018186803b158015610bc757600080fd5b505afa158015610bdb573d6000803e3d6000fd5b505050506040513d6020811015610bf157600080fd5b505190506000610c07828763ffffffff6121ff16565b90506060600360009054906101000a90046001600160a01b03166001600160a01b0316632150c5186040518163ffffffff1660e01b815260040160006040518083038186803b158015610c5957600080fd5b505afa158015610c6d573d6000803e3d6000fd5b505050506040513d6000823e601f3d908101601f191682016040526020811015610c9657600080fd5b8101908080516040519392919084600160201b821115610cb557600080fd5b908301906020820185811115610cca57600080fd5b82518660208202830111600160201b82111715610ce657600080fd5b82525081516020918201928201910280838360005b83811015610d13578181015183820152602001610cfb565b50505050905001604052505050905060008090505b8151811015610ede576000828281518110610d3f57fe5b60209081029190910181015160015460408051632b4979db60e01b81526001600160a01b03928316600482015282841660248201529051929450600093918a1692632b4979db92604480840193919291829003018186803b158015610da357600080fd5b505afa158015610db7573d6000803e3d6000fd5b505050506040513d6020811015610dcd57600080fd5b50519050806001600160a01b03838116908d161415610df957610df6828c63ffffffff6121ff16565b91505b600354604080516330af0bbf60e21b81526001600160a01b0386811660048301529151600093929092169163c2bc2efc91602480820192602092909190829003018186803b158015610e4a57600080fd5b505afa158015610e5e573d6000803e3d6000fd5b505050506040513d6020811015610e7457600080fd5b505190506000610e8484896105fb565b90506000610e92848b6105fb565b9050610eae610ea18385610f04565b8e9063ffffffff61224116565b9c50610eca610ebd8285610f04565b8d9063ffffffff61224116565b9b505060019095019450610d289350505050565b5080518681610ee957fe5b04955080518581610ef657fe5b049450505050509250929050565b600080828411610f1657838303610f1a565b8284035b9050610f38670de0b6b3a7640000610626838063ffffffff61216416565b949350505050565b60025490565b60055490565b610f54611071565b610f93576040805162461bcd60e51b81526020600482018190526024820152600080516020612ba2833981519152604482015290519081900360640190fd5b600080546040516001600160a01b03909116907f8be0079c531659141344cd1fd0a4f28419497f9722a3daafe3b4186f6b6457e0908390a3600080546001600160a01b0319169055565b610fe5611071565b611024576040805162461bcd60e51b81526020600482018190526024820152600080516020612ba2833981519152604482015290519081900360640190fd5b600281905560408051828152905133917f04889d80e578fcc00e40530c63741d7c51ac76482cd19914ddbfd634ebade824919081900360200190a250565b6000546001600160a01b031690565b600080546001600160a01b031661108661229b565b6001600160a01b031614905090565b600080826110d5576040805162461bcd60e51b81526020600482015260086024820152677a65726f2073756d60c01b604482015290519081900360640190fd5b600154604080516377752e9b60e11b815290516000926001600160a01b03169163eeea5d36916004808301926020929190829003018186803b15801561111a57600080fd5b505afa15801561112e573d6000803e3d6000fd5b505050506040513d602081101561114457600080fd5b5051600154604080516362ffd6c960e01b81526001600160a01b0392831660048201529051929350600092918416916362ffd6c991602480820192602092909190829003018186803b15801561119957600080fd5b505afa1580156111ad573d6000803e3d6000fd5b505050506040513d60208110156111c357600080fd5b5051905060006111d382876106be565b90506060600360009054906101000a90046001600160a01b03166001600160a01b0316632150c5186040518163ffffffff1660e01b815260040160006040518083038186803b15801561122557600080fd5b505afa158015611239573d6000803e3d6000fd5b505050506040513d6000823e601f3d908101601f19168201604052602081101561126257600080fd5b8101908080516040519392919084600160201b82111561128157600080fd5b90830190602082018581111561129657600080fd5b82518660208202830111600160201b821117156112b257600080fd5b82525081516020918201928201910280838360005b838110156112df5781810151838201526020016112c7565b50505050905001604052505050905060008090505b8151811015610ede57600082828151811061130b57fe5b60209081029190910181015160015460408051632b4979db60e01b81526001600160a01b03928316600482015282841660248201529051929450600093918a1692632b4979db92604480840193919291829003018186803b15801561136f57600080fd5b505afa158015611383573d6000803e3d6000fd5b505050506040513d602081101561139957600080fd5b5051600354604080516330af0bbf60e21b81526001600160a01b0386811660048301529151939450600093919092169163c2bc2efc916024808301926020929190829003018186803b1580156113ee57600080fd5b505afa158015611402573d6000803e3d6000fd5b505050506040513d602081101561141857600080fd5b50519050600061142883896105fb565b905060008d6001600160a01b0316856001600160a01b03161461144b5783611455565b611455848e6106be565b90506000611463828a6105fb565b9050611472610ea18486610f04565b9c50611481610ebd8286610f04565b9b5050600190950194506112f49350505050565b60006c0c9f2c9cd04674edea4000000082106114ea576040805162461bcd60e51b815260206004820152600f60248201526e5f73756d20697320746f6f2062696760881b604482015290519081900360640190fd5b6003546040805163042a18a360e31b815290516000926001600160a01b031691632150c5189160048083019286929190829003018186803b15801561152e57600080fd5b505afa158015611542573d6000803e3d6000fd5b505050506040513d6000823e601f3d908101601f19168201604052602081101561156b57600080fd5b8101908080516040519392919084600160201b82111561158a57600080fd5b90830190602082018581111561159f57600080fd5b82518660208202830111600160201b821117156115bb57600080fd5b82525081516020918201928201910280838360005b838110156115e85781810151838201526020016115d0565b50505050905001604052505050511161163c576040805162461bcd60e51b81526020600482015260116024820152706e6f20746172676574207765696768747360781b604482015290519081900360640190fd5b60008061164c8585600003611095565b9092509050600061166e61094e670de0b6b3a76400008563ffffffff6121ff16565b9050600061168d61094e670de0b6b3a76400008563ffffffff6121ff16565b9050600082821161169f5760006116be565b6116be670de0b6b3a76400006106266109b6858763ffffffff6121ff16565b905060006116f4670de0b6b3a76400006106266116e760646004546121bd90919063ffffffff16565b8b9063ffffffff61216416565b90508082106117035780611705565b815b9998505050505050505050565b60045490565b6001546000906001600160a01b03163314611771576040805162461bcd60e51b81526020600482015260146024820152731bdb9b1e481b585cdcd95d081b585e4818d85b1b60621b604482015290519081900360640190fd5b60408051632668954b60e01b81526001600160a01b038716600482015260248101869052831515604482015290516000913091632668954b91606480820192602092909190829003018186803b1580156117ca57600080fd5b505afa1580156117de573d6000803e3d6000fd5b505050506040513d60208110156117f457600080fd5b5051905064e8d4a51000811061193c57600154604080516321df0da760e01b815290516000926001600160a01b0316916321df0da7916004808301926020929190829003018186803b15801561184957600080fd5b505afa15801561185d573d6000803e3d6000fd5b505050506040513d602081101561187357600080fd5b50516040805163a9059cbb60e01b81526001600160a01b0388811660048301526024820186905291519293509083169163a9059cbb916044808201926020929091908290030181600087803b1580156118cb57600080fd5b505af11580156118df573d6000803e3d6000fd5b505050506040513d60208110156118f557600080fd5b505161193a576040805162461bcd60e51b815260206004820152600f60248201526e1d1c985b9cd9995c8819985a5b1959608a1b604482015290519081900360640190fd5b505b95945050505050565b61194d611071565b61198c576040805162461bcd60e51b81526020600482018190526024820152600080516020612ba2833981519152604482015290519081900360640190fd5b68056bc75e2d631000008111156119e0576040805162461bcd60e51b815260206004820152601360248201527205f6d6178206d757374206265203c3d2031303606c1b604482015290519081900360640190fd5b600481905560408051828152905133917f3ff91c3ff3ed463c4203df0d1085923b277da5ac52b57c76997c5dac788f79ba919081900360200190a250565b6003546040805163019eb4a960e41b815290516060926001600160a01b0316916319eb4a90916004808301926000929190829003018186803b158015611a6357600080fd5b505afa158015611a77573d6000803e3d6000fd5b505050506040513d6000823e601f3d908101601f191682016040526020811015611aa057600080fd5b8101908080516040519392919084600160201b821115611abf57600080fd5b908301906020820185811115611ad457600080fd5b82518660208202830111600160201b82111715611af057600080fd5b82525081516020918201928201910280838360005b83811015611b1d578181015183820152602001611b05565b50505050905001604052505050905090565b6003546040805163042a18a360e31b815290516060926001600160a01b031691632150c518916004808301926000929190829003018186803b158015611a6357600080fd5b611b7c611071565b611bbb576040805162461bcd60e51b81526020600482018190526024820152600080516020612ba2833981519152604482015290519081900360640190fd5b828114611c08576040805162461bcd60e51b81526020600482015260166024820152750c2e4e4c2f2e640dcdee840e6c2daca40d8cadccee8d60531b604482015290519081900360640190fd5b604051611c1490612474565b604051809103906000f080158015611c30573d6000803e3d6000fd5b50600380546001600160a01b0319166001600160a01b03929092169190911790556000805b84811015611e2157611c81868683818110611c6c57fe5b905060200201356001600160a01b031661229f565b611cd2576040805162461bcd60e51b815260206004820152601c60248201527f746f6b656e2061646472657373206e6f74206120636f6e747261637400000000604482015290519081900360640190fd5b611cf7848483818110611ce157fe5b905060200201358361224190919063ffffffff16565b6003549092506001600160a01b0316633825d828878784818110611d1757fe5b905060200201356001600160a01b0316868685818110611d3357fe5b905060200201356040518363ffffffff1660e01b815260040180836001600160a01b03166001600160a01b0316815260200182815260200192505050600060405180830381600087803b158015611d8957600080fd5b505af1158015611d9d573d6000803e3d6000fd5b50505050858582818110611dad57fe5b905060200201356001600160a01b03166001600160a01b0316336001600160a01b03167fe244f18c51f574b0b6511ff693e976cab6eb44b4984ed5a28d1641f0f5d26f3b868685818110611dfd57fe5b905060200201356040518082815260200191505060405180910390a3600101611c55565b50670de0b6b3a76400008114611e6e576040805162461bcd60e51b815260206004820152600d60248201526c746f74616c206e6f74206f6e6560981b604482015290519081900360640190fd5b5050505050565b6001546001600160a01b031690565b611e8c611071565b611ecb576040805162461bcd60e51b81526020600482018190526024820152600080516020612ba2833981519152604482015290519081900360640190fd5b6001600160a01b038316611f1e576040805162461bcd60e51b8152602060048201526015602482015274696e76616c696420746f6b656e206164647265737360581b604482015290519081900360640190fd5b6001600160a01b038216611f6d576040805162461bcd60e51b81526020600482015260116024820152701a5b9d985b1a59081c9958da5c1a595b9d607a1b604482015290519081900360640190fd5b6040805163a9059cbb60e01b81526001600160a01b03848116600483015260248201849052915160009286169163a9059cbb91604480830192602092919082900301818787803b158015611fc057600080fd5b505af1158015611fd4573d6000803e3d6000fd5b505050506040513d6020811015611fea57600080fd5b5051905080612032576040805162461bcd60e51b815260206004820152600f60248201526e1d1c985b9cd9995c8819985a5b1959608a1b604482015290519081900360640190fd5b50505050565b612040611071565b61207f576040805162461bcd60e51b81526020600482018190526024820152600080516020612ba2833981519152604482015290519081900360640190fd5b68056bc75e2d631000008111156120d3576040805162461bcd60e51b815260206004820152601360248201527205f6d6178206d757374206265203c3d2031303606c1b604482015290519081900360640190fd5b600581905560408051828152905133917f6c3274009f594658ef35ef783dff1ad69e5c49eb3471be8e8a08dd503c6392bb919081900360200190a250565b612119611071565b612158576040805162461bcd60e51b81526020600482018190526024820152600080516020612ba2833981519152604482015290519081900360640190fd5b612161816122d8565b50565b60008261217357506000610635565b8282028284828161218057fe5b04146106325760405162461bcd60e51b8152600401808060200182810382526021815260200180612b816021913960400191505060405180910390fd5b600061063283836040518060400160405280601a81526020017f536166654d6174683a206469766973696f6e206279207a65726f000000000000815250612378565b600061063283836040518060400160405280601e81526020017f536166654d6174683a207375627472616374696f6e206f766572666c6f77000081525061241a565b600082820183811015610632576040805162461bcd60e51b815260206004820152601b60248201527f536166654d6174683a206164646974696f6e206f766572666c6f770000000000604482015290519081900360640190fd5b3390565b6000813f7fc5d2460186f7233c927e7db2dcc703c0e500b653ca82273b7bfad8045d85a470818114801590610f38575050151592915050565b6001600160a01b03811661231d5760405162461bcd60e51b8152600401808060200182810382526026815260200180612b5b6026913960400191505060405180910390fd5b600080546040516001600160a01b03808516939216917f8be0079c531659141344cd1fd0a4f28419497f9722a3daafe3b4186f6b6457e091a3600080546001600160a01b0319166001600160a01b0392909216919091179055565b600081836124045760405162461bcd60e51b81526004018080602001828103825283818151815260200191508051906020019080838360005b838110156123c95781810151838201526020016123b1565b50505050905090810190601f1680156123f65780820380516001836020036101000a031916815260200191505b509250505060405180910390fd5b50600083858161241057fe5b0495945050505050565b6000818484111561246c5760405162461bcd60e51b81526020600482018181528351602484015283519092839260449091019190850190808383600083156123c95781810151838201526020016123b1565b505050900390565b6106d9806124828339019056fe608060405234801561001057600080fd5b5060006100246001600160e01b0361007316565b600080546001600160a01b0319166001600160a01b0383169081178255604051929350917f8be0079c531659141344cd1fd0a4f28419497f9722a3daafe3b4186f6b6457e0908290a350610077565b3390565b610653806100866000396000f3fe608060405234801561001057600080fd5b50600436106100935760003560e01c80638da5cb5b116100665780638da5cb5b1461012e5780638f32d59b14610152578063c2bc2efc1461016e578063f2fde38b146101a6578063f6a3d24e146101cc57610093565b806319eb4a90146100985780632150c518146100f05780633825d828146100f8578063715018a614610126575b600080fd5b6100a06101f2565b60408051602080825283518183015283519192839290830191858101910280838360005b838110156100dc5781810151838201526020016100c4565b505050509050019250505060405180910390f35b6100a0610290565b6101246004803603604081101561010e57600080fd5b506001600160a01b0381351690602001356102f2565b005b6101246103e0565b610136610483565b604080516001600160a01b039092168252519081900360200190f35b61015a610492565b604080519115158252519081900360200190f35b6101946004803603602081101561018457600080fd5b50356001600160a01b03166104b6565b60408051918252519081900360200190f35b610124600480360360208110156101bc57600080fd5b50356001600160a01b03166104d1565b61015a600480360360208110156101e257600080fd5b50356001600160a01b0316610536565b606080600380549050604051908082528060200260200182016040528015610224578160200160208202803883390190505b50905060005b815181101561028a57600160006003838154811061024457fe5b60009182526020808320909101546001600160a01b03168352820192909252604001902054825183908390811061027757fe5b602090810291909101015260010161022a565b50905090565b606060038054806020026020016040519081016040528092919081815260200182805480156102e857602002820191906000526020600020905b81546001600160a01b031681526001909101906020018083116102ca575b5050505050905090565b6102fa610492565b61034b576040805162461bcd60e51b815260206004820181905260248201527f4f776e61626c653a2063616c6c6572206973206e6f7420746865206f776e6572604482015290519081900360640190fd5b6001600160a01b0382166000908152600160209081526040808320849055600290915290205460ff166103dc576003805460018082019092557fc2575a0e9e593c00f959f8c92f12db2869c3395a3b0502d05e2516446f71f85b0180546001600160a01b0319166001600160a01b0385169081179091556000908152600260205260409020805460ff191690911790555b5050565b6103e8610492565b610439576040805162461bcd60e51b815260206004820181905260248201527f4f776e61626c653a2063616c6c6572206973206e6f7420746865206f776e6572604482015290519081900360640190fd5b600080546040516001600160a01b03909116907f8be0079c531659141344cd1fd0a4f28419497f9722a3daafe3b4186f6b6457e0908390a3600080546001600160a01b0319169055565b6000546001600160a01b031690565b600080546001600160a01b03166104a7610554565b6001600160a01b031614905090565b6001600160a01b031660009081526001602052604090205490565b6104d9610492565b61052a576040805162461bcd60e51b815260206004820181905260248201527f4f776e61626c653a2063616c6c6572206973206e6f7420746865206f776e6572604482015290519081900360640190fd5b61053381610558565b50565b6001600160a01b031660009081526002602052604090205460ff1690565b3390565b6001600160a01b03811661059d5760405162461bcd60e51b81526004018080602001828103825260268152602001806105f96026913960400191505060405180910390fd5b600080546040516001600160a01b03808516939216917f8be0079c531659141344cd1fd0a4f28419497f9722a3daafe3b4186f6b6457e091a3600080546001600160a01b0319166001600160a01b039290921691909117905556fe4f776e61626c653a206e6577206f776e657220697320746865207a65726f2061646472657373a265627a7a72315820bad6a122411ce905774fff75f849ebd6f41a88e0215be361e7b4891ad221c68e64736f6c634300051100324f776e61626c653a206e6577206f776e657220697320746865207a65726f2061646472657373536166654d6174683a206d756c7469706c69636174696f6e206f766572666c6f774f776e61626c653a2063616c6c6572206973206e6f7420746865206f776e6572a265627a7a72315820dd86e4a4d4cb1669b65b290762c40709e06c6a0bcafa625f59259dfddb3fb29464736f6c63430005110032608060405234801561001057600080fd5b5060006100246001600160e01b0361007316565b600080546001600160a01b0319166001600160a01b0383169081178255604051929350917f8be0079c531659141344cd1fd0a4f28419497f9722a3daafe3b4186f6b6457e0908290a350610077565b3390565b610653806100866000396000f3fe608060405234801561001057600080fd5b50600436106100935760003560e01c80638da5cb5b116100665780638da5cb5b1461012e5780638f32d59b14610152578063c2bc2efc1461016e578063f2fde38b146101a6578063f6a3d24e146101cc57610093565b806319eb4a90146100985780632150c518146100f05780633825d828146100f8578063715018a614610126575b600080fd5b6100a06101f2565b60408051602080825283518183015283519192839290830191858101910280838360005b838110156100dc5781810151838201526020016100c4565b505050509050019250505060405180910390f35b6100a0610290565b6101246004803603604081101561010e57600080fd5b506001600160a01b0381351690602001356102f2565b005b6101246103e0565b610136610483565b604080516001600160a01b039092168252519081900360200190f35b61015a610492565b604080519115158252519081900360200190f35b6101946004803603602081101561018457600080fd5b50356001600160a01b03166104b6565b60408051918252519081900360200190f35b610124600480360360208110156101bc57600080fd5b50356001600160a01b03166104d1565b61015a600480360360208110156101e257600080fd5b50356001600160a01b0316610536565b606080600380549050604051908082528060200260200182016040528015610224578160200160208202803883390190505b50905060005b815181101561028a57600160006003838154811061024457fe5b60009182526020808320909101546001600160a01b03168352820192909252604001902054825183908390811061027757fe5b602090810291909101015260010161022a565b50905090565b606060038054806020026020016040519081016040528092919081815260200182805480156102e857602002820191906000526020600020905b81546001600160a01b031681526001909101906020018083116102ca575b5050505050905090565b6102fa610492565b61034b576040805162461bcd60e51b815260206004820181905260248201527f4f776e61626c653a2063616c6c6572206973206e6f7420746865206f776e6572604482015290519081900360640190fd5b6001600160a01b0382166000908152600160209081526040808320849055600290915290205460ff166103dc576003805460018082019092557fc2575a0e9e593c00f959f8c92f12db2869c3395a3b0502d05e2516446f71f85b0180546001600160a01b0319166001600160a01b0385169081179091556000908152600260205260409020805460ff191690911790555b5050565b6103e8610492565b610439576040805162461bcd60e51b815260206004820181905260248201527f4f776e61626c653a2063616c6c6572206973206e6f7420746865206f776e6572604482015290519081900360640190fd5b600080546040516001600160a01b03909116907f8be0079c531659141344cd1fd0a4f28419497f9722a3daafe3b4186f6b6457e0908390a3600080546001600160a01b0319169055565b6000546001600160a01b031690565b600080546001600160a01b03166104a7610554565b6001600160a01b031614905090565b6001600160a01b031660009081526001602052604090205490565b6104d9610492565b61052a576040805162461bcd60e51b815260206004820181905260248201527f4f776e61626c653a2063616c6c6572206973206e6f7420746865206f776e6572604482015290519081900360640190fd5b61053381610558565b50565b6001600160a01b031660009081526002602052604090205460ff1690565b3390565b6001600160a01b03811661059d5760405162461bcd60e51b81526004018080602001828103825260268152602001806105f96026913960400191505060405180910390fd5b600080546040516001600160a01b03808516939216917f8be0079c531659141344cd1fd0a4f28419497f9722a3daafe3b4186f6b6457e091a3600080546001600160a01b0319166001600160a01b039290921691909117905556fe4f776e61626c653a206e6577206f776e657220697320746865207a65726f2061646472657373a265627a7a72315820bad6a122411ce905774fff75f849ebd6f41a88e0215be361e7b4891ad221c68e64736f6c63430005110032",
  "linkReferences": {},
  "deployedLinkReferences": {}
}